{
  "contractName": "Bottles",
  "abi": [
    {
      "inputs": [
        {
          "internalType": "string",
          "name": "name",
          "type": "string"
        },
        {
          "internalType": "string",
          "name": "symbol",
          "type": "string"
        }
      ],
      "stateMutability": "nonpayable",
      "type": "constructor"
    },
    {
      "anonymous": false,
      "inputs": [
        {
          "indexed": true,
          "internalType": "address",
          "name": "owner",
          "type": "address"
        },
        {
          "indexed": true,
          "internalType": "address",
          "name": "approved",
          "type": "address"
        },
        {
          "indexed": true,
          "internalType": "uint256",
          "name": "tokenId",
          "type": "uint256"
        }
      ],
      "name": "Approval",
      "type": "event"
    },
    {
      "anonymous": false,
      "inputs": [
        {
          "indexed": true,
          "internalType": "address",
          "name": "owner",
          "type": "address"
        },
        {
          "indexed": true,
          "internalType": "address",
          "name": "operator",
          "type": "address"
        },
        {
          "indexed": false,
          "internalType": "bool",
          "name": "approved",
          "type": "bool"
        }
      ],
      "name": "ApprovalForAll",
      "type": "event"
    },
    {
      "anonymous": false,
      "inputs": [
        {
          "indexed": true,
          "internalType": "address",
          "name": "previousOwner",
          "type": "address"
        },
        {
          "indexed": true,
          "internalType": "address",
          "name": "newOwner",
          "type": "address"
        }
      ],
      "name": "OwnershipTransferred",
      "type": "event"
    },
    {
      "anonymous": false,
      "inputs": [
        {
          "indexed": true,
          "internalType": "address",
          "name": "from",
          "type": "address"
        },
        {
          "indexed": true,
          "internalType": "address",
          "name": "to",
          "type": "address"
        },
        {
          "indexed": true,
          "internalType": "uint256",
          "name": "tokenId",
          "type": "uint256"
        }
      ],
      "name": "Transfer",
      "type": "event"
    },
    {
      "anonymous": false,
      "inputs": [
        {
          "indexed": false,
          "internalType": "uint256",
          "name": "tokenId",
          "type": "uint256"
        },
        {
          "indexed": false,
          "internalType": "string",
          "name": "wineName",
          "type": "string"
        },
        {
          "indexed": false,
          "internalType": "string",
          "name": "bottleUid",
          "type": "string"
        }
      ],
      "name": "action",
      "type": "event"
    },
    {
      "inputs": [
        {
          "internalType": "address",
          "name": "to",
          "type": "address"
        },
        {
          "internalType": "uint256",
          "name": "tokenId",
          "type": "uint256"
        }
      ],
      "name": "approve",
      "outputs": [],
      "stateMutability": "nonpayable",
      "type": "function"
    },
    {
      "inputs": [
        {
          "internalType": "address",
          "name": "owner",
          "type": "address"
        }
      ],
      "name": "balanceOf",
      "outputs": [
        {
          "internalType": "uint256",
          "name": "",
          "type": "uint256"
        }
      ],
      "stateMutability": "view",
      "type": "function",
      "constant": true
    },
    {
      "inputs": [],
      "name": "baseURI",
      "outputs": [
        {
          "internalType": "string",
          "name": "",
          "type": "string"
        }
      ],
      "stateMutability": "view",
      "type": "function",
      "constant": true
    },
    {
      "inputs": [
        {
          "internalType": "string",
          "name": "",
          "type": "string"
        },
        {
          "internalType": "string",
          "name": "",
          "type": "string"
        }
      ],
      "name": "bottle",
      "outputs": [
        {
          "internalType": "bool",
          "name": "",
          "type": "bool"
        }
      ],
      "stateMutability": "view",
      "type": "function",
      "constant": true
    },
    {
      "inputs": [
        {
          "internalType": "uint256",
          "name": "tokenId",
          "type": "uint256"
        }
      ],
      "name": "getApproved",
      "outputs": [
        {
          "internalType": "address",
          "name": "",
          "type": "address"
        }
      ],
      "stateMutability": "view",
      "type": "function",
      "constant": true
    },
    {
      "inputs": [
        {
          "internalType": "string",
          "name": "",
          "type": "string"
        },
        {
          "internalType": "string",
          "name": "",
          "type": "string"
        }
      ],
      "name": "id",
      "outputs": [
        {
          "internalType": "uint256",
          "name": "",
          "type": "uint256"
        }
      ],
      "stateMutability": "view",
      "type": "function",
      "constant": true
    },
    {
      "inputs": [
        {
          "internalType": "address",
          "name": "owner",
          "type": "address"
        },
        {
          "internalType": "address",
          "name": "operator",
          "type": "address"
        }
      ],
      "name": "isApprovedForAll",
      "outputs": [
        {
          "internalType": "bool",
          "name": "",
          "type": "bool"
        }
      ],
      "stateMutability": "view",
      "type": "function",
      "constant": true
    },
    {
      "inputs": [],
      "name": "name",
      "outputs": [
        {
          "internalType": "string",
          "name": "",
          "type": "string"
        }
      ],
      "stateMutability": "view",
      "type": "function",
      "constant": true
    },
    {
      "inputs": [],
      "name": "owner",
      "outputs": [
        {
          "internalType": "address",
          "name": "",
          "type": "address"
        }
      ],
      "stateMutability": "view",
      "type": "function",
      "constant": true
    },
    {
      "inputs": [
        {
          "internalType": "uint256",
          "name": "tokenId",
          "type": "uint256"
        }
      ],
      "name": "ownerOf",
      "outputs": [
        {
          "internalType": "address",
          "name": "",
          "type": "address"
        }
      ],
      "stateMutability": "view",
      "type": "function",
      "constant": true
    },
    {
      "inputs": [],
      "name": "renounceOwnership",
      "outputs": [],
      "stateMutability": "nonpayable",
      "type": "function"
    },
    {
      "inputs": [
        {
          "internalType": "address",
          "name": "from",
          "type": "address"
        },
        {
          "internalType": "address",
          "name": "to",
          "type": "address"
        },
        {
          "internalType": "uint256",
          "name": "tokenId",
          "type": "uint256"
        }
      ],
      "name": "safeTransferFrom",
      "outputs": [],
      "stateMutability": "nonpayable",
      "type": "function"
    },
    {
      "inputs": [
        {
          "internalType": "address",
          "name": "from",
          "type": "address"
        },
        {
          "internalType": "address",
          "name": "to",
          "type": "address"
        },
        {
          "internalType": "uint256",
          "name": "tokenId",
          "type": "uint256"
        },
        {
          "internalType": "bytes",
          "name": "_data",
          "type": "bytes"
        }
      ],
      "name": "safeTransferFrom",
      "outputs": [],
      "stateMutability": "nonpayable",
      "type": "function"
    },
    {
      "inputs": [
        {
          "internalType": "address",
          "name": "operator",
          "type": "address"
        },
        {
          "internalType": "bool",
          "name": "approved",
          "type": "bool"
        }
      ],
      "name": "setApprovalForAll",
      "outputs": [],
      "stateMutability": "nonpayable",
      "type": "function"
    },
    {
      "inputs": [
        {
          "internalType": "bytes4",
          "name": "interfaceId",
          "type": "bytes4"
        }
      ],
      "name": "supportsInterface",
      "outputs": [
        {
          "internalType": "bool",
          "name": "",
          "type": "bool"
        }
      ],
      "stateMutability": "view",
      "type": "function",
      "constant": true
    },
    {
      "inputs": [],
      "name": "symbol",
      "outputs": [
        {
          "internalType": "string",
          "name": "",
          "type": "string"
        }
      ],
      "stateMutability": "view",
      "type": "function",
      "constant": true
    },
    {
      "inputs": [
        {
          "internalType": "uint256",
          "name": "index",
          "type": "uint256"
        }
      ],
      "name": "tokenByIndex",
      "outputs": [
        {
          "internalType": "uint256",
          "name": "",
          "type": "uint256"
        }
      ],
      "stateMutability": "view",
      "type": "function",
      "constant": true
    },
    {
      "inputs": [
        {
          "internalType": "address",
          "name": "owner",
          "type": "address"
        },
        {
          "internalType": "uint256",
          "name": "index",
          "type": "uint256"
        }
      ],
      "name": "tokenOfOwnerByIndex",
      "outputs": [
        {
          "internalType": "uint256",
          "name": "",
          "type": "uint256"
        }
      ],
      "stateMutability": "view",
      "type": "function",
      "constant": true
    },
    {
      "inputs": [
        {
          "internalType": "uint256",
          "name": "tokenId",
          "type": "uint256"
        }
      ],
      "name": "tokenURI",
      "outputs": [
        {
          "internalType": "string",
          "name": "",
          "type": "string"
        }
      ],
      "stateMutability": "view",
      "type": "function",
      "constant": true
    },
    {
      "inputs": [],
      "name": "totalSupply",
      "outputs": [
        {
          "internalType": "uint256",
          "name": "",
          "type": "uint256"
        }
      ],
      "stateMutability": "view",
      "type": "function",
      "constant": true
    },
    {
      "inputs": [
        {
          "internalType": "address",
          "name": "from",
          "type": "address"
        },
        {
          "internalType": "address",
          "name": "to",
          "type": "address"
        },
        {
          "internalType": "uint256",
          "name": "tokenId",
          "type": "uint256"
        }
      ],
      "name": "transferFrom",
      "outputs": [],
      "stateMutability": "nonpayable",
      "type": "function"
    },
    {
      "inputs": [
        {
          "internalType": "address",
          "name": "newOwner",
          "type": "address"
        }
      ],
      "name": "transferOwnership",
      "outputs": [],
      "stateMutability": "nonpayable",
      "type": "function"
    },
    {
      "inputs": [
        {
          "internalType": "string",
          "name": "wineName",
          "type": "string"
        },
        {
          "internalType": "string",
          "name": "bottleUid",
          "type": "string"
        }
      ],
      "name": "burnBottle",
      "outputs": [],
      "stateMutability": "nonpayable",
      "type": "function"
    },
    {
      "inputs": [
        {
          "internalType": "address",
          "name": "to",
          "type": "address"
        },
        {
          "internalType": "string",
          "name": "wineName",
          "type": "string"
        },
        {
          "internalType": "string",
          "name": "bottleUid",
          "type": "string"
        }
      ],
      "name": "transferBottle",
      "outputs": [],
      "stateMutability": "nonpayable",
      "type": "function"
    },
    {
      "inputs": [
        {
          "internalType": "string",
          "name": "wineName",
          "type": "string"
        },
        {
          "internalType": "string",
          "name": "bottleUid",
          "type": "string"
        },
        {
          "internalType": "string",
          "name": "bildLink",
          "type": "string"
        }
      ],
      "name": "mintBottle",
      "outputs": [],
      "stateMutability": "nonpayable",
      "type": "function"
    },
    {
      "inputs": [
        {
          "internalType": "string",
          "name": "wineName",
          "type": "string"
        },
        {
          "internalType": "string",
          "name": "bottleUid",
          "type": "string"
        }
      ],
      "name": "existence",
      "outputs": [
        {
          "internalType": "bool",
          "name": "",
          "type": "bool"
        }
      ],
      "stateMutability": "nonpayable",
      "type": "function"
    }
  ],
  "bytecode": "0x60806040526001600e553480156200001657600080fd5b506040516200535b3803806200535b833981810160405260408110156200003c57600080fd5b81019080805160405193929190846401000000008211156200005d57600080fd5b838201915060208201858111156200007457600080fd5b82518660018202830111640100000000821117156200009257600080fd5b8083526020830192505050908051906020019080838360005b83811015620000c8578082015181840152602081019050620000ab565b50505050905090810190601f168015620000f65780820380516001836020036101000a031916815260200191505b50604052602001805160405193929190846401000000008211156200011a57600080fd5b838201915060208201858111156200013157600080fd5b82518660018202830111640100000000821117156200014f57600080fd5b8083526020830192505050908051906020019080838360005b838110156200018557808201518184015260208101905062000168565b50505050905090810190601f168015620001b35780820380516001836020036101000a031916815260200191505b506040525050508181620001d46301ffc9a760e01b6200030960201b60201c565b8160069080519060200190620001ec9291906200041a565b508060079080519060200190620002059291906200041a565b506200021e6380ac58cd60e01b6200030960201b60201c565b62000236635b5e139f60e01b6200030960201b60201c565b6200024e63780e9d6360e01b6200030960201b60201c565b50506000620002626200041260201b60201c565b905080600a60006101000a81548173ffffffffffffffffffffffffffffffffffffffff021916908373ffffffffffffffffffffffffffffffffffffffff1602179055508073ffffffffffffffffffffffffffffffffffffffff16600073ffffffffffffffffffffffffffffffffffffffff167f8be0079c531659141344cd1fd0a4f28419497f9722a3daafe3b4186f6b6457e060405160405180910390a3505050620004c9565b63ffffffff60e01b817bffffffffffffffffffffffffffffffffffffffffffffffffffffffff19161415620003a6576040517f08c379a000000000000000000000000000000000000000000000000000000000815260040180806020018281038252601c8152602001807f4552433136353a20696e76616c696420696e746572666163652069640000000081525060200191505060405180910390fd5b6001600080837bffffffffffffffffffffffffffffffffffffffffffffffffffffffff19167bffffffffffffffffffffffffffffffffffffffffffffffffffffffff1916815260200190815260200160002060006101000a81548160ff02191690831515021790555050565b600033905090565b828054600181600116156101000203166002900490600052602060002090601f016020900481019282601f106200045d57805160ff19168380011785556200048e565b828001600101855582156200048e579182015b828111156200048d57825182559160200191906001019062000470565b5b5090506200049d9190620004a1565b5090565b620004c691905b80821115620004c2576000816000905550600101620004a8565b5090565b90565b614e8280620004d96000396000f3fe608060405234801561001057600080fd5b506004361061018e5760003560e01c806370a08231116100de578063c87b56dd11610097578063e0c78c8411610071578063e0c78c8414610f08578063e985e9c51461106e578063ee9350ba146110ea578063f2fde38b146112545761018e565b8063c87b56dd14610b85578063d81f037214610c2c578063da57aedb14610d9e5761018e565b806370a0823114610901578063715018a6146109595780638da5cb5b1461096357806395d89b41146109ad578063a22cb46514610a30578063b88d4fde14610a805761018e565b80632487cc251161014b5780634f6ccce7116101255780634f6ccce71461067c5780636352211e146106be5780636a0094ab1461072c5780636c0360eb1461087e5761018e565b80632487cc25146103c35780632f745c59146105ac57806342842e0e1461060e5761018e565b806301ffc9a71461019357806306fdde03146101f8578063081812fc1461027b578063095ea7b3146102e957806318160ddd1461033757806323b872dd14610355575b600080fd5b6101de600480360360208110156101a957600080fd5b8101908080357bffffffffffffffffffffffffffffffffffffffffffffffffffffffff19169060200190929190505050611298565b604051808215151515815260200191505060405180910390f35b6102006112ff565b6040518080602001828103825283818151815260200191508051906020019080838360005b83811015610240578082015181840152602081019050610225565b50505050905090810190601f16801561026d5780820380516001836020036101000a031916815260200191505b509250505060405180910390f35b6102a76004803603602081101561029157600080fd5b81019080803590602001909291905050506113a1565b604051808273ffffffffffffffffffffffffffffffffffffffff1673ffffffffffffffffffffffffffffffffffffffff16815260200191505060405180910390f35b610335600480360360408110156102ff57600080fd5b81019080803573ffffffffffffffffffffffffffffffffffffffff1690602001909291908035906020019092919050505061143c565b005b61033f611580565b6040518082815260200191505060405180910390f35b6103c16004803603606081101561036b57600080fd5b81019080803573ffffffffffffffffffffffffffffffffffffffff169060200190929190803573ffffffffffffffffffffffffffffffffffffffff16906020019092919080359060200190929190505050611591565b005b6105aa600480360360608110156103d957600080fd5b81019080803590602001906401000000008111156103f657600080fd5b82018360208201111561040857600080fd5b8035906020019184600183028401116401000000008311171561042a57600080fd5b91908080601f016020809104026020016040519081016040528093929190818152602001838380828437600081840152601f19601f8201169050808301925050505050505091929192908035906020019064010000000081111561048d57600080fd5b82018360208201111561049f57600080fd5b803590602001918460018302840111640100000000831117156104c157600080fd5b91908080601f016020809104026020016040519081016040528093929190818152602001838380828437600081840152601f19601f8201169050808301925050505050505091929192908035906020019064010000000081111561052457600080fd5b82018360208201111561053657600080fd5b8035906020019184600183028401116401000000008311171561055857600080fd5b91908080601f016020809104026020016040519081016040528093929190818152602001838380828437600081840152601f19601f820116905080830192505050505050509192919290505050611607565b005b6105f8600480360360408110156105c257600080fd5b81019080803573ffffffffffffffffffffffffffffffffffffffff16906020019092919080359060200190929190505050611d79565b6040518082815260200191505060405180910390f35b61067a6004803603606081101561062457600080fd5b81019080803573ffffffffffffffffffffffffffffffffffffffff169060200190929190803573ffffffffffffffffffffffffffffffffffffffff16906020019092919080359060200190929190505050611dd4565b005b6106a86004803603602081101561069257600080fd5b8101908080359060200190929190505050611df4565b6040518082815260200191505060405180910390f35b6106ea600480360360208110156106d457600080fd5b8101908080359060200190929190505050611e17565b604051808273ffffffffffffffffffffffffffffffffffffffff1673ffffffffffffffffffffffffffffffffffffffff16815260200191505060405180910390f35b61087c6004803603604081101561074257600080fd5b810190808035906020019064010000000081111561075f57600080fd5b82018360208201111561077157600080fd5b8035906020019184600183028401116401000000008311171561079357600080fd5b91908080601f016020809104026020016040519081016040528093929190818152602001838380828437600081840152601f19601f820116905080830192505050505050509192919290803590602001906401000000008111156107f657600080fd5b82018360208201111561080857600080fd5b8035906020019184600183028401116401000000008311171561082a57600080fd5b91908080601f016020809104026020016040519081016040528093929190818152602001838380828437600081840152601f19601f820116905080830192505050505050509192919290505050611e4e565b005b610886612542565b6040518080602001828103825283818151815260200191508051906020019080838360005b838110156108c65780820151818401526020810190506108ab565b50505050905090810190601f1680156108f35780820380516001836020036101000a031916815260200191505b509250505060405180910390f35b6109436004803603602081101561091757600080fd5b81019080803573ffffffffffffffffffffffffffffffffffffffff1690602001909291905050506125e4565b6040518082815260200191505060405180910390f35b6109616126b9565b005b61096b612829565b604051808273ffffffffffffffffffffffffffffffffffffffff1673ffffffffffffffffffffffffffffffffffffffff16815260200191505060405180910390f35b6109b5612853565b6040518080602001828103825283818151815260200191508051906020019080838360005b838110156109f55780820151818401526020810190506109da565b50505050905090810190601f168015610a225780820380516001836020036101000a031916815260200191505b509250505060405180910390f35b610a7e60048036036040811015610a4657600080fd5b81019080803573ffffffffffffffffffffffffffffffffffffffff1690602001909291908035151590602001909291905050506128f5565b005b610b8360048036036080811015610a9657600080fd5b81019080803573ffffffffffffffffffffffffffffffffffffffff169060200190929190803573ffffffffffffffffffffffffffffffffffffffff1690602001909291908035906020019092919080359060200190640100000000811115610afd57600080fd5b820183602082011115610b0f57600080fd5b80359060200191846001830284011164010000000083111715610b3157600080fd5b91908080601f016020809104026020016040519081016040528093929190818152602001838380828437600081840152601f19601f820116905080830192505050505050509192919290505050612aad565b005b610bb160048036036020811015610b9b57600080fd5b8101908080359060200190929190505050612b25565b6040518080602001828103825283818151815260200191508051906020019080838360005b83811015610bf1578082015181840152602081019050610bd6565b50505050905090810190601f168015610c1e5780820380516001836020036101000a031916815260200191505b509250505060405180910390f35b610d9c60048036036060811015610c4257600080fd5b81019080803573ffffffffffffffffffffffffffffffffffffffff16906020019092919080359060200190640100000000811115610c7f57600080fd5b820183602082011115610c9157600080fd5b80359060200191846001830284011164010000000083111715610cb357600080fd5b91908080601f016020809104026020016040519081016040528093929190818152602001838380828437600081840152601f19601f82011690508083019250505050505050919291929080359060200190640100000000811115610d1657600080fd5b820183602082011115610d2857600080fd5b80359060200191846001830284011164010000000083111715610d4a57600080fd5b91908080601f016020809104026020016040519081016040528093929190818152602001838380828437600081840152601f19601f820116905080830192505050505050509192919290505050612df6565b005b610eee60048036036040811015610db457600080fd5b8101908080359060200190640100000000811115610dd157600080fd5b820183602082011115610de357600080fd5b80359060200191846001830284011164010000000083111715610e0557600080fd5b91908080601f016020809104026020016040519081016040528093929190818152602001838380828437600081840152601f19601f82011690508083019250505050505050919291929080359060200190640100000000811115610e6857600080fd5b820183602082011115610e7a57600080fd5b80359060200191846001830284011164010000000083111715610e9c57600080fd5b91908080601f016020809104026020016040519081016040528093929190818152602001838380828437600081840152601f19601f820116905080830192505050505050509192919290505050613131565b604051808215151515815260200191505060405180910390f35b61105860048036036040811015610f1e57600080fd5b8101908080359060200190640100000000811115610f3b57600080fd5b820183602082011115610f4d57600080fd5b80359060200191846001830284011164010000000083111715610f6f57600080fd5b91908080601f016020809104026020016040519081016040528093929190818152602001838380828437600081840152601f19601f82011690508083019250505050505050919291929080359060200190640100000000811115610fd257600080fd5b820183602082011115610fe457600080fd5b8035906020019184600183028401116401000000008311171561100657600080fd5b91908080601f016020809104026020016040519081016040528093929190818152602001838380828437600081840152601f19601f82011690508083019250505050505050919291929050505061318c565b6040518082815260200191505060405180910390f35b6110d06004803603604081101561108457600080fd5b81019080803573ffffffffffffffffffffffffffffffffffffffff169060200190929190803573ffffffffffffffffffffffffffffffffffffffff1690602001909291905050506131dd565b604051808215151515815260200191505060405180910390f35b61123a6004803603604081101561110057600080fd5b810190808035906020019064010000000081111561111d57600080fd5b82018360208201111561112f57600080fd5b8035906020019184600183028401116401000000008311171561115157600080fd5b91908080601f016020809104026020016040519081016040528093929190818152602001838380828437600081840152601f19601f820116905080830192505050505050509192919290803590602001906401000000008111156111b457600080fd5b8201836020820111156111c657600080fd5b803590602001918460018302840111640100000000831117156111e857600080fd5b91908080601f016020809104026020016040519081016040528093929190818152602001838380828437600081840152601f19601f820116905080830192505050505050509192919290505050613271565b604051808215151515815260200191505060405180910390f35b6112966004803603602081101561126a57600080fd5b81019080803573ffffffffffffffffffffffffffffffffffffffff169060200190929190505050613359565b005b6000806000837bffffffffffffffffffffffffffffffffffffffffffffffffffffffff19167bffffffffffffffffffffffffffffffffffffffffffffffffffffffff1916815260200190815260200160002060009054906101000a900460ff169050919050565b606060068054600181600116156101000203166002900480601f0160208091040260200160405190810160405280929190818152602001828054600181600116156101000203166002900480156113975780601f1061136c57610100808354040283529160200191611397565b820191906000526020600020905b81548152906001019060200180831161137a57829003601f168201915b5050505050905090565b60006113ac8261354e565b611401576040517f08c379a000000000000000000000000000000000000000000000000000000000815260040180806020018281038252602c815260200180614d28602c913960400191505060405180910390fd5b6004600083815260200190815260200160002060009054906101000a900473ffffffffffffffffffffffffffffffffffffffff169050919050565b600061144782611e17565b90508073ffffffffffffffffffffffffffffffffffffffff168373ffffffffffffffffffffffffffffffffffffffff1614156114ce576040517f08c379a0000000000000000000000000000000000000000000000000000000008152600401808060200182810382526021815260200180614dd86021913960400191505060405180910390fd5b8073ffffffffffffffffffffffffffffffffffffffff166114ed61356b565b73ffffffffffffffffffffffffffffffffffffffff16148061151c575061151b8161151661356b565b6131dd565b5b611571576040517f08c379a0000000000000000000000000000000000000000000000000000000008152600401808060200182810382526038815260200180614c7b6038913960400191505060405180910390fd5b61157b8383613573565b505050565b600061158c600261362c565b905090565b6115a261159c61356b565b82613641565b6115f7576040517f08c379a0000000000000000000000000000000000000000000000000000000008152600401808060200182810382526031815260200180614df96031913960400191505060405180910390fd5b611602838383613735565b505050565b61160f61356b565b73ffffffffffffffffffffffffffffffffffffffff1661162d612829565b73ffffffffffffffffffffffffffffffffffffffff16146116b6576040517f08c379a00000000000000000000000000000000000000000000000000000000081526004018080602001828103825260208152602001807f4f776e61626c653a2063616c6c6572206973206e6f7420746865206f776e657281525060200191505060405180910390fd5b60001515600d846040518082805190602001908083835b602083106116f057805182526020820191506020810190506020830392506116cd565b6001836020036101000a0380198251168184511680821785525050505050509050019150509081526020016040518091039020836040518082805190602001908083835b602083106117575780518252602082019150602081019050602083039250611734565b6001836020036101000a038019825116818451168082178552505050505050905001915050908152602001604051809103902060009054906101000a900460ff1615151461180d576040517f08c379a000000000000000000000000000000000000000000000000000000000815260040180806020018281038252601c8152602001807f426f74746c653a20746f6b656e20616c7265616479206d696e7465640000000081525060200191505060405180910390fd5b600e54600b846040518082805190602001908083835b602083106118465780518252602082019150602081019050602083039250611823565b6001836020036101000a0380198251168184511680821785525050505050509050019150509081526020016040518091039020836040518082805190602001908083835b602083106118ad578051825260208201915060208101905060208303925061188a565b6001836020036101000a0380198251168184511680821785525050505050509050019150509081526020016040518091039020819055506119be33600b856040518082805190602001908083835b6020831061191e57805182526020820191506020810190506020830392506118fb565b6001836020036101000a0380198251168184511680821785525050505050509050019150509081526020016040518091039020846040518082805190602001908083835b602083106119855780518252602082019150602081019050602083039250611962565b6001836020036101000a038019825116818451168082178552505050505050905001915050908152602001604051809103902054613978565b611a98600b846040518082805190602001908083835b602083106119f757805182526020820191506020810190506020830392506119d4565b6001836020036101000a0380198251168184511680821785525050505050509050019150509081526020016040518091039020836040518082805190602001908083835b60208310611a5e5780518252602082019150602081019050602083039250611a3b565b6001836020036101000a03801982511681845116808217855250505050505090500191505090815260200160405180910390205482613b6c565b6001600d846040518082805190602001908083835b60208310611ad05780518252602082019150602081019050602083039250611aad565b6001836020036101000a0380198251168184511680821785525050505050509050019150509081526020016040518091039020836040518082805190602001908083835b60208310611b375780518252602082019150602081019050602083039250611b14565b6001836020036101000a038019825116818451168082178552505050505050905001915050908152602001604051809103902060006101000a81548160ff021916908315150217905550600e600081548092919060010191905055507fc8251d94c2f448a69975a7ece1c37c7305202e8e62f4b4b7bbf29af4f57c8e87600b846040518082805190602001908083835b60208310611bea5780518252602082019150602081019050602083039250611bc7565b6001836020036101000a0380198251168184511680821785525050505050509050019150509081526020016040518091039020836040518082805190602001908083835b60208310611c515780518252602082019150602081019050602083039250611c2e565b6001836020036101000a0380198251168184511680821785525050505050509050019150509081526020016040518091039020548484604051808481526020018060200180602001838103835285818151815260200191508051906020019080838360005b83811015611cd1578082015181840152602081019050611cb6565b50505050905090810190601f168015611cfe5780820380516001836020036101000a031916815260200191505b50838103825284818151815260200191508051906020019080838360005b83811015611d37578082015181840152602081019050611d1c565b50505050905090810190601f168015611d645780820380516001836020036101000a031916815260200191505b509550505050505060405180910390a1505050565b6000611dcc82600160008673ffffffffffffffffffffffffffffffffffffffff1673ffffffffffffffffffffffffffffffffffffffff168152602001908152602001600020613bf690919063ffffffff16565b905092915050565b611def83838360405180602001604052806000815250612aad565b505050565b600080611e0b836002613c1090919063ffffffff16565b50905080915050919050565b6000611e4782604051806060016040528060298152602001614cdd602991396002613c3f9092919063ffffffff16565b9050919050565b611e5661356b565b73ffffffffffffffffffffffffffffffffffffffff16611e74612829565b73ffffffffffffffffffffffffffffffffffffffff1614611efd576040517f08c379a00000000000000000000000000000000000000000000000000000000081526004018080602001828103825260208152602001807f4f776e61626c653a2063616c6c6572206973206e6f7420746865206f776e657281525060200191505060405180910390fd5b60011515600d836040518082805190602001908083835b60208310611f375780518252602082019150602081019050602083039250611f14565b6001836020036101000a0380198251168184511680821785525050505050509050019150509081526020016040518091039020826040518082805190602001908083835b60208310611f9e5780518252602082019150602081019050602083039250611f7b565b6001836020036101000a038019825116818451168082178552505050505050905001915050908152602001604051809103902060009054906101000a900460ff16151514612037576040517f08c379a0000000000000000000000000000000000000000000000000000000008152600401808060200182810382526023815260200180614e2a6023913960400191505060405180910390fd5b3373ffffffffffffffffffffffffffffffffffffffff16612127600b846040518082805190602001908083835b602083106120875780518252602082019150602081019050602083039250612064565b6001836020036101000a0380198251168184511680821785525050505050509050019150509081526020016040518091039020836040518082805190602001908083835b602083106120ee57805182526020820191506020810190506020830392506120cb565b6001836020036101000a038019825116818451168082178552505050505050905001915050908152602001604051809103902054611e17565b73ffffffffffffffffffffffffffffffffffffffff16146121b0576040517f08c379a00000000000000000000000000000000000000000000000000000000081526004018080602001828103825260158152602001807f796f7520617265206e6f7420746865204f776e6572000000000000000000000081525060200191505060405180910390fd5b612289600b836040518082805190602001908083835b602083106121e957805182526020820191506020810190506020830392506121c6565b6001836020036101000a0380198251168184511680821785525050505050509050019150509081526020016040518091039020826040518082805190602001908083835b60208310612250578051825260208201915060208101905060208303925061222d565b6001836020036101000a038019825116818451168082178552505050505050905001915050908152602001604051809103902054613c5e565b600b826040518082805190602001908083835b602083106122bf578051825260208201915060208101905060208303925061229c565b6001836020036101000a0380198251168184511680821785525050505050509050019150509081526020016040518091039020816040518082805190602001908083835b602083106123265780518252602082019150602081019050602083039250612303565b6001836020036101000a0380198251168184511680821785525050505050509050019150509081526020016040518091039020600090557fc8251d94c2f448a69975a7ece1c37c7305202e8e62f4b4b7bbf29af4f57c8e87600b836040518082805190602001908083835b602083106123b45780518252602082019150602081019050602083039250612391565b6001836020036101000a0380198251168184511680821785525050505050509050019150509081526020016040518091039020826040518082805190602001908083835b6020831061241b57805182526020820191506020810190506020830392506123f8565b6001836020036101000a0380198251168184511680821785525050505050509050019150509081526020016040518091039020548383604051808481526020018060200180602001838103835285818151815260200191508051906020019080838360005b8381101561249b578082015181840152602081019050612480565b50505050905090810190601f1680156124c85780820380516001836020036101000a031916815260200191505b50838103825284818151815260200191508051906020019080838360005b838110156125015780820151818401526020810190506124e6565b50505050905090810190601f16801561252e5780820380516001836020036101000a031916815260200191505b509550505050505060405180910390a15050565b606060098054600181600116156101000203166002900480601f0160208091040260200160405190810160405280929190818152602001828054600181600116156101000203166002900480156125da5780601f106125af576101008083540402835291602001916125da565b820191906000526020600020905b8154815290600101906020018083116125bd57829003601f168201915b5050505050905090565b60008073ffffffffffffffffffffffffffffffffffffffff168273ffffffffffffffffffffffffffffffffffffffff16141561266b576040517f08c379a000000000000000000000000000000000000000000000000000000000815260040180806020018281038252602a815260200180614cb3602a913960400191505060405180910390fd5b6126b2600160008473ffffffffffffffffffffffffffffffffffffffff1673ffffffffffffffffffffffffffffffffffffffff168152602001908152602001600020613d98565b9050919050565b6126c161356b565b73ffffffffffffffffffffffffffffffffffffffff166126df612829565b73ffffffffffffffffffffffffffffffffffffffff1614612768576040517f08c379a00000000000000000000000000000000000000000000000000000000081526004018080602001828103825260208152602001807f4f776e61626c653a2063616c6c6572206973206e6f7420746865206f776e657281525060200191505060405180910390fd5b600073ffffffffffffffffffffffffffffffffffffffff16600a60009054906101000a900473ffffffffffffffffffffffffffffffffffffffff1673ffffffffffffffffffffffffffffffffffffffff167f8be0079c531659141344cd1fd0a4f28419497f9722a3daafe3b4186f6b6457e060405160405180910390a36000600a60006101000a81548173ffffffffffffffffffffffffffffffffffffffff021916908373ffffffffffffffffffffffffffffffffffffffff160217905550565b6000600a60009054906101000a900473ffffffffffffffffffffffffffffffffffffffff16905090565b606060078054600181600116156101000203166002900480601f0160208091040260200160405190810160405280929190818152602001828054600181600116156101000203166002900480156128eb5780601f106128c0576101008083540402835291602001916128eb565b820191906000526020600020905b8154815290600101906020018083116128ce57829003601f168201915b5050505050905090565b6128fd61356b565b73ffffffffffffffffffffffffffffffffffffffff168273ffffffffffffffffffffffffffffffffffffffff16141561299e576040517f08c379a00000000000000000000000000000000000000000000000000000000081526004018080602001828103825260198152602001807f4552433732313a20617070726f766520746f2063616c6c65720000000000000081525060200191505060405180910390fd5b80600560006129ab61356b565b73ffffffffffffffffffffffffffffffffffffffff1673ffffffffffffffffffffffffffffffffffffffff16815260200190815260200160002060008473ffffffffffffffffffffffffffffffffffffffff1673ffffffffffffffffffffffffffffffffffffffff16815260200190815260200160002060006101000a81548160ff0219169083151502179055508173ffffffffffffffffffffffffffffffffffffffff16612a5861356b565b73ffffffffffffffffffffffffffffffffffffffff167f17307eab39ab6107e8899845ad3d59bd9653f200f220920489ca2b5937696c3183604051808215151515815260200191505060405180910390a35050565b612abe612ab861356b565b83613641565b612b13576040517f08c379a0000000000000000000000000000000000000000000000000000000008152600401808060200182810382526031815260200180614df96031913960400191505060405180910390fd5b612b1f84848484613dad565b50505050565b6060612b308261354e565b612b85576040517f08c379a000000000000000000000000000000000000000000000000000000000815260040180806020018281038252602f815260200180614da9602f913960400191505060405180910390fd5b6060600860008481526020019081526020016000208054600181600116156101000203166002900480601f016020809104026020016040519081016040528092919081815260200182805460018160011615610100020316600290048015612c2e5780601f10612c0357610100808354040283529160200191612c2e565b820191906000526020600020905b815481529060010190602001808311612c1157829003601f168201915b505050505090506060612c3f612542565b9050600081511415612c55578192505050612df1565b600082511115612d265780826040516020018083805190602001908083835b60208310612c975780518252602082019150602081019050602083039250612c74565b6001836020036101000a03801982511681845116808217855250505050505090500182805190602001908083835b60208310612ce85780518252602082019150602081019050602083039250612cc5565b6001836020036101000a0380198251168184511680821785525050505050509050019250505060405160208183030381529060405292505050612df1565b80612d3085613e1f565b6040516020018083805190602001908083835b60208310612d665780518252602082019150602081019050602083039250612d43565b6001836020036101000a03801982511681845116808217855250505050505090500182805190602001908083835b60208310612db75780518252602082019150602081019050602083039250612d94565b6001836020036101000a03801982511681845116808217855250505050505090500192505050604051602081830303815290604052925050505b919050565b612dfe61356b565b73ffffffffffffffffffffffffffffffffffffffff16612e1c612829565b73ffffffffffffffffffffffffffffffffffffffff1614612ea5576040517f08c379a00000000000000000000000000000000000000000000000000000000081526004018080602001828103825260208152602001807f4f776e61626c653a2063616c6c6572206973206e6f7420746865206f776e657281525060200191505060405180910390fd5b6000600b836040518082805190602001908083835b60208310612edd5780518252602082019150602081019050602083039250612eba565b6001836020036101000a0380198251168184511680821785525050505050509050019150509081526020016040518091039020826040518082805190602001908083835b60208310612f445780518252602082019150602081019050602083039250612f21565b6001836020036101000a03801982511681845116808217855250505050505090500191505090815260200160405180910390205411612feb576040517f08c379a000000000000000000000000000000000000000000000000000000000815260040180806020018281038252601b8152602001807f426f74746c653a20746f6b656e496420646f6e2774206578697374000000000081525060200191505060405180910390fd5b60011515612ff98383613271565b151514613051576040517f08c379a0000000000000000000000000000000000000000000000000000000008152600401808060200182810382526023815260200180614e2a6023913960400191505060405180910390fd5b61312c3384600b856040518082805190602001908083835b6020831061308c5780518252602082019150602081019050602083039250613069565b6001836020036101000a0380198251168184511680821785525050505050509050019150509081526020016040518091039020846040518082805190602001908083835b602083106130f357805182526020820191506020810190506020830392506130d0565b6001836020036101000a038019825116818451168082178552505050505050905001915050908152602001604051809103902054611591565b505050565b600d82805160208101820180518482526020830160208501208183528095505050505050818051602081018201805184825260208301602085012081835280955050505050506000915091509054906101000a900460ff1681565b600b8280516020810182018051848252602083016020850120818352809550505050505081805160208101820180518482526020830160208501208183528095505050505050600091509150505481565b6000600560008473ffffffffffffffffffffffffffffffffffffffff1673ffffffffffffffffffffffffffffffffffffffff16815260200190815260200160002060008373ffffffffffffffffffffffffffffffffffffffff1673ffffffffffffffffffffffffffffffffffffffff16815260200190815260200160002060009054906101000a900460ff16905092915050565b6000600d836040518082805190602001908083835b602083106132a95780518252602082019150602081019050602083039250613286565b6001836020036101000a0380198251168184511680821785525050505050509050019150509081526020016040518091039020826040518082805190602001908083835b6020831061331057805182526020820191506020810190506020830392506132ed565b6001836020036101000a038019825116818451168082178552505050505050905001915050908152602001604051809103902060009054906101000a900460ff16905092915050565b61336161356b565b73ffffffffffffffffffffffffffffffffffffffff1661337f612829565b73ffffffffffffffffffffffffffffffffffffffff1614613408576040517f08c379a00000000000000000000000000000000000000000000000000000000081526004018080602001828103825260208152602001807f4f776e61626c653a2063616c6c6572206973206e6f7420746865206f776e657281525060200191505060405180910390fd5b600073ffffffffffffffffffffffffffffffffffffffff168173ffffffffffffffffffffffffffffffffffffffff16141561348e576040517f08c379a0000000000000000000000000000000000000000000000000000000008152600401808060200182810382526026815260200180614bdf6026913960400191505060405180910390fd5b8073ffffffffffffffffffffffffffffffffffffffff16600a60009054906101000a900473ffffffffffffffffffffffffffffffffffffffff1673ffffffffffffffffffffffffffffffffffffffff167f8be0079c531659141344cd1fd0a4f28419497f9722a3daafe3b4186f6b6457e060405160405180910390a380600a60006101000a81548173ffffffffffffffffffffffffffffffffffffffff021916908373ffffffffffffffffffffffffffffffffffffffff16021790555050565b6000613564826002613f4f90919063ffffffff16565b9050919050565b600033905090565b816004600083815260200190815260200160002060006101000a81548173ffffffffffffffffffffffffffffffffffffffff021916908373ffffffffffffffffffffffffffffffffffffffff160217905550808273ffffffffffffffffffffffffffffffffffffffff166135e683611e17565b73ffffffffffffffffffffffffffffffffffffffff167f8c5be1e5ebec7d5bd14f71427d1e84f3dd0314c0f7b2291e5b200ac8c7c3b92560405160405180910390a45050565b600061363a82600001613f69565b9050919050565b600061364c8261354e565b6136a1576040517f08c379a000000000000000000000000000000000000000000000000000000000815260040180806020018281038252602c815260200180614c4f602c913960400191505060405180910390fd5b60006136ac83611e17565b90508073ffffffffffffffffffffffffffffffffffffffff168473ffffffffffffffffffffffffffffffffffffffff16148061371b57508373ffffffffffffffffffffffffffffffffffffffff16613703846113a1565b73ffffffffffffffffffffffffffffffffffffffff16145b8061372c575061372b81856131dd565b5b91505092915050565b8273ffffffffffffffffffffffffffffffffffffffff1661375582611e17565b73ffffffffffffffffffffffffffffffffffffffff16146137c1576040517f08c379a0000000000000000000000000000000000000000000000000000000008152600401808060200182810382526029815260200180614d806029913960400191505060405180910390fd5b600073ffffffffffffffffffffffffffffffffffffffff168273ffffffffffffffffffffffffffffffffffffffff161415613847576040517f08c379a0000000000000000000000000000000000000000000000000000000008152600401808060200182810382526024815260200180614c056024913960400191505060405180910390fd5b613852838383613f7a565b61385d600082613573565b6138ae81600160008673ffffffffffffffffffffffffffffffffffffffff1673ffffffffffffffffffffffffffffffffffffffff168152602001908152602001600020613f7f90919063ffffffff16565b5061390081600160008573ffffffffffffffffffffffffffffffffffffffff1673ffffffffffffffffffffffffffffffffffffffff168152602001908152602001600020613f9990919063ffffffff16565b5061391781836002613fb39092919063ffffffff16565b50808273ffffffffffffffffffffffffffffffffffffffff168473ffffffffffffffffffffffffffffffffffffffff167fddf252ad1be2c89b69c2b068fc378daa952ba7f163c4a11628f55a4df523b3ef60405160405180910390a4505050565b600073ffffffffffffffffffffffffffffffffffffffff168273ffffffffffffffffffffffffffffffffffffffff161415613a1b576040517f08c379a00000000000000000000000000000000000000000000000000000000081526004018080602001828103825260208152602001807f4552433732313a206d696e7420746f20746865207a65726f206164647265737381525060200191505060405180910390fd5b613a248161354e565b15613a97576040517f08c379a000000000000000000000000000000000000000000000000000000000815260040180806020018281038252601c8152602001807f4552433732313a20746f6b656e20616c7265616479206d696e7465640000000081525060200191505060405180910390fd5b613aa360008383613f7a565b613af481600160008573ffffffffffffffffffffffffffffffffffffffff1673ffffffffffffffffffffffffffffffffffffffff168152602001908152602001600020613f9990919063ffffffff16565b50613b0b81836002613fb39092919063ffffffff16565b50808273ffffffffffffffffffffffffffffffffffffffff16600073ffffffffffffffffffffffffffffffffffffffff167fddf252ad1be2c89b69c2b068fc378daa952ba7f163c4a11628f55a4df523b3ef60405160405180910390a45050565b613b758261354e565b613bca576040517f08c379a000000000000000000000000000000000000000000000000000000000815260040180806020018281038252602c815260200180614d54602c913960400191505060405180910390fd5b80600860008481526020019081526020016000209080519060200190613bf1929190614a9d565b505050565b6000613c058360000183613fe8565b60001c905092915050565b600080600080613c23866000018661406b565b915091508160001c8160001c8090509350935050509250929050565b6000613c52846000018460001b84614104565b60001c90509392505050565b6000613c6982611e17565b9050613c7781600084613f7a565b613c82600083613573565b60006008600084815260200190815260200160002080546001816001161561010002031660029004905014613cd157600860008381526020019081526020016000206000613cd09190614b1d565b5b613d2282600160008473ffffffffffffffffffffffffffffffffffffffff1673ffffffffffffffffffffffffffffffffffffffff168152602001908152602001600020613f7f90919063ffffffff16565b50613d378260026141fa90919063ffffffff16565b5081600073ffffffffffffffffffffffffffffffffffffffff168273ffffffffffffffffffffffffffffffffffffffff167fddf252ad1be2c89b69c2b068fc378daa952ba7f163c4a11628f55a4df523b3ef60405160405180910390a45050565b6000613da682600001614214565b9050919050565b613db8848484613735565b613dc484848484614225565b613e19576040517f08c379a0000000000000000000000000000000000000000000000000000000008152600401808060200182810382526032815260200180614bad6032913960400191505060405180910390fd5b50505050565b60606000821415613e67576040518060400160405280600181526020017f30000000000000000000000000000000000000000000000000000000000000008152509050613f4a565b600082905060005b60008214613e91578080600101915050600a8281613e8957fe5b049150613e6f565b6060816040519080825280601f01601f191660200182016040528015613ec65781602001600182028038833980820191505090505b50905060006001830390508593505b60008414613f4257600a8481613ee757fe5b0660300160f81b82828060019003935081518110613f0157fe5b60200101907effffffffffffffffffffffffffffffffffffffffffffffffffffffffffffff1916908160001a905350600a8481613f3a57fe5b049350613ed5565b819450505050505b919050565b6000613f61836000018360001b61446a565b905092915050565b600081600001805490509050919050565b505050565b6000613f91836000018360001b61448d565b905092915050565b6000613fab836000018360001b614575565b905092915050565b6000613fdf846000018460001b8473ffffffffffffffffffffffffffffffffffffffff1660001b6145e5565b90509392505050565b600081836000018054905011614049576040517f08c379a0000000000000000000000000000000000000000000000000000000008152600401808060200182810382526022815260200180614b8b6022913960400191505060405180910390fd5b82600001828154811061405857fe5b9060005260206000200154905092915050565b600080828460000180549050116140cd576040517f08c379a0000000000000000000000000000000000000000000000000000000008152600401808060200182810382526022815260200180614d066022913960400191505060405180910390fd5b60008460000184815481106140de57fe5b906000526020600020906002020190508060000154816001015492509250509250929050565b600080846001016000858152602001908152602001600020549050600081141583906141cb576040517f08c379a00000000000000000000000000000000000000000000000000000000081526004018080602001828103825283818151815260200191508051906020019080838360005b83811015614190578082015181840152602081019050614175565b50505050905090810190601f1680156141bd5780820380516001836020036101000a031916815260200191505b509250505060405180910390fd5b508460000160018203815481106141de57fe5b9060005260206000209060020201600101549150509392505050565b600061420c836000018360001b6146c1565b905092915050565b600081600001805490509050919050565b60006142468473ffffffffffffffffffffffffffffffffffffffff166147da565b6142535760019050614462565b60606143e963150b7a0260e01b61426861356b565b888787604051602401808573ffffffffffffffffffffffffffffffffffffffff1673ffffffffffffffffffffffffffffffffffffffff1681526020018473ffffffffffffffffffffffffffffffffffffffff1673ffffffffffffffffffffffffffffffffffffffff16815260200183815260200180602001828103825283818151815260200191508051906020019080838360005b838110156143185780820151818401526020810190506142fd565b50505050905090810190601f1680156143455780820380516001836020036101000a031916815260200191505b5095505050505050604051602081830303815290604052907bffffffffffffffffffffffffffffffffffffffffffffffffffffffff19166020820180517bffffffffffffffffffffffffffffffffffffffffffffffffffffffff8381831617835250505050604051806060016040528060328152602001614bad603291398773ffffffffffffffffffffffffffffffffffffffff166147ed9092919063ffffffff16565b9050600081806020019051602081101561440257600080fd5b8101908080519060200190929190505050905063150b7a0260e01b7bffffffffffffffffffffffffffffffffffffffffffffffffffffffff1916817bffffffffffffffffffffffffffffffffffffffffffffffffffffffff191614925050505b949350505050565b600080836001016000848152602001908152602001600020541415905092915050565b6000808360010160008481526020019081526020016000205490506000811461456957600060018203905060006001866000018054905003905060008660000182815481106144d857fe5b90600052602060002001549050808760000184815481106144f557fe5b906000526020600020018190555060018301876001016000838152602001908152602001600020819055508660000180548061452d57fe5b6001900381819060005260206000200160009055905586600101600087815260200190815260200160002060009055600194505050505061456f565b60009150505b92915050565b60006145818383614805565b6145da5782600001829080600181540180825580915050600190039060005260206000200160009091909190915055826000018054905083600101600084815260200190815260200160002081905550600190506145df565b600090505b92915050565b600080846001016000858152602001908152602001600020549050600081141561468c578460000160405180604001604052808681526020018581525090806001815401808255809150506001900390600052602060002090600202016000909190919091506000820151816000015560208201518160010155505084600001805490508560010160008681526020019081526020016000208190555060019150506146ba565b8285600001600183038154811061469f57fe5b90600052602060002090600202016001018190555060009150505b9392505050565b600080836001016000848152602001908152602001600020549050600081146147ce576000600182039050600060018660000180549050039050600086600001828154811061470c57fe5b906000526020600020906002020190508087600001848154811061472c57fe5b906000526020600020906002020160008201548160000155600182015481600101559050506001830187600101600083600001548152602001908152602001600020819055508660000180548061477f57fe5b60019003818190600052602060002090600202016000808201600090556001820160009055505090558660010160008781526020019081526020016000206000905560019450505050506147d4565b60009150505b92915050565b600080823b905060008111915050919050565b60606147fc8484600085614828565b90509392505050565b600080836001016000848152602001908152602001600020541415905092915050565b606082471015614883576040517f08c379a0000000000000000000000000000000000000000000000000000000008152600401808060200182810382526026815260200180614c296026913960400191505060405180910390fd5b61488c856147da565b6148fe576040517f08c379a000000000000000000000000000000000000000000000000000000000815260040180806020018281038252601d8152602001807f416464726573733a2063616c6c20746f206e6f6e2d636f6e747261637400000081525060200191505060405180910390fd5b600060608673ffffffffffffffffffffffffffffffffffffffff1685876040518082805190602001908083835b6020831061494e578051825260208201915060208101905060208303925061492b565b6001836020036101000a03801982511681845116808217855250505050505090500191505060006040518083038185875af1925050503d80600081146149b0576040519150601f19603f3d011682016040523d82523d6000602084013e6149b5565b606091505b50915091506149c58282866149d1565b92505050949350505050565b606083156149e157829050614a96565b6000835111156149f45782518084602001fd5b816040517f08c379a00000000000000000000000000000000000000000000000000000000081526004018080602001828103825283818151815260200191508051906020019080838360005b83811015614a5b578082015181840152602081019050614a40565b50505050905090810190601f168015614a885780820380516001836020036101000a031916815260200191505b509250505060405180910390fd5b9392505050565b828054600181600116156101000203166002900490600052602060002090601f016020900481019282601f10614ade57805160ff1916838001178555614b0c565b82800160010185558215614b0c579182015b82811115614b0b578251825591602001919060010190614af0565b5b509050614b199190614b65565b5090565b50805460018160011615610100020316600290046000825580601f10614b435750614b62565b601f016020900490600052602060002090810190614b619190614b65565b5b50565b614b8791905b80821115614b83576000816000905550600101614b6b565b5090565b9056fe456e756d657261626c655365743a20696e646578206f7574206f6620626f756e64734552433732313a207472616e7366657220746f206e6f6e20455243373231526563656976657220696d706c656d656e7465724f776e61626c653a206e6577206f776e657220697320746865207a65726f20616464726573734552433732313a207472616e7366657220746f20746865207a65726f2061646472657373416464726573733a20696e73756666696369656e742062616c616e636520666f722063616c6c4552433732313a206f70657261746f7220717565727920666f72206e6f6e6578697374656e7420746f6b656e4552433732313a20617070726f76652063616c6c6572206973206e6f74206f776e6572206e6f7220617070726f76656420666f7220616c6c4552433732313a2062616c616e636520717565727920666f7220746865207a65726f20616464726573734552433732313a206f776e657220717565727920666f72206e6f6e6578697374656e7420746f6b656e456e756d657261626c654d61703a20696e646578206f7574206f6620626f756e64734552433732313a20617070726f76656420717565727920666f72206e6f6e6578697374656e7420746f6b656e4552433732314d657461646174613a2055524920736574206f66206e6f6e6578697374656e7420746f6b656e4552433732313a207472616e73666572206f6620746f6b656e2074686174206973206e6f74206f776e4552433732314d657461646174613a2055524920717565727920666f72206e6f6e6578697374656e7420746f6b656e4552433732313a20617070726f76616c20746f2063757272656e74206f776e65724552433732313a207472616e736665722063616c6c6572206973206e6f74206f776e6572206e6f7220617070726f766564426f74746c653a20746f6b656e206973206e6f7420616c7265616479206d696e746564a26469706673582212207066c490a64beeb251ce9b1e7e17c94575ba5a1538f74479406b236e1e8728e364736f6c63430006020033",
  "source": "// SPDX-License-Identifier: MIT\r\npragma solidity >=0.6.0 <0.8.0;\r\n\r\nimport \"@openzeppelin/contracts/token/ERC721/ERC721.sol\";\r\nimport \"@openzeppelin/contracts/access/Ownable.sol\";\r\n\r\n\r\ncontract Bottles is ERC721, Ownable {\r\n    mapping (string => mapping(string => uint256)) public id ; // to store Uid from string oder bytes32 in uint256\r\n    mapping(uint256 => string) _tokenURIs; // to store nfts uri (which for us also corresponds to the Uid)\r\n    mapping(string => mapping(string => bool)) public bottle;\r\n    uint256 counter = 1; // for itterate nfts minting and counts the total number of tokens\r\n    //string  name ;\r\n    //string  symbol;\r\n\r\n\r\n    constructor (string memory name, string memory symbol) ERC721(name, symbol) public{\r\n        //name = _name;\r\n        //symbol = _symbol;\r\n    }\r\n\r\n    event action(uint256 tokenId, string wineName, string bottleUid);\r\n\r\n    function burnBottle(string memory wineName, string memory bottleUid) \r\n    public virtual onlyOwner \r\n    {\r\n        require(bottle[wineName][bottleUid]==true, \"Bottle: token is not already minted\");\r\n        require(ERC721.ownerOf(id[wineName][bottleUid]) == msg.sender,\"you are not the Owner\" );\r\n\r\n        _burn(id[wineName][bottleUid]);  \r\n        delete id[wineName][bottleUid];\r\n        emit action(id[wineName][bottleUid], wineName, bottleUid);\r\n    }\r\n\r\n    function transferBottle(address to, string memory wineName, string memory bottleUid)\r\n    public  virtual onlyOwner\r\n    {\r\n        require(id[wineName][bottleUid] > 0, \"Bottle: tokenId don't exist\");\r\n        require(existence(wineName,bottleUid)==true, \"Bottle: token is not already minted\");\r\n        transferFrom(msg.sender, to, id[wineName][bottleUid]);  \r\n    }\r\n\r\n    function mintBottle(string memory wineName, string memory bottleUid, string memory bildLink) \r\n    public virtual onlyOwner  \r\n    {\r\n        require(bottle[wineName][bottleUid] == false, \"Bottle: token already minted\");\r\n        \r\n        id[wineName][bottleUid] = counter;\r\n        _mint(msg.sender, id[wineName][bottleUid]);\r\n        _setTokenURI(id[wineName][bottleUid], bildLink);\r\n        bottle[wineName][bottleUid] = true;\r\n        counter ++;\r\n        emit action(id[wineName][bottleUid], wineName, bottleUid); \r\n    }\r\n\r\n    function existence(string memory wineName, string memory bottleUid) public virtual returns(bool){\r\n        return bottle[wineName][bottleUid];\r\n\r\n    }\r\n}",
  "sourcePath": "/mnt/c/Users/Alex/Documents/Dev/testing/Wein_lager/contracts/Bottles.sol",
  "compiler": {
    "name": "solc",
    "version": "0.6.2+commit.bacdbe57.Emscripten.clang"
  },
  "schemaVersion": "3.4.4",
  "updatedAt": "2022-03-10T02:53:25.065Z",
  "networkType": "ethereum",
  "devdoc": {
    "methods": {
      "approve(address,uint256)": {
        "details": "See {IERC721-approve}."
      },
      "balanceOf(address)": {
        "details": "See {IERC721-balanceOf}."
      },
      "baseURI()": {
        "details": "Returns the base URI set via {_setBaseURI}. This will be automatically added as a prefix in {tokenURI} to each token's URI, or to the token ID if no specific URI is set for that token ID."
      },
      "getApproved(uint256)": {
        "details": "See {IERC721-getApproved}."
      },
      "isApprovedForAll(address,address)": {
        "details": "See {IERC721-isApprovedForAll}."
      },
      "name()": {
        "details": "See {IERC721Metadata-name}."
      },
      "owner()": {
        "details": "Returns the address of the current owner."
      },
      "ownerOf(uint256)": {
        "details": "See {IERC721-ownerOf}."
      },
      "renounceOwnership()": {
        "details": "Leaves the contract without owner. It will not be possible to call `onlyOwner` functions anymore. Can only be called by the current owner.     * NOTE: Renouncing ownership will leave the contract without an owner, thereby removing any functionality that is only available to the owner."
      },
      "safeTransferFrom(address,address,uint256)": {
        "details": "See {IERC721-safeTransferFrom}."
      },
      "safeTransferFrom(address,address,uint256,bytes)": {
        "details": "See {IERC721-safeTransferFrom}."
      },
      "setApprovalForAll(address,bool)": {
        "details": "See {IERC721-setApprovalForAll}."
      },
      "supportsInterface(bytes4)": {
        "details": "See {IERC165-supportsInterface}.     * Time complexity O(1), guaranteed to always use less than 30 000 gas."
      },
      "symbol()": {
        "details": "See {IERC721Metadata-symbol}."
      },
      "tokenByIndex(uint256)": {
        "details": "See {IERC721Enumerable-tokenByIndex}."
      },
      "tokenOfOwnerByIndex(address,uint256)": {
        "details": "See {IERC721Enumerable-tokenOfOwnerByIndex}."
      },
      "tokenURI(uint256)": {
        "details": "See {IERC721Metadata-tokenURI}."
      },
      "totalSupply()": {
        "details": "See {IERC721Enumerable-totalSupply}."
      },
      "transferFrom(address,address,uint256)": {
        "details": "See {IERC721-transferFrom}."
      },
      "transferOwnership(address)": {
        "details": "Transfers ownership of the contract to a new account (`newOwner`). Can only be called by the current owner."
      }
    }
  },
  "userdoc": {
    "methods": {}
  }
}