{
  "contractName": "Bottles",
  "abi": [
    {
      "inputs": [
        {
          "internalType": "string",
          "name": "name",
          "type": "string"
        },
        {
          "internalType": "string",
          "name": "symbol",
          "type": "string"
        }
      ],
      "stateMutability": "nonpayable",
      "type": "constructor"
    },
    {
      "anonymous": false,
      "inputs": [
        {
          "indexed": true,
          "internalType": "address",
          "name": "owner",
          "type": "address"
        },
        {
          "indexed": true,
          "internalType": "address",
          "name": "approved",
          "type": "address"
        },
        {
          "indexed": true,
          "internalType": "uint256",
          "name": "tokenId",
          "type": "uint256"
        }
      ],
      "name": "Approval",
      "type": "event"
    },
    {
      "anonymous": false,
      "inputs": [
        {
          "indexed": true,
          "internalType": "address",
          "name": "owner",
          "type": "address"
        },
        {
          "indexed": true,
          "internalType": "address",
          "name": "operator",
          "type": "address"
        },
        {
          "indexed": false,
          "internalType": "bool",
          "name": "approved",
          "type": "bool"
        }
      ],
      "name": "ApprovalForAll",
      "type": "event"
    },
    {
      "anonymous": false,
      "inputs": [
        {
          "indexed": true,
          "internalType": "address",
          "name": "previousOwner",
          "type": "address"
        },
        {
          "indexed": true,
          "internalType": "address",
          "name": "newOwner",
          "type": "address"
        }
      ],
      "name": "OwnershipTransferred",
      "type": "event"
    },
    {
      "anonymous": false,
      "inputs": [
        {
          "indexed": true,
          "internalType": "address",
          "name": "from",
          "type": "address"
        },
        {
          "indexed": true,
          "internalType": "address",
          "name": "to",
          "type": "address"
        },
        {
          "indexed": true,
          "internalType": "uint256",
          "name": "tokenId",
          "type": "uint256"
        }
      ],
      "name": "Transfer",
      "type": "event"
    },
    {
      "anonymous": false,
      "inputs": [
        {
          "indexed": false,
          "internalType": "uint256",
          "name": "tokenId",
          "type": "uint256"
        },
        {
          "indexed": false,
          "internalType": "string",
          "name": "wineName",
          "type": "string"
        },
        {
          "indexed": false,
          "internalType": "string",
          "name": "bottleUid",
          "type": "string"
        }
      ],
      "name": "action",
      "type": "event"
    },
    {
      "inputs": [
        {
          "internalType": "address",
          "name": "to",
          "type": "address"
        },
        {
          "internalType": "uint256",
          "name": "tokenId",
          "type": "uint256"
        }
      ],
      "name": "approve",
      "outputs": [],
      "stateMutability": "nonpayable",
      "type": "function"
    },
    {
      "inputs": [
        {
          "internalType": "address",
          "name": "owner",
          "type": "address"
        }
      ],
      "name": "balanceOf",
      "outputs": [
        {
          "internalType": "uint256",
          "name": "",
          "type": "uint256"
        }
      ],
      "stateMutability": "view",
      "type": "function",
      "constant": true
    },
    {
      "inputs": [
        {
          "internalType": "string",
          "name": "",
          "type": "string"
        },
        {
          "internalType": "string",
          "name": "",
          "type": "string"
        }
      ],
      "name": "bottle",
      "outputs": [
        {
          "internalType": "bool",
          "name": "",
          "type": "bool"
        }
      ],
      "stateMutability": "view",
      "type": "function",
      "constant": true
    },
    {
      "inputs": [
        {
          "internalType": "uint256",
          "name": "tokenId",
          "type": "uint256"
        }
      ],
      "name": "getApproved",
      "outputs": [
        {
          "internalType": "address",
          "name": "",
          "type": "address"
        }
      ],
      "stateMutability": "view",
      "type": "function",
      "constant": true
    },
    {
      "inputs": [
        {
          "internalType": "string",
          "name": "",
          "type": "string"
        },
        {
          "internalType": "string",
          "name": "",
          "type": "string"
        }
      ],
      "name": "id",
      "outputs": [
        {
          "internalType": "uint256",
          "name": "",
          "type": "uint256"
        }
      ],
      "stateMutability": "view",
      "type": "function",
      "constant": true
    },
    {
      "inputs": [
        {
          "internalType": "address",
          "name": "owner",
          "type": "address"
        },
        {
          "internalType": "address",
          "name": "operator",
          "type": "address"
        }
      ],
      "name": "isApprovedForAll",
      "outputs": [
        {
          "internalType": "bool",
          "name": "",
          "type": "bool"
        }
      ],
      "stateMutability": "view",
      "type": "function",
      "constant": true
    },
    {
      "inputs": [],
      "name": "name",
      "outputs": [
        {
          "internalType": "string",
          "name": "",
          "type": "string"
        }
      ],
      "stateMutability": "view",
      "type": "function",
      "constant": true
    },
    {
      "inputs": [],
      "name": "owner",
      "outputs": [
        {
          "internalType": "address",
          "name": "",
          "type": "address"
        }
      ],
      "stateMutability": "view",
      "type": "function",
      "constant": true
    },
    {
      "inputs": [
        {
          "internalType": "uint256",
          "name": "tokenId",
          "type": "uint256"
        }
      ],
      "name": "ownerOf",
      "outputs": [
        {
          "internalType": "address",
          "name": "",
          "type": "address"
        }
      ],
      "stateMutability": "view",
      "type": "function",
      "constant": true
    },
    {
      "inputs": [],
      "name": "renounceOwnership",
      "outputs": [],
      "stateMutability": "nonpayable",
      "type": "function"
    },
    {
      "inputs": [
        {
          "internalType": "address",
          "name": "from",
          "type": "address"
        },
        {
          "internalType": "address",
          "name": "to",
          "type": "address"
        },
        {
          "internalType": "uint256",
          "name": "tokenId",
          "type": "uint256"
        }
      ],
      "name": "safeTransferFrom",
      "outputs": [],
      "stateMutability": "nonpayable",
      "type": "function"
    },
    {
      "inputs": [
        {
          "internalType": "address",
          "name": "from",
          "type": "address"
        },
        {
          "internalType": "address",
          "name": "to",
          "type": "address"
        },
        {
          "internalType": "uint256",
          "name": "tokenId",
          "type": "uint256"
        },
        {
          "internalType": "bytes",
          "name": "_data",
          "type": "bytes"
        }
      ],
      "name": "safeTransferFrom",
      "outputs": [],
      "stateMutability": "nonpayable",
      "type": "function"
    },
    {
      "inputs": [
        {
          "internalType": "address",
          "name": "operator",
          "type": "address"
        },
        {
          "internalType": "bool",
          "name": "approved",
          "type": "bool"
        }
      ],
      "name": "setApprovalForAll",
      "outputs": [],
      "stateMutability": "nonpayable",
      "type": "function"
    },
    {
      "inputs": [
        {
          "internalType": "bytes4",
          "name": "interfaceId",
          "type": "bytes4"
        }
      ],
      "name": "supportsInterface",
      "outputs": [
        {
          "internalType": "bool",
          "name": "",
          "type": "bool"
        }
      ],
      "stateMutability": "view",
      "type": "function",
      "constant": true
    },
    {
      "inputs": [],
      "name": "symbol",
      "outputs": [
        {
          "internalType": "string",
          "name": "",
          "type": "string"
        }
      ],
      "stateMutability": "view",
      "type": "function",
      "constant": true
    },
    {
      "inputs": [
        {
          "internalType": "uint256",
          "name": "tokenId",
          "type": "uint256"
        }
      ],
      "name": "tokenURI",
      "outputs": [
        {
          "internalType": "string",
          "name": "",
          "type": "string"
        }
      ],
      "stateMutability": "view",
      "type": "function",
      "constant": true
    },
    {
      "inputs": [
        {
          "internalType": "address",
          "name": "from",
          "type": "address"
        },
        {
          "internalType": "address",
          "name": "to",
          "type": "address"
        },
        {
          "internalType": "uint256",
          "name": "tokenId",
          "type": "uint256"
        }
      ],
      "name": "transferFrom",
      "outputs": [],
      "stateMutability": "nonpayable",
      "type": "function"
    },
    {
      "inputs": [
        {
          "internalType": "address",
          "name": "newOwner",
          "type": "address"
        }
      ],
      "name": "transferOwnership",
      "outputs": [],
      "stateMutability": "nonpayable",
      "type": "function"
    },
    {
      "inputs": [
        {
          "internalType": "string",
          "name": "wineName",
          "type": "string"
        },
        {
          "internalType": "string",
          "name": "bottleUid",
          "type": "string"
        }
      ],
      "name": "burnBottle",
      "outputs": [],
      "stateMutability": "nonpayable",
      "type": "function"
    },
    {
      "inputs": [
        {
          "internalType": "address",
          "name": "to",
          "type": "address"
        },
        {
          "internalType": "string",
          "name": "wineName",
          "type": "string"
        },
        {
          "internalType": "string",
          "name": "bottleUid",
          "type": "string"
        }
      ],
      "name": "transferBottle",
      "outputs": [],
      "stateMutability": "nonpayable",
      "type": "function"
    },
    {
      "inputs": [
        {
          "internalType": "string",
          "name": "wineName",
          "type": "string"
        },
        {
          "internalType": "string",
          "name": "bottleUid",
          "type": "string"
        },
        {
          "internalType": "string",
          "name": "bildLink",
          "type": "string"
        }
      ],
      "name": "mintBottle",
      "outputs": [],
      "stateMutability": "nonpayable",
      "type": "function"
    },
    {
      "inputs": [
        {
          "internalType": "string",
          "name": "wineName",
          "type": "string"
        },
        {
          "internalType": "string",
          "name": "bottleUid",
          "type": "string"
        }
      ],
      "name": "existence",
      "outputs": [
        {
          "internalType": "bool",
          "name": "",
          "type": "bool"
        }
      ],
      "stateMutability": "nonpayable",
      "type": "function"
    }
  ],
  "bytecode": "0x60806040526001600a553480156200001657600080fd5b5060405162003e3538038062003e3583398181016040528101906200003c91906200028a565b818181600090805190602001906200005692919062000168565b5080600190805190602001906200006f92919062000168565b50505062000092620000866200009a60201b60201c565b620000a260201b60201c565b50506200046d565b600033905090565b6000600660009054906101000a900473ffffffffffffffffffffffffffffffffffffffff16905081600660006101000a81548173ffffffffffffffffffffffffffffffffffffffff021916908373ffffffffffffffffffffffffffffffffffffffff1602179055508173ffffffffffffffffffffffffffffffffffffffff168173ffffffffffffffffffffffffffffffffffffffff167f8be0079c531659141344cd1fd0a4f28419497f9722a3daafe3b4186f6b6457e060405160405180910390a35050565b828054620001769062000392565b90600052602060002090601f0160209004810192826200019a5760008555620001e6565b82601f10620001b557805160ff1916838001178555620001e6565b82800160010185558215620001e6579182015b82811115620001e5578251825591602001919060010190620001c8565b5b509050620001f59190620001f9565b5090565b5b8082111562000214576000816000905550600101620001fa565b5090565b60006200022f620002298462000326565b620002fd565b9050828152602081018484840111156200024857600080fd5b620002558482856200035c565b509392505050565b600082601f8301126200026f57600080fd5b81516200028184826020860162000218565b91505092915050565b600080604083850312156200029e57600080fd5b600083015167ffffffffffffffff811115620002b957600080fd5b620002c7858286016200025d565b925050602083015167ffffffffffffffff811115620002e557600080fd5b620002f3858286016200025d565b9150509250929050565b6000620003096200031c565b9050620003178282620003c8565b919050565b6000604051905090565b600067ffffffffffffffff8211156200034457620003436200042d565b5b6200034f826200045c565b9050602081019050919050565b60005b838110156200037c5780820151818401526020810190506200035f565b838111156200038c576000848401525b50505050565b60006002820490506001821680620003ab57607f821691505b60208210811415620003c257620003c1620003fe565b5b50919050565b620003d3826200045c565b810181811067ffffffffffffffff82111715620003f557620003f46200042d565b5b80604052505050565b7f4e487b7100000000000000000000000000000000000000000000000000000000600052602260045260246000fd5b7f4e487b7100000000000000000000000000000000000000000000000000000000600052604160045260246000fd5b6000601f19601f8301169050919050565b6139b8806200047d6000396000f3fe608060405234801561001057600080fd5b50600436106101425760003560e01c80638da5cb5b116100b8578063d81f03721161007c578063d81f03721461035f578063da57aedb1461037b578063e0c78c84146103ab578063e985e9c5146103db578063ee9350ba1461040b578063f2fde38b1461043b57610142565b80638da5cb5b146102bb57806395d89b41146102d9578063a22cb465146102f7578063b88d4fde14610313578063c87b56dd1461032f57610142565b80632487cc251161010a5780632487cc25146101fd57806342842e0e146102195780636352211e146102355780636a0094ab1461026557806370a0823114610281578063715018a6146102b157610142565b806301ffc9a71461014757806306fdde0314610177578063081812fc14610195578063095ea7b3146101c557806323b872dd146101e1575b600080fd5b610161600480360381019061015c9190612756565b610457565b60405161016e9190612d02565b60405180910390f35b61017f610539565b60405161018c9190612d1d565b60405180910390f35b6101af60048036038101906101aa91906128ab565b6105cb565b6040516101bc9190612c9b565b60405180910390f35b6101df60048036038101906101da919061271a565b610650565b005b6101fb60048036038101906101f69190612595565b610768565b005b61021760048036038101906102129190612814565b6107c8565b005b610233600480360381019061022e9190612595565b610a80565b005b61024f600480360381019061024a91906128ab565b610aa0565b60405161025c9190612c9b565b60405180910390f35b61027f600480360381019061027a91906127a8565b610b52565b005b61029b60048036038101906102969190612530565b610e06565b6040516102a89190612fbf565b60405180910390f35b6102b9610ebe565b005b6102c3610f46565b6040516102d09190612c9b565b60405180910390f35b6102e1610f70565b6040516102ee9190612d1d565b60405180910390f35b610311600480360381019061030c919061265f565b611002565b005b61032d600480360381019061032891906125e4565b611018565b005b610349600480360381019061034491906128ab565b61107a565b6040516103569190612d1d565b60405180910390f35b6103796004803603810190610374919061269b565b611121565b005b610395600480360381019061039091906127a8565b6112b4565b6040516103a29190612d02565b60405180910390f35b6103c560048036038101906103c091906127a8565b61130f565b6040516103d29190612fbf565b60405180910390f35b6103f560048036038101906103f09190612559565b611360565b6040516104029190612d02565b60405180910390f35b610425600480360381019061042091906127a8565b6113f4565b6040516104329190612d02565b60405180910390f35b61045560048036038101906104509190612530565b611446565b005b60007f80ac58cd000000000000000000000000000000000000000000000000000000007bffffffffffffffffffffffffffffffffffffffffffffffffffffffff1916827bffffffffffffffffffffffffffffffffffffffffffffffffffffffff1916148061052257507f5b5e139f000000000000000000000000000000000000000000000000000000007bffffffffffffffffffffffffffffffffffffffffffffffffffffffff1916827bffffffffffffffffffffffffffffffffffffffffffffffffffffffff1916145b8061053257506105318261153e565b5b9050919050565b6060600080546105489061325a565b80601f01602080910402602001604051908101604052809291908181526020018280546105749061325a565b80156105c15780601f10610596576101008083540402835291602001916105c1565b820191906000526020600020905b8154815290600101906020018083116105a457829003601f168201915b5050505050905090565b60006105d6826115a8565b610615576040517f08c379a000000000000000000000000000000000000000000000000000000000815260040161060c90612edf565b60405180910390fd5b6004600083815260200190815260200160002060009054906101000a900473ffffffffffffffffffffffffffffffffffffffff169050919050565b600061065b82610aa0565b90508073ffffffffffffffffffffffffffffffffffffffff168373ffffffffffffffffffffffffffffffffffffffff1614156106cc576040517f08c379a00000000000000000000000000000000000000000000000000000000081526004016106c390612f3f565b60405180910390fd5b8073ffffffffffffffffffffffffffffffffffffffff166106eb611614565b73ffffffffffffffffffffffffffffffffffffffff16148061071a575061071981610714611614565b611360565b5b610759576040517f08c379a000000000000000000000000000000000000000000000000000000000815260040161075090612e5f565b60405180910390fd5b610763838361161c565b505050565b610779610773611614565b826116d5565b6107b8576040517f08c379a00000000000000000000000000000000000000000000000000000000081526004016107af90612f7f565b60405180910390fd5b6107c38383836117b3565b505050565b6107d0611614565b73ffffffffffffffffffffffffffffffffffffffff166107ee610f46565b73ffffffffffffffffffffffffffffffffffffffff1614610844576040517f08c379a000000000000000000000000000000000000000000000000000000000815260040161083b90612eff565b60405180910390fd5b600015156009846040516108589190612c60565b9081526020016040518091039020836040516108749190612c60565b908152602001604051809103902060009054906101000a900460ff161515146108d2576040517f08c379a00000000000000000000000000000000000000000000000000000000081526004016108c990612d7f565b60405180910390fd5b600a546007846040516108e59190612c60565b9081526020016040518091039020836040516109019190612c60565b908152602001604051809103902081905550610957336007856040516109279190612c60565b9081526020016040518091039020846040516109439190612c60565b908152602001604051809103902054611a1a565b61099b60078460405161096a9190612c60565b9081526020016040518091039020836040516109869190612c60565b90815260200160405180910390205482611bf4565b60016009846040516109ad9190612c60565b9081526020016040518091039020836040516109c99190612c60565b908152602001604051809103902060006101000a81548160ff021916908315150217905550600a6000815480929190610a01906132bd565b91905055507fc8251d94c2f448a69975a7ece1c37c7305202e8e62f4b4b7bbf29af4f57c8e87600784604051610a379190612c60565b908152602001604051809103902083604051610a539190612c60565b9081526020016040518091039020548484604051610a7393929190612fda565b60405180910390a1505050565b610a9b83838360405180602001604052806000815250611018565b505050565b6000806002600084815260200190815260200160002060009054906101000a900473ffffffffffffffffffffffffffffffffffffffff169050600073ffffffffffffffffffffffffffffffffffffffff168173ffffffffffffffffffffffffffffffffffffffff161415610b49576040517f08c379a0000000000000000000000000000000000000000000000000000000008152600401610b4090612e9f565b60405180910390fd5b80915050919050565b610b5a611614565b73ffffffffffffffffffffffffffffffffffffffff16610b78610f46565b73ffffffffffffffffffffffffffffffffffffffff1614610bce576040517f08c379a0000000000000000000000000000000000000000000000000000000008152600401610bc590612eff565b60405180910390fd5b60011515600983604051610be29190612c60565b908152602001604051809103902082604051610bfe9190612c60565b908152602001604051809103902060009054906101000a900460ff16151514610c5c576040517f08c379a0000000000000000000000000000000000000000000000000000000008152600401610c5390612f9f565b60405180910390fd5b3373ffffffffffffffffffffffffffffffffffffffff16610cb6600784604051610c869190612c60565b908152602001604051809103902083604051610ca29190612c60565b908152602001604051809103902054610aa0565b73ffffffffffffffffffffffffffffffffffffffff1614610d0c576040517f08c379a0000000000000000000000000000000000000000000000000000000008152600401610d0390612d5f565b60405180910390fd5b610d4f600783604051610d1f9190612c60565b908152602001604051809103902082604051610d3b9190612c60565b908152602001604051809103902054611c20565b600782604051610d5f9190612c60565b908152602001604051809103902081604051610d7b9190612c60565b9081526020016040518091039020600090557fc8251d94c2f448a69975a7ece1c37c7305202e8e62f4b4b7bbf29af4f57c8e87600783604051610dbe9190612c60565b908152602001604051809103902082604051610dda9190612c60565b9081526020016040518091039020548383604051610dfa93929190612fda565b60405180910390a15050565b60008073ffffffffffffffffffffffffffffffffffffffff168273ffffffffffffffffffffffffffffffffffffffff161415610e77576040517f08c379a0000000000000000000000000000000000000000000000000000000008152600401610e6e90612e7f565b60405180910390fd5b600360008373ffffffffffffffffffffffffffffffffffffffff1673ffffffffffffffffffffffffffffffffffffffff168152602001908152602001600020549050919050565b610ec6611614565b73ffffffffffffffffffffffffffffffffffffffff16610ee4610f46565b73ffffffffffffffffffffffffffffffffffffffff1614610f3a576040517f08c379a0000000000000000000000000000000000000000000000000000000008152600401610f3190612eff565b60405180910390fd5b610f446000611d3d565b565b6000600660009054906101000a900473ffffffffffffffffffffffffffffffffffffffff16905090565b606060018054610f7f9061325a565b80601f0160208091040260200160405190810160405280929190818152602001828054610fab9061325a565b8015610ff85780601f10610fcd57610100808354040283529160200191610ff8565b820191906000526020600020905b815481529060010190602001808311610fdb57829003601f168201915b5050505050905090565b61101461100d611614565b8383611e03565b5050565b611029611023611614565b836116d5565b611068576040517f08c379a000000000000000000000000000000000000000000000000000000000815260040161105f90612f7f565b60405180910390fd5b61107484848484611f70565b50505050565b6060611085826115a8565b6110c4576040517f08c379a00000000000000000000000000000000000000000000000000000000081526004016110bb90612f1f565b60405180910390fd5b60006110ce611fcc565b905060008151116110ee5760405180602001604052806000815250611119565b806110f884611fe3565b604051602001611109929190612c77565b6040516020818303038152906040525b915050919050565b611129611614565b73ffffffffffffffffffffffffffffffffffffffff16611147610f46565b73ffffffffffffffffffffffffffffffffffffffff161461119d576040517f08c379a000000000000000000000000000000000000000000000000000000000815260040161119490612eff565b60405180910390fd5b60006007836040516111af9190612c60565b9081526020016040518091039020826040516111cb9190612c60565b9081526020016040518091039020541161121a576040517f08c379a000000000000000000000000000000000000000000000000000000000815260040161121190612f5f565b60405180910390fd5b6001151561122883836113f4565b15151461126a576040517f08c379a000000000000000000000000000000000000000000000000000000000815260040161126190612f9f565b60405180910390fd5b6112af338460078560405161127f9190612c60565b90815260200160405180910390208460405161129b9190612c60565b908152602001604051809103902054610768565b505050565b600982805160208101820180518482526020830160208501208183528095505050505050818051602081018201805184825260208301602085012081835280955050505050506000915091509054906101000a900460ff1681565b60078280516020810182018051848252602083016020850120818352809550505050505081805160208101820180518482526020830160208501208183528095505050505050600091509150505481565b6000600560008473ffffffffffffffffffffffffffffffffffffffff1673ffffffffffffffffffffffffffffffffffffffff16815260200190815260200160002060008373ffffffffffffffffffffffffffffffffffffffff1673ffffffffffffffffffffffffffffffffffffffff16815260200190815260200160002060009054906101000a900460ff16905092915050565b60006009836040516114069190612c60565b9081526020016040518091039020826040516114229190612c60565b908152602001604051809103902060009054906101000a900460ff16905092915050565b61144e611614565b73ffffffffffffffffffffffffffffffffffffffff1661146c610f46565b73ffffffffffffffffffffffffffffffffffffffff16146114c2576040517f08c379a00000000000000000000000000000000000000000000000000000000081526004016114b990612eff565b60405180910390fd5b600073ffffffffffffffffffffffffffffffffffffffff168173ffffffffffffffffffffffffffffffffffffffff161415611532576040517f08c379a000000000000000000000000000000000000000000000000000000000815260040161152990612d9f565b60405180910390fd5b61153b81611d3d565b50565b60007f01ffc9a7000000000000000000000000000000000000000000000000000000007bffffffffffffffffffffffffffffffffffffffffffffffffffffffff1916827bffffffffffffffffffffffffffffffffffffffffffffffffffffffff1916149050919050565b60008073ffffffffffffffffffffffffffffffffffffffff166002600084815260200190815260200160002060009054906101000a900473ffffffffffffffffffffffffffffffffffffffff1673ffffffffffffffffffffffffffffffffffffffff1614159050919050565b600033905090565b816004600083815260200190815260200160002060006101000a81548173ffffffffffffffffffffffffffffffffffffffff021916908373ffffffffffffffffffffffffffffffffffffffff160217905550808273ffffffffffffffffffffffffffffffffffffffff1661168f83610aa0565b73ffffffffffffffffffffffffffffffffffffffff167f8c5be1e5ebec7d5bd14f71427d1e84f3dd0314c0f7b2291e5b200ac8c7c3b92560405160405180910390a45050565b60006116e0826115a8565b61171f576040517f08c379a000000000000000000000000000000000000000000000000000000000815260040161171690612e3f565b60405180910390fd5b600061172a83610aa0565b90508073ffffffffffffffffffffffffffffffffffffffff168473ffffffffffffffffffffffffffffffffffffffff16148061179957508373ffffffffffffffffffffffffffffffffffffffff16611781846105cb565b73ffffffffffffffffffffffffffffffffffffffff16145b806117aa57506117a98185611360565b5b91505092915050565b8273ffffffffffffffffffffffffffffffffffffffff166117d382610aa0565b73ffffffffffffffffffffffffffffffffffffffff1614611829576040517f08c379a000000000000000000000000000000000000000000000000000000000815260040161182090612dbf565b60405180910390fd5b600073ffffffffffffffffffffffffffffffffffffffff168273ffffffffffffffffffffffffffffffffffffffff161415611899576040517f08c379a000000000000000000000000000000000000000000000000000000000815260040161189090612dff565b60405180910390fd5b6118a4838383612190565b6118af60008261161c565b6001600360008573ffffffffffffffffffffffffffffffffffffffff1673ffffffffffffffffffffffffffffffffffffffff16815260200190815260200160002060008282546118ff9190613170565b925050819055506001600360008473ffffffffffffffffffffffffffffffffffffffff1673ffffffffffffffffffffffffffffffffffffffff168152602001908152602001600020600082825461195691906130e9565b92505081905550816002600083815260200190815260200160002060006101000a81548173ffffffffffffffffffffffffffffffffffffffff021916908373ffffffffffffffffffffffffffffffffffffffff160217905550808273ffffffffffffffffffffffffffffffffffffffff168473ffffffffffffffffffffffffffffffffffffffff167fddf252ad1be2c89b69c2b068fc378daa952ba7f163c4a11628f55a4df523b3ef60405160405180910390a4611a15838383612195565b505050565b600073ffffffffffffffffffffffffffffffffffffffff168273ffffffffffffffffffffffffffffffffffffffff161415611a8a576040517f08c379a0000000000000000000000000000000000000000000000000000000008152600401611a8190612ebf565b60405180910390fd5b611a93816115a8565b15611ad3576040517f08c379a0000000000000000000000000000000000000000000000000000000008152600401611aca90612ddf565b60405180910390fd5b611adf60008383612190565b6001600360008473ffffffffffffffffffffffffffffffffffffffff1673ffffffffffffffffffffffffffffffffffffffff1681526020019081526020016000206000828254611b2f91906130e9565b92505081905550816002600083815260200190815260200160002060006101000a81548173ffffffffffffffffffffffffffffffffffffffff021916908373ffffffffffffffffffffffffffffffffffffffff160217905550808273ffffffffffffffffffffffffffffffffffffffff16600073ffffffffffffffffffffffffffffffffffffffff167fddf252ad1be2c89b69c2b068fc378daa952ba7f163c4a11628f55a4df523b3ef60405160405180910390a4611bf060008383612195565b5050565b80600860008481526020019081526020016000209080519060200190611c1b929190612354565b505050565b6000611c2b82610aa0565b9050611c3981600084612190565b611c4460008361161c565b6001600360008373ffffffffffffffffffffffffffffffffffffffff1673ffffffffffffffffffffffffffffffffffffffff1681526020019081526020016000206000828254611c949190613170565b925050819055506002600083815260200190815260200160002060006101000a81549073ffffffffffffffffffffffffffffffffffffffff021916905581600073ffffffffffffffffffffffffffffffffffffffff168273ffffffffffffffffffffffffffffffffffffffff167fddf252ad1be2c89b69c2b068fc378daa952ba7f163c4a11628f55a4df523b3ef60405160405180910390a4611d3981600084612195565b5050565b6000600660009054906101000a900473ffffffffffffffffffffffffffffffffffffffff16905081600660006101000a81548173ffffffffffffffffffffffffffffffffffffffff021916908373ffffffffffffffffffffffffffffffffffffffff1602179055508173ffffffffffffffffffffffffffffffffffffffff168173ffffffffffffffffffffffffffffffffffffffff167f8be0079c531659141344cd1fd0a4f28419497f9722a3daafe3b4186f6b6457e060405160405180910390a35050565b8173ffffffffffffffffffffffffffffffffffffffff168373ffffffffffffffffffffffffffffffffffffffff161415611e72576040517f08c379a0000000000000000000000000000000000000000000000000000000008152600401611e6990612e1f565b60405180910390fd5b80600560008573ffffffffffffffffffffffffffffffffffffffff1673ffffffffffffffffffffffffffffffffffffffff16815260200190815260200160002060008473ffffffffffffffffffffffffffffffffffffffff1673ffffffffffffffffffffffffffffffffffffffff16815260200190815260200160002060006101000a81548160ff0219169083151502179055508173ffffffffffffffffffffffffffffffffffffffff168373ffffffffffffffffffffffffffffffffffffffff167f17307eab39ab6107e8899845ad3d59bd9653f200f220920489ca2b5937696c3183604051611f639190612d02565b60405180910390a3505050565b611f7b8484846117b3565b611f878484848461219a565b611fc6576040517f08c379a0000000000000000000000000000000000000000000000000000000008152600401611fbd90612d3f565b60405180910390fd5b50505050565b606060405180602001604052806000815250905090565b6060600082141561202b576040518060400160405280600181526020017f3000000000000000000000000000000000000000000000000000000000000000815250905061218b565b600082905060005b6000821461205d578080612046906132bd565b915050600a82612056919061313f565b9150612033565b60008167ffffffffffffffff81111561209f577f4e487b7100000000000000000000000000000000000000000000000000000000600052604160045260246000fd5b6040519080825280601f01601f1916602001820160405280156120d15781602001600182028036833780820191505090505b5090505b60008514612184576001826120ea9190613170565b9150600a856120f99190613306565b603061210591906130e9565b60f81b818381518110612141577f4e487b7100000000000000000000000000000000000000000000000000000000600052603260045260246000fd5b60200101907effffffffffffffffffffffffffffffffffffffffffffffffffffffffffffff1916908160001a905350600a8561217d919061313f565b94506120d5565b8093505050505b919050565b505050565b505050565b60006121bb8473ffffffffffffffffffffffffffffffffffffffff16612331565b15612324578373ffffffffffffffffffffffffffffffffffffffff1663150b7a026121e4611614565b8786866040518563ffffffff1660e01b81526004016122069493929190612cb6565b602060405180830381600087803b15801561222057600080fd5b505af192505050801561225157506040513d601f19601f8201168201806040525081019061224e919061277f565b60015b6122d4573d8060008114612281576040519150601f19603f3d011682016040523d82523d6000602084013e612286565b606091505b506000815114156122cc576040517f08c379a00000000000000000000000000000000000000000000000000000000081526004016122c390612d3f565b60405180910390fd5b805181602001fd5b63150b7a0260e01b7bffffffffffffffffffffffffffffffffffffffffffffffffffffffff1916817bffffffffffffffffffffffffffffffffffffffffffffffffffffffff191614915050612329565b600190505b949350505050565b6000808273ffffffffffffffffffffffffffffffffffffffff163b119050919050565b8280546123609061325a565b90600052602060002090601f01602090048101928261238257600085556123c9565b82601f1061239b57805160ff19168380011785556123c9565b828001600101855582156123c9579182015b828111156123c85782518255916020019190600101906123ad565b5b5090506123d691906123da565b5090565b5b808211156123f35760008160009055506001016123db565b5090565b600061240a61240584613044565b61301f565b90508281526020810184848401111561242257600080fd5b61242d848285613218565b509392505050565b600061244861244384613075565b61301f565b90508281526020810184848401111561246057600080fd5b61246b848285613218565b509392505050565b60008135905061248281613926565b92915050565b6000813590506124978161393d565b92915050565b6000813590506124ac81613954565b92915050565b6000815190506124c181613954565b92915050565b600082601f8301126124d857600080fd5b81356124e88482602086016123f7565b91505092915050565b600082601f83011261250257600080fd5b8135612512848260208601612435565b91505092915050565b60008135905061252a8161396b565b92915050565b60006020828403121561254257600080fd5b600061255084828501612473565b91505092915050565b6000806040838503121561256c57600080fd5b600061257a85828601612473565b925050602061258b85828601612473565b9150509250929050565b6000806000606084860312156125aa57600080fd5b60006125b886828701612473565b93505060206125c986828701612473565b92505060406125da8682870161251b565b9150509250925092565b600080600080608085870312156125fa57600080fd5b600061260887828801612473565b945050602061261987828801612473565b935050604061262a8782880161251b565b925050606085013567ffffffffffffffff81111561264757600080fd5b612653878288016124c7565b91505092959194509250565b6000806040838503121561267257600080fd5b600061268085828601612473565b925050602061269185828601612488565b9150509250929050565b6000806000606084860312156126b057600080fd5b60006126be86828701612473565b935050602084013567ffffffffffffffff8111156126db57600080fd5b6126e7868287016124f1565b925050604084013567ffffffffffffffff81111561270457600080fd5b612710868287016124f1565b9150509250925092565b6000806040838503121561272d57600080fd5b600061273b85828601612473565b925050602061274c8582860161251b565b9150509250929050565b60006020828403121561276857600080fd5b60006127768482850161249d565b91505092915050565b60006020828403121561279157600080fd5b600061279f848285016124b2565b91505092915050565b600080604083850312156127bb57600080fd5b600083013567ffffffffffffffff8111156127d557600080fd5b6127e1858286016124f1565b925050602083013567ffffffffffffffff8111156127fe57600080fd5b61280a858286016124f1565b9150509250929050565b60008060006060848603121561282957600080fd5b600084013567ffffffffffffffff81111561284357600080fd5b61284f868287016124f1565b935050602084013567ffffffffffffffff81111561286c57600080fd5b612878868287016124f1565b925050604084013567ffffffffffffffff81111561289557600080fd5b6128a1868287016124f1565b9150509250925092565b6000602082840312156128bd57600080fd5b60006128cb8482850161251b565b91505092915050565b6128dd816131a4565b82525050565b6128ec816131b6565b82525050565b60006128fd826130a6565b61290781856130bc565b9350612917818560208601613227565b612920816133f3565b840191505092915050565b6000612936826130b1565b61294081856130cd565b9350612950818560208601613227565b612959816133f3565b840191505092915050565b600061296f826130b1565b61297981856130de565b9350612989818560208601613227565b80840191505092915050565b60006129a26032836130cd565b91506129ad82613404565b604082019050919050565b60006129c56015836130cd565b91506129d082613453565b602082019050919050565b60006129e8601c836130cd565b91506129f38261347c565b602082019050919050565b6000612a0b6026836130cd565b9150612a16826134a5565b604082019050919050565b6000612a2e6025836130cd565b9150612a39826134f4565b604082019050919050565b6000612a51601c836130cd565b9150612a5c82613543565b602082019050919050565b6000612a746024836130cd565b9150612a7f8261356c565b604082019050919050565b6000612a976019836130cd565b9150612aa2826135bb565b602082019050919050565b6000612aba602c836130cd565b9150612ac5826135e4565b604082019050919050565b6000612add6038836130cd565b9150612ae882613633565b604082019050919050565b6000612b00602a836130cd565b9150612b0b82613682565b604082019050919050565b6000612b236029836130cd565b9150612b2e826136d1565b604082019050919050565b6000612b466020836130cd565b9150612b5182613720565b602082019050919050565b6000612b69602c836130cd565b9150612b7482613749565b604082019050919050565b6000612b8c6020836130cd565b9150612b9782613798565b602082019050919050565b6000612baf602f836130cd565b9150612bba826137c1565b604082019050919050565b6000612bd26021836130cd565b9150612bdd82613810565b604082019050919050565b6000612bf5601b836130cd565b9150612c008261385f565b602082019050919050565b6000612c186031836130cd565b9150612c2382613888565b604082019050919050565b6000612c3b6023836130cd565b9150612c46826138d7565b604082019050919050565b612c5a8161320e565b82525050565b6000612c6c8284612964565b915081905092915050565b6000612c838285612964565b9150612c8f8284612964565b91508190509392505050565b6000602082019050612cb060008301846128d4565b92915050565b6000608082019050612ccb60008301876128d4565b612cd860208301866128d4565b612ce56040830185612c51565b8181036060830152612cf781846128f2565b905095945050505050565b6000602082019050612d1760008301846128e3565b92915050565b60006020820190508181036000830152612d37818461292b565b905092915050565b60006020820190508181036000830152612d5881612995565b9050919050565b60006020820190508181036000830152612d78816129b8565b9050919050565b60006020820190508181036000830152612d98816129db565b9050919050565b60006020820190508181036000830152612db8816129fe565b9050919050565b60006020820190508181036000830152612dd881612a21565b9050919050565b60006020820190508181036000830152612df881612a44565b9050919050565b60006020820190508181036000830152612e1881612a67565b9050919050565b60006020820190508181036000830152612e3881612a8a565b9050919050565b60006020820190508181036000830152612e5881612aad565b9050919050565b60006020820190508181036000830152612e7881612ad0565b9050919050565b60006020820190508181036000830152612e9881612af3565b9050919050565b60006020820190508181036000830152612eb881612b16565b9050919050565b60006020820190508181036000830152612ed881612b39565b9050919050565b60006020820190508181036000830152612ef881612b5c565b9050919050565b60006020820190508181036000830152612f1881612b7f565b9050919050565b60006020820190508181036000830152612f3881612ba2565b9050919050565b60006020820190508181036000830152612f5881612bc5565b9050919050565b60006020820190508181036000830152612f7881612be8565b9050919050565b60006020820190508181036000830152612f9881612c0b565b9050919050565b60006020820190508181036000830152612fb881612c2e565b9050919050565b6000602082019050612fd46000830184612c51565b92915050565b6000606082019050612fef6000830186612c51565b8181036020830152613001818561292b565b90508181036040830152613015818461292b565b9050949350505050565b600061302961303a565b9050613035828261328c565b919050565b6000604051905090565b600067ffffffffffffffff82111561305f5761305e6133c4565b5b613068826133f3565b9050602081019050919050565b600067ffffffffffffffff8211156130905761308f6133c4565b5b613099826133f3565b9050602081019050919050565b600081519050919050565b600081519050919050565b600082825260208201905092915050565b600082825260208201905092915050565b600081905092915050565b60006130f48261320e565b91506130ff8361320e565b9250827fffffffffffffffffffffffffffffffffffffffffffffffffffffffffffffffff0382111561313457613133613337565b5b828201905092915050565b600061314a8261320e565b91506131558361320e565b92508261316557613164613366565b5b828204905092915050565b600061317b8261320e565b91506131868361320e565b92508282101561319957613198613337565b5b828203905092915050565b60006131af826131ee565b9050919050565b60008115159050919050565b60007fffffffff0000000000000000000000000000000000000000000000000000000082169050919050565b600073ffffffffffffffffffffffffffffffffffffffff82169050919050565b6000819050919050565b82818337600083830152505050565b60005b8381101561324557808201518184015260208101905061322a565b83811115613254576000848401525b50505050565b6000600282049050600182168061327257607f821691505b6020821081141561328657613285613395565b5b50919050565b613295826133f3565b810181811067ffffffffffffffff821117156132b4576132b36133c4565b5b80604052505050565b60006132c88261320e565b91507fffffffffffffffffffffffffffffffffffffffffffffffffffffffffffffffff8214156132fb576132fa613337565b5b600182019050919050565b60006133118261320e565b915061331c8361320e565b92508261332c5761332b613366565b5b828206905092915050565b7f4e487b7100000000000000000000000000000000000000000000000000000000600052601160045260246000fd5b7f4e487b7100000000000000000000000000000000000000000000000000000000600052601260045260246000fd5b7f4e487b7100000000000000000000000000000000000000000000000000000000600052602260045260246000fd5b7f4e487b7100000000000000000000000000000000000000000000000000000000600052604160045260246000fd5b6000601f19601f8301169050919050565b7f4552433732313a207472616e7366657220746f206e6f6e20455243373231526560008201527f63656976657220696d706c656d656e7465720000000000000000000000000000602082015250565b7f796f7520617265206e6f7420746865204f776e65720000000000000000000000600082015250565b7f426f74746c653a20746f6b656e20616c7265616479206d696e74656400000000600082015250565b7f4f776e61626c653a206e6577206f776e657220697320746865207a65726f206160008201527f6464726573730000000000000000000000000000000000000000000000000000602082015250565b7f4552433732313a207472616e736665722066726f6d20696e636f72726563742060008201527f6f776e6572000000000000000000000000000000000000000000000000000000602082015250565b7f4552433732313a20746f6b656e20616c7265616479206d696e74656400000000600082015250565b7f4552433732313a207472616e7366657220746f20746865207a65726f2061646460008201527f7265737300000000000000000000000000000000000000000000000000000000602082015250565b7f4552433732313a20617070726f766520746f2063616c6c657200000000000000600082015250565b7f4552433732313a206f70657261746f7220717565727920666f72206e6f6e657860008201527f697374656e7420746f6b656e0000000000000000000000000000000000000000602082015250565b7f4552433732313a20617070726f76652063616c6c6572206973206e6f74206f7760008201527f6e6572206e6f7220617070726f76656420666f7220616c6c0000000000000000602082015250565b7f4552433732313a2062616c616e636520717565727920666f7220746865207a6560008201527f726f206164647265737300000000000000000000000000000000000000000000602082015250565b7f4552433732313a206f776e657220717565727920666f72206e6f6e657869737460008201527f656e7420746f6b656e0000000000000000000000000000000000000000000000602082015250565b7f4552433732313a206d696e7420746f20746865207a65726f2061646472657373600082015250565b7f4552433732313a20617070726f76656420717565727920666f72206e6f6e657860008201527f697374656e7420746f6b656e0000000000000000000000000000000000000000602082015250565b7f4f776e61626c653a2063616c6c6572206973206e6f7420746865206f776e6572600082015250565b7f4552433732314d657461646174613a2055524920717565727920666f72206e6f60008201527f6e6578697374656e7420746f6b656e0000000000000000000000000000000000602082015250565b7f4552433732313a20617070726f76616c20746f2063757272656e74206f776e6560008201527f7200000000000000000000000000000000000000000000000000000000000000602082015250565b7f426f74746c653a20746f6b656e496420646f6e27742065786973740000000000600082015250565b7f4552433732313a207472616e736665722063616c6c6572206973206e6f74206f60008201527f776e6572206e6f7220617070726f766564000000000000000000000000000000602082015250565b7f426f74746c653a20746f6b656e206973206e6f7420616c7265616479206d696e60008201527f7465640000000000000000000000000000000000000000000000000000000000602082015250565b61392f816131a4565b811461393a57600080fd5b50565b613946816131b6565b811461395157600080fd5b50565b61395d816131c2565b811461396857600080fd5b50565b6139748161320e565b811461397f57600080fd5b5056fea2646970667358221220e9e3a067c1a3b20ac9ded4c5aacf48530716c55c4c3e94b43b95dbb24ffd781b64736f6c63430008010033",
  "immutableReferences": {},
  "source": "// SPDX-License-Identifier: MIT\r\npragma solidity ^0.8.1;\r\n\r\nimport \"@openzeppelin/contracts/token/ERC721/ERC721.sol\";\r\nimport \"@openzeppelin/contracts/access/Ownable.sol\";\r\n\r\ncontract Bottles is ERC721, Ownable {\r\n    mapping (string => mapping(string => uint256)) public id ; // to store Uid from string oder bytes32 in uint256\r\n    mapping(uint256 => string) _tokenURIs; // to store nfts uri (which for us also corresponds to the Uid)\r\n    mapping(string => mapping(string => bool)) public bottle;\r\n    uint256 counter = 1; // for itterate nfts minting and counts the total number of tokens\r\n\r\n\r\n    constructor(string memory name, string memory symbol) ERC721(name, symbol){\r\n    }\r\n\r\n    event action(uint256 tokenId, string wineName, string bottleUid);\r\n\r\n    function burnBottle(string memory wineName, string memory bottleUid) \r\n    public virtual onlyOwner \r\n    {\r\n        require(bottle[wineName][bottleUid]==true, \"Bottle: token is not already minted\");\r\n        require(ERC721.ownerOf(id[wineName][bottleUid]) == msg.sender,\"you are not the Owner\" );\r\n\r\n        _burn(id[wineName][bottleUid]);  \r\n        delete id[wineName][bottleUid];\r\n        emit action(id[wineName][bottleUid], wineName, bottleUid);\r\n    }\r\n\r\n    function transferBottle(address to, string memory wineName, string memory bottleUid)\r\n    public  virtual onlyOwner\r\n    {\r\n        require(id[wineName][bottleUid] > 0, \"Bottle: tokenId don't exist\");\r\n        require(existence(wineName,bottleUid)==true, \"Bottle: token is not already minted\");\r\n        transferFrom(msg.sender, to, id[wineName][bottleUid]);  \r\n    }\r\n\r\n    function mintBottle(string memory wineName, string memory bottleUid, string memory bildLink) \r\n    public virtual onlyOwner  \r\n    {\r\n        require(bottle[wineName][bottleUid] == false, \"Bottle: token already minted\");\r\n        \r\n        id[wineName][bottleUid] = counter;\r\n        _mint(msg.sender, id[wineName][bottleUid]);\r\n        _setTokenURI(id[wineName][bottleUid], bildLink);\r\n        bottle[wineName][bottleUid] = true;\r\n        counter ++;\r\n        emit action(id[wineName][bottleUid], wineName, bottleUid); \r\n    }\r\n    \r\n    function _setTokenURI(uint256 tokenId, string memory _tokenURI) internal {\r\n        _tokenURIs[tokenId] = _tokenURI;\r\n    }\r\n\r\n    function existence(string memory wineName, string memory bottleUid) public virtual returns(bool){\r\n        return bottle[wineName][bottleUid];\r\n\r\n    }\r\n}",
  "sourcePath": "/mnt/c/Users/Alex/Documents/Dev/testing/Wein_lager/contracts/Bottles.sol",
  "compiler": {
    "name": "solc",
    "version": "0.8.1+commit.df193b15.Emscripten.clang"
  },
  "schemaVersion": "3.4.4",
  "updatedAt": "2022-03-09T16:34:57.604Z",
  "networkType": "ethereum",
  "devdoc": {
    "kind": "dev",
    "methods": {
      "approve(address,uint256)": {
        "details": "See {IERC721-approve}."
      },
      "balanceOf(address)": {
        "details": "See {IERC721-balanceOf}."
      },
      "getApproved(uint256)": {
        "details": "See {IERC721-getApproved}."
      },
      "isApprovedForAll(address,address)": {
        "details": "See {IERC721-isApprovedForAll}."
      },
      "name()": {
        "details": "See {IERC721Metadata-name}."
      },
      "owner()": {
        "details": "Returns the address of the current owner."
      },
      "ownerOf(uint256)": {
        "details": "See {IERC721-ownerOf}."
      },
      "renounceOwnership()": {
        "details": "Leaves the contract without owner. It will not be possible to call `onlyOwner` functions anymore. Can only be called by the current owner. NOTE: Renouncing ownership will leave the contract without an owner, thereby removing any functionality that is only available to the owner."
      },
      "safeTransferFrom(address,address,uint256)": {
        "details": "See {IERC721-safeTransferFrom}."
      },
      "safeTransferFrom(address,address,uint256,bytes)": {
        "details": "See {IERC721-safeTransferFrom}."
      },
      "setApprovalForAll(address,bool)": {
        "details": "See {IERC721-setApprovalForAll}."
      },
      "supportsInterface(bytes4)": {
        "details": "See {IERC165-supportsInterface}."
      },
      "symbol()": {
        "details": "See {IERC721Metadata-symbol}."
      },
      "tokenURI(uint256)": {
        "details": "See {IERC721Metadata-tokenURI}."
      },
      "transferFrom(address,address,uint256)": {
        "details": "See {IERC721-transferFrom}."
      },
      "transferOwnership(address)": {
        "details": "Transfers ownership of the contract to a new account (`newOwner`). Can only be called by the current owner."
      }
    },
    "version": 1
  },
  "userdoc": {
    "kind": "user",
    "methods": {},
    "version": 1
  }
}