{
  "contractName": "Storages",
  "abi": [
    {
      "inputs": [
        {
          "internalType": "address",
          "name": "_nftContract",
          "type": "address"
        }
      ],
      "stateMutability": "nonpayable",
      "type": "constructor"
    },
    {
      "anonymous": false,
      "inputs": [
        {
          "indexed": true,
          "internalType": "address",
          "name": "previousOwner",
          "type": "address"
        },
        {
          "indexed": true,
          "internalType": "address",
          "name": "newOwner",
          "type": "address"
        }
      ],
      "name": "OwnershipTransferred",
      "type": "event"
    },
    {
      "anonymous": false,
      "inputs": [
        {
          "indexed": false,
          "internalType": "uint256",
          "name": "time",
          "type": "uint256"
        },
        {
          "indexed": false,
          "internalType": "uint256",
          "name": "storageId",
          "type": "uint256"
        },
        {
          "indexed": false,
          "internalType": "string",
          "name": "bottleName",
          "type": "string"
        },
        {
          "indexed": false,
          "internalType": "string",
          "name": "bottleUid",
          "type": "string"
        },
        {
          "indexed": false,
          "internalType": "string",
          "name": "InOrOut",
          "type": "string"
        }
      ],
      "name": "changing",
      "type": "event"
    },
    {
      "anonymous": false,
      "inputs": [
        {
          "indexed": false,
          "internalType": "uint256",
          "name": "time",
          "type": "uint256"
        },
        {
          "indexed": false,
          "internalType": "string",
          "name": "dataHash",
          "type": "string"
        },
        {
          "indexed": false,
          "internalType": "uint256",
          "name": "storageId",
          "type": "uint256"
        },
        {
          "indexed": false,
          "internalType": "uint256",
          "name": "sensorId",
          "type": "uint256"
        }
      ],
      "name": "hashStorage",
      "type": "event"
    },
    {
      "inputs": [
        {
          "internalType": "uint256",
          "name": "",
          "type": "uint256"
        },
        {
          "internalType": "string",
          "name": "",
          "type": "string"
        }
      ],
      "name": "exist",
      "outputs": [
        {
          "internalType": "bool",
          "name": "",
          "type": "bool"
        }
      ],
      "stateMutability": "view",
      "type": "function",
      "constant": true
    },
    {
      "inputs": [
        {
          "internalType": "uint256",
          "name": "",
          "type": "uint256"
        },
        {
          "internalType": "uint256",
          "name": "",
          "type": "uint256"
        }
      ],
      "name": "isStorage",
      "outputs": [
        {
          "internalType": "bool",
          "name": "",
          "type": "bool"
        }
      ],
      "stateMutability": "view",
      "type": "function",
      "constant": true
    },
    {
      "inputs": [],
      "name": "owner",
      "outputs": [
        {
          "internalType": "address",
          "name": "",
          "type": "address"
        }
      ],
      "stateMutability": "view",
      "type": "function",
      "constant": true
    },
    {
      "inputs": [],
      "name": "renounceOwnership",
      "outputs": [],
      "stateMutability": "nonpayable",
      "type": "function"
    },
    {
      "inputs": [
        {
          "internalType": "uint256",
          "name": "",
          "type": "uint256"
        },
        {
          "internalType": "uint256",
          "name": "",
          "type": "uint256"
        },
        {
          "internalType": "uint256",
          "name": "",
          "type": "uint256"
        }
      ],
      "name": "sensorData",
      "outputs": [
        {
          "internalType": "string",
          "name": "hash",
          "type": "string"
        },
        {
          "internalType": "uint256",
          "name": "date",
          "type": "uint256"
        }
      ],
      "stateMutability": "view",
      "type": "function",
      "constant": true
    },
    {
      "inputs": [
        {
          "internalType": "uint256",
          "name": "",
          "type": "uint256"
        },
        {
          "internalType": "uint256",
          "name": "",
          "type": "uint256"
        }
      ],
      "name": "storageContent",
      "outputs": [
        {
          "internalType": "string",
          "name": "name",
          "type": "string"
        },
        {
          "internalType": "string",
          "name": "uid",
          "type": "string"
        }
      ],
      "stateMutability": "view",
      "type": "function",
      "constant": true
    },
    {
      "inputs": [
        {
          "internalType": "uint256",
          "name": "",
          "type": "uint256"
        }
      ],
      "name": "storageFacility",
      "outputs": [
        {
          "internalType": "bool",
          "name": "",
          "type": "bool"
        }
      ],
      "stateMutability": "view",
      "type": "function",
      "constant": true
    },
    {
      "inputs": [
        {
          "internalType": "uint256",
          "name": "",
          "type": "uint256"
        },
        {
          "internalType": "uint256",
          "name": "",
          "type": "uint256"
        }
      ],
      "name": "storageSensorList",
      "outputs": [
        {
          "internalType": "uint256",
          "name": "",
          "type": "uint256"
        }
      ],
      "stateMutability": "view",
      "type": "function",
      "constant": true
    },
    {
      "inputs": [
        {
          "internalType": "address",
          "name": "newOwner",
          "type": "address"
        }
      ],
      "name": "transferOwnership",
      "outputs": [],
      "stateMutability": "nonpayable",
      "type": "function"
    },
    {
      "inputs": [
        {
          "internalType": "uint256",
          "name": "",
          "type": "uint256"
        },
        {
          "internalType": "string",
          "name": "",
          "type": "string"
        }
      ],
      "name": "uidPosition",
      "outputs": [
        {
          "internalType": "uint256",
          "name": "",
          "type": "uint256"
        }
      ],
      "stateMutability": "view",
      "type": "function",
      "constant": true
    },
    {
      "inputs": [
        {
          "internalType": "uint256",
          "name": "storageId",
          "type": "uint256"
        }
      ],
      "name": "setStorage",
      "outputs": [],
      "stateMutability": "nonpayable",
      "type": "function"
    },
    {
      "inputs": [
        {
          "internalType": "uint256",
          "name": "storageId",
          "type": "uint256"
        },
        {
          "internalType": "string",
          "name": "wineName",
          "type": "string"
        },
        {
          "internalType": "string",
          "name": "bottleUid",
          "type": "string"
        }
      ],
      "name": "checkBottleIn",
      "outputs": [],
      "stateMutability": "nonpayable",
      "type": "function"
    },
    {
      "inputs": [
        {
          "internalType": "uint256",
          "name": "storageId",
          "type": "uint256"
        },
        {
          "internalType": "string",
          "name": "wineName",
          "type": "string"
        },
        {
          "internalType": "string",
          "name": "bottleUid",
          "type": "string"
        }
      ],
      "name": "checkBottleOut",
      "outputs": [],
      "stateMutability": "nonpayable",
      "type": "function"
    },
    {
      "inputs": [
        {
          "internalType": "uint256",
          "name": "storageId",
          "type": "uint256"
        }
      ],
      "name": "getStorageContent",
      "outputs": [
        {
          "components": [
            {
              "internalType": "string",
              "name": "name",
              "type": "string"
            },
            {
              "internalType": "string",
              "name": "uid",
              "type": "string"
            }
          ],
          "internalType": "struct Storages.bottles[]",
          "name": "",
          "type": "tuple[]"
        }
      ],
      "stateMutability": "view",
      "type": "function",
      "constant": true
    },
    {
      "inputs": [
        {
          "internalType": "uint256",
          "name": "storageId",
          "type": "uint256"
        },
        {
          "internalType": "uint256",
          "name": "sensorId",
          "type": "uint256"
        }
      ],
      "name": "sensorRegistration",
      "outputs": [],
      "stateMutability": "nonpayable",
      "type": "function"
    },
    {
      "inputs": [
        {
          "internalType": "uint256",
          "name": "storageId",
          "type": "uint256"
        }
      ],
      "name": "getstorageSensorList",
      "outputs": [
        {
          "internalType": "uint256[]",
          "name": "",
          "type": "uint256[]"
        }
      ],
      "stateMutability": "view",
      "type": "function",
      "constant": true
    },
    {
      "inputs": [
        {
          "internalType": "uint256",
          "name": "storageId",
          "type": "uint256"
        },
        {
          "internalType": "uint256",
          "name": "sensorId",
          "type": "uint256"
        },
        {
          "internalType": "string",
          "name": "dataHash",
          "type": "string"
        },
        {
          "internalType": "uint256",
          "name": "date",
          "type": "uint256"
        }
      ],
      "name": "dataStorage",
      "outputs": [],
      "stateMutability": "nonpayable",
      "type": "function"
    },
    {
      "inputs": [
        {
          "internalType": "uint256",
          "name": "storageId",
          "type": "uint256"
        },
        {
          "internalType": "uint256",
          "name": "sensorId",
          "type": "uint256"
        }
      ],
      "name": "getHashHistories",
      "outputs": [
        {
          "components": [
            {
              "internalType": "string",
              "name": "hash",
              "type": "string"
            },
            {
              "internalType": "uint256",
              "name": "date",
              "type": "uint256"
            }
          ],
          "internalType": "struct Storages.data[]",
          "name": "",
          "type": "tuple[]"
        }
      ],
      "stateMutability": "view",
      "type": "function",
      "constant": true
    }
  ],
  "bytecode": "0x60806040523480156200001157600080fd5b506040516200311838038062003118833981810160405281019062000037919062000182565b620000576200004b6200009f60201b60201c565b620000a760201b60201c565b80600160006101000a81548173ffffffffffffffffffffffffffffffffffffffff021916908373ffffffffffffffffffffffffffffffffffffffff16021790555050620001fc565b600033905090565b60008060009054906101000a900473ffffffffffffffffffffffffffffffffffffffff169050816000806101000a81548173ffffffffffffffffffffffffffffffffffffffff021916908373ffffffffffffffffffffffffffffffffffffffff1602179055508173ffffffffffffffffffffffffffffffffffffffff168173ffffffffffffffffffffffffffffffffffffffff167f8be0079c531659141344cd1fd0a4f28419497f9722a3daafe3b4186f6b6457e060405160405180910390a35050565b6000815190506200017c81620001e2565b92915050565b6000602082840312156200019557600080fd5b6000620001a5848285016200016b565b91505092915050565b6000620001bb82620001c2565b9050919050565b600073ffffffffffffffffffffffffffffffffffffffff82169050919050565b620001ed81620001ae565b8114620001f957600080fd5b50565b612f0c806200020c6000396000f3fe608060405234801561001057600080fd5b50600436106101165760003560e01c806391ccd742116100a2578063bbf7655a11610071578063bbf7655a14610318578063bdb4f9e614610349578063d699c75014610379578063de0988e814610395578063f2fde38b146103b157610116565b806391ccd74214610280578063a53e3dbe1461029c578063ad062287146102b8578063ae86356a146102e857610116565b80635e5b79ff116100e95780635e5b79ff146101dc578063715018a61461020c578063725ef1fc14610216578063753c707c146102325780638da5cb5b1461026257610116565b80631a6cec481461011b5780633c2f98871461014c578063431abdad1461017c57806343cdd78d146101ac575b600080fd5b61013560048036038101906101309190611dd3565b6103cd565b604051610143929190612424565b60405180910390f35b61016660048036038101906101619190611c20565b6104a3565b60405161017391906123d2565b60405180910390f35b61019660048036038101906101919190611d1c565b6104c3565b6040516101a391906123d2565b60405180910390f35b6101c660048036038101906101c19190611d1c565b6104f2565b6040516101d391906125f4565b60405180910390f35b6101f660048036038101906101f19190611d1c565b610523565b604051610203919061238e565b60405180910390f35b610214610722565b005b610230600480360381019061022b9190611d58565b6107aa565b005b61024c60048036038101906102479190611c20565b610a03565b604051610259919061236c565b60405180910390f35b61026a610b99565b6040516102779190612351565b60405180910390f35b61029a60048036038101906102959190611c9d565b610bc2565b005b6102b660048036038101906102b19190611c9d565b610e0c565b005b6102d260048036038101906102cd9190611c20565b6110c9565b6040516102df91906123b0565b60405180910390f35b61030260048036038101906102fd9190611c49565b611134565b60405161030f91906123d2565b60405180910390f35b610332600480360381019061032d9190611d1c565b611179565b6040516103409291906123ed565b60405180910390f35b610363600480360381019061035e9190611c49565b6112ca565b60405161037091906125f4565b60405180910390f35b610393600480360381019061038e9190611c20565b611305565b005b6103af60048036038101906103aa9190611d1c565b6113de565b005b6103cb60048036038101906103c69190611bce565b611538565b005b600260205282600052604060002060205281600052604060002081815481106103f557600080fd5b9060005260206000209060020201600092509250505080600001805461041a90612984565b80601f016020809104026020016040519081016040528092919081815260200182805461044690612984565b80156104935780601f1061046857610100808354040283529160200191610493565b820191906000526020600020905b81548152906001019060200180831161047657829003601f168201915b5050505050908060010154905082565b60056020528060005260406000206000915054906101000a900460ff1681565b60036020528160005260406000206020528060005260406000206000915091509054906101000a900460ff1681565b6004602052816000526040600020818154811061050e57600080fd5b90600052602060002001600091509150505481565b6060600115156005600085815260200190815260200160002060009054906101000a900460ff1615151461058c576040517f08c379a000000000000000000000000000000000000000000000000000000000815260040161058390612554565b60405180910390fd5b6001151560036000858152602001908152602001600020600084815260200190815260200160002060009054906101000a900460ff16151514610604576040517f08c379a00000000000000000000000000000000000000000000000000000000081526004016105fb906125d4565b60405180910390fd5b600260008481526020019081526020016000206000838152602001908152602001600020805480602002602001604051908101604052809291908181526020016000905b82821015610716578382906000526020600020906002020160405180604001604052908160008201805461067b90612984565b80601f01602080910402602001604051908101604052809291908181526020018280546106a790612984565b80156106f45780601f106106c9576101008083540402835291602001916106f4565b820191906000526020600020905b8154815290600101906020018083116106d757829003601f168201915b5050505050815260200160018201548152505081526020019060010190610648565b50505050905092915050565b61072a611630565b73ffffffffffffffffffffffffffffffffffffffff16610748610b99565b73ffffffffffffffffffffffffffffffffffffffff161461079e576040517f08c379a000000000000000000000000000000000000000000000000000000000815260040161079590612514565b60405180910390fd5b6107a86000611638565b565b600115156005600086815260200190815260200160002060009054906101000a900460ff16151514610811576040517f08c379a000000000000000000000000000000000000000000000000000000000815260040161080890612554565b60405180910390fd5b6001151560036000868152602001908152602001600020600085815260200190815260200160002060009054906101000a900460ff16151514610889576040517f08c379a0000000000000000000000000000000000000000000000000000000008152600401610880906125d4565b60405180910390fd5b60408251146108cd576040517f08c379a00000000000000000000000000000000000000000000000000000000081526004016108c490612474565b60405180910390fd5b600081426108db91906128c6565b1180156108f657506201518081426108f391906128c6565b11155b610935576040517f08c379a000000000000000000000000000000000000000000000000000000000815260040161092c90612534565b60405180910390fd5b600260008581526020019081526020016000206000848152602001908152602001600020604051806040016040528084815260200183815250908060018154018082558091505060019003906000526020600020906002020160009091909190915060008201518160000190805190602001906109b3929190611a44565b506020820151816001015550507fbc4fca7659c06fef09ca013fb82ea89544864eaec96792a316e633d7186eeeac818386866040516109f5949392919061260f565b60405180910390a150505050565b606060066000838152602001908152602001600020805480602002602001604051908101604052809291908181526020016000905b82821015610b8e5783829060005260206000209060020201604051806040016040529081600082018054610a6b90612984565b80601f0160208091040260200160405190810160405280929190818152602001828054610a9790612984565b8015610ae45780601f10610ab957610100808354040283529160200191610ae4565b820191906000526020600020905b815481529060010190602001808311610ac757829003601f168201915b50505050508152602001600182018054610afd90612984565b80601f0160208091040260200160405190810160405280929190818152602001828054610b2990612984565b8015610b765780601f10610b4b57610100808354040283529160200191610b76565b820191906000526020600020905b815481529060010190602001808311610b5957829003601f168201915b50505050508152505081526020019060010190610a38565b505050509050919050565b60008060009054906101000a900473ffffffffffffffffffffffffffffffffffffffff16905090565b610bca611630565b73ffffffffffffffffffffffffffffffffffffffff16610be8610b99565b73ffffffffffffffffffffffffffffffffffffffff1614610c3e576040517f08c379a0000000000000000000000000000000000000000000000000000000008152600401610c3590612514565b60405180910390fd5b600115156008600085815260200190815260200160002082604051610c63919061233a565b908152602001604051809103902060009054906101000a900460ff16151514610cc1576040517f08c379a0000000000000000000000000000000000000000000000000000000008152600401610cb8906124f4565b60405180910390fd5b610ccb83826116fc565b60066000848152602001908152602001600020805480610d14577f4e487b7100000000000000000000000000000000000000000000000000000000600052603160045260246000fd5b600190038181906000526020600020906002020160008082016000610d399190611aca565b600182016000610d499190611aca565b5050905560006007600085815260200190815260200160002082604051610d70919061233a565b90815260200160405180910390208190555060006008600085815260200190815260200160002082604051610da5919061233a565b908152602001604051809103902060006101000a81548160ff0219169083151502179055507ff8b82686cbe5b13c26e2187b77d2a4c136eb4341a8d79f3d1ed1ead82e8da7a642848484604051610dff949392919061265b565b60405180910390a1505050565b600115156005600085815260200190815260200160002060009054906101000a900460ff16151514610e73576040517f08c379a0000000000000000000000000000000000000000000000000000000008152600401610e6a90612494565b60405180910390fd5b60011515600160009054906101000a900473ffffffffffffffffffffffffffffffffffffffff1673ffffffffffffffffffffffffffffffffffffffff1663ee9350ba84846040518363ffffffff1660e01b8152600401610ed49291906123ed565b602060405180830381600087803b158015610eee57600080fd5b505af1158015610f02573d6000803e3d6000fd5b505050506040513d601f19601f82011682018060405250810190610f269190611bf7565b151514610f68576040517f08c379a0000000000000000000000000000000000000000000000000000000008152600401610f5f90612574565b60405180910390fd5b6006600084815260200190815260200160002060405180604001604052808481526020018381525090806001815401808255809150506001900390600052602060002090600202016000909190919091506000820151816000019080519060200190610fd5929190611a44565b506020820151816001019080519060200190610ff2929190611a44565b5050506006600084815260200190815260200160002080549050600760008581526020019081526020016000208260405161102d919061233a565b90815260200160405180910390208190555060016008600085815260200190815260200160002082604051611062919061233a565b908152602001604051809103902060006101000a81548160ff0219169083151502179055507ff8b82686cbe5b13c26e2187b77d2a4c136eb4341a8d79f3d1ed1ead82e8da7a6428484846040516110bc94939291906126c1565b60405180910390a1505050565b60606004600083815260200190815260200160002080548060200260200160405190810160405280929190818152602001828054801561112857602002820191906000526020600020905b815481526020019060010190808311611114575b50505050509050919050565b6008602052816000526040600020818051602081018201805184825260208301602085012081835280955050505050506000915091509054906101000a900460ff1681565b6006602052816000526040600020818154811061119557600080fd5b9060005260206000209060020201600091509150508060000180546111b990612984565b80601f01602080910402602001604051908101604052809291908181526020018280546111e590612984565b80156112325780601f1061120757610100808354040283529160200191611232565b820191906000526020600020905b81548152906001019060200180831161121557829003601f168201915b50505050509080600101805461124790612984565b80601f016020809104026020016040519081016040528092919081815260200182805461127390612984565b80156112c05780601f10611295576101008083540402835291602001916112c0565b820191906000526020600020905b8154815290600101906020018083116112a357829003601f168201915b5050505050905082565b600760205281600052604060002081805160208101820180518482526020830160208501208183528095505050505050600091509150505481565b60008111611348576040517f08c379a000000000000000000000000000000000000000000000000000000000815260040161133f906125b4565b60405180910390fd5b600015156005600083815260200190815260200160002060009054906101000a900460ff161515146113af576040517f08c379a00000000000000000000000000000000000000000000000000000000081526004016113a690612594565b60405180910390fd5b60016005600083815260200190815260200160002060006101000a81548160ff02191690831515021790555050565b600115156005600084815260200190815260200160002060009054906101000a900460ff16151514611445576040517f08c379a000000000000000000000000000000000000000000000000000000000815260040161143c90612554565b60405180910390fd5b6000151560036000848152602001908152602001600020600083815260200190815260200160002060009054906101000a900460ff161515146114bd576040517f08c379a00000000000000000000000000000000000000000000000000000000081526004016114b4906124d4565b60405180910390fd5b60046000838152602001908152602001600020819080600181540180825580915050600190039060005260206000200160009091909190915055600160036000848152602001908152602001600020600083815260200190815260200160002060006101000a81548160ff0219169083151502179055505050565b611540611630565b73ffffffffffffffffffffffffffffffffffffffff1661155e610b99565b73ffffffffffffffffffffffffffffffffffffffff16146115b4576040517f08c379a00000000000000000000000000000000000000000000000000000000081526004016115ab90612514565b60405180910390fd5b600073ffffffffffffffffffffffffffffffffffffffff168173ffffffffffffffffffffffffffffffffffffffff161415611624576040517f08c379a000000000000000000000000000000000000000000000000000000000815260040161161b90612454565b60405180910390fd5b61162d81611638565b50565b600033905090565b60008060009054906101000a900473ffffffffffffffffffffffffffffffffffffffff169050816000806101000a81548173ffffffffffffffffffffffffffffffffffffffff021916908373ffffffffffffffffffffffffffffffffffffffff1602179055508173ffffffffffffffffffffffffffffffffffffffff168173ffffffffffffffffffffffffffffffffffffffff167f8be0079c531659141344cd1fd0a4f28419497f9722a3daafe3b4186f6b6457e060405160405180910390a35050565b6000600760008481526020019081526020016000208260405161171f919061233a565b9081526020016040518091039020541161176e576040517f08c379a0000000000000000000000000000000000000000000000000000000008152600401611765906124b4565b60405180910390fd5b600060016007600085815260200190815260200160002083604051611793919061233a565b9081526020016040518091039020546117ac91906128c6565b90506000600660008581526020019081526020016000208054905090506000600660008681526020019081526020016000206001836117eb91906128c6565b81548110611822577f4e487b7100000000000000000000000000000000000000000000000000000000600052603260045260246000fd5b906000526020600020906002020160405180604001604052908160008201805461184b90612984565b80601f016020809104026020016040519081016040528092919081815260200182805461187790612984565b80156118c45780601f10611899576101008083540402835291602001916118c4565b820191906000526020600020905b8154815290600101906020018083116118a757829003601f168201915b505050505081526020016001820180546118dd90612984565b80601f016020809104026020016040519081016040528092919081815260200182805461190990612984565b80156119565780601f1061192b57610100808354040283529160200191611956565b820191906000526020600020905b81548152906001019060200180831161193957829003601f168201915b5050505050815250509050806006600087815260200190815260200160002084815481106119ad577f4e487b7100000000000000000000000000000000000000000000000000000000600052603260045260246000fd5b906000526020600020906002020160008201518160000190805190602001906119d7929190611a44565b5060208201518160010190805190602001906119f4929190611a44565b509050507ff8b82686cbe5b13c26e2187b77d2a4c136eb4341a8d79f3d1ed1ead82e8da7a6428683600001518460200151604051611a359493929190612727565b60405180910390a15050505050565b828054611a5090612984565b90600052602060002090601f016020900481019282611a725760008555611ab9565b82601f10611a8b57805160ff1916838001178555611ab9565b82800160010185558215611ab9579182015b82811115611ab8578251825591602001919060010190611a9d565b5b509050611ac69190611b0a565b5090565b508054611ad690612984565b6000825580601f10611ae85750611b07565b601f016020900490600052602060002090810190611b069190611b0a565b5b50565b5b80821115611b23576000816000905550600101611b0b565b5090565b6000611b3a611b35846127b2565b61278d565b905082815260208101848484011115611b5257600080fd5b611b5d848285612942565b509392505050565b600081359050611b7481612e91565b92915050565b600081519050611b8981612ea8565b92915050565b600082601f830112611ba057600080fd5b8135611bb0848260208601611b27565b91505092915050565b600081359050611bc881612ebf565b92915050565b600060208284031215611be057600080fd5b6000611bee84828501611b65565b91505092915050565b600060208284031215611c0957600080fd5b6000611c1784828501611b7a565b91505092915050565b600060208284031215611c3257600080fd5b6000611c4084828501611bb9565b91505092915050565b60008060408385031215611c5c57600080fd5b6000611c6a85828601611bb9565b925050602083013567ffffffffffffffff811115611c8757600080fd5b611c9385828601611b8f565b9150509250929050565b600080600060608486031215611cb257600080fd5b6000611cc086828701611bb9565b935050602084013567ffffffffffffffff811115611cdd57600080fd5b611ce986828701611b8f565b925050604084013567ffffffffffffffff811115611d0657600080fd5b611d1286828701611b8f565b9150509250925092565b60008060408385031215611d2f57600080fd5b6000611d3d85828601611bb9565b9250506020611d4e85828601611bb9565b9150509250929050565b60008060008060808587031215611d6e57600080fd5b6000611d7c87828801611bb9565b9450506020611d8d87828801611bb9565b935050604085013567ffffffffffffffff811115611daa57600080fd5b611db687828801611b8f565b9250506060611dc787828801611bb9565b91505092959194509250565b600080600060608486031215611de857600080fd5b6000611df686828701611bb9565b9350506020611e0786828701611bb9565b9250506040611e1886828701611bb9565b9150509250925092565b6000611e2e838361229b565b905092915050565b6000611e4283836122df565b905092915050565b6000611e56838361231c565b60208301905092915050565b611e6b816128fa565b82525050565b6000611e7c82612813565b611e868185612866565b935083602082028501611e98856127e3565b8060005b85811015611ed45784840389528151611eb58582611e22565b9450611ec08361283f565b925060208a01995050600181019050611e9c565b50829750879550505050505092915050565b6000611ef18261281e565b611efb8185612877565b935083602082028501611f0d856127f3565b8060005b85811015611f495784840389528151611f2a8582611e36565b9450611f358361284c565b925060208a01995050600181019050611f11565b50829750879550505050505092915050565b6000611f6682612829565b611f708185612888565b9350611f7b83612803565b8060005b83811015611fac578151611f938882611e4a565b9750611f9e83612859565b925050600181019050611f7f565b5085935050505092915050565b611fc28161290c565b82525050565b6000611fd382612834565b611fdd8185612899565b9350611fed818560208601612951565b611ff681612a74565b840191505092915050565b600061200c82612834565b61201681856128aa565b9350612026818560208601612951565b61202f81612a74565b840191505092915050565b600061204582612834565b61204f81856128bb565b935061205f818560208601612951565b80840191505092915050565b60006120786003836128aa565b915061208382612a85565b602082019050919050565b600061209b6002836128aa565b91506120a682612aae565b602082019050919050565b60006120be6026836128aa565b91506120c982612ad7565b604082019050919050565b60006120e16028836128aa565b91506120ec82612b26565b604082019050919050565b6000612104601f836128aa565b915061210f82612b75565b602082019050919050565b6000612127602b836128aa565b915061213282612b9e565b604082019050919050565b600061214a6008836128aa565b915061215582612bed565b602082019050919050565b600061216d6021836128aa565b915061217882612c16565b604082019050919050565b60006121906030836128aa565b915061219b82612c65565b604082019050919050565b60006121b36020836128aa565b91506121be82612cb4565b602082019050919050565b60006121d66033836128aa565b91506121e182612cdd565b604082019050919050565b60006121f96029836128aa565b915061220482612d2c565b604082019050919050565b600061221c601e836128aa565b915061222782612d7b565b602082019050919050565b600061223f6023836128aa565b915061224a82612da4565b604082019050919050565b6000612262602f836128aa565b915061226d82612df3565b604082019050919050565b60006122856037836128aa565b915061229082612e42565b604082019050919050565b600060408301600083015184820360008601526122b88282611fc8565b915050602083015184820360208601526122d28282611fc8565b9150508091505092915050565b600060408301600083015184820360008601526122fc8282611fc8565b9150506020830151612311602086018261231c565b508091505092915050565b61232581612938565b82525050565b61233481612938565b82525050565b6000612346828461203a565b915081905092915050565b60006020820190506123666000830184611e62565b92915050565b600060208201905081810360008301526123868184611e71565b905092915050565b600060208201905081810360008301526123a88184611ee6565b905092915050565b600060208201905081810360008301526123ca8184611f5b565b905092915050565b60006020820190506123e76000830184611fb9565b92915050565b600060408201905081810360008301526124078185612001565b9050818103602083015261241b8184612001565b90509392505050565b6000604082019050818103600083015261243e8185612001565b905061244d602083018461232b565b9392505050565b6000602082019050818103600083015261246d816120b1565b9050919050565b6000602082019050818103600083015261248d816120d4565b9050919050565b600060208201905081810360008301526124ad816120f7565b9050919050565b600060208201905081810360008301526124cd8161211a565b9050919050565b600060208201905081810360008301526124ed81612160565b9050919050565b6000602082019050818103600083015261250d81612183565b9050919050565b6000602082019050818103600083015261252d816121a6565b9050919050565b6000602082019050818103600083015261254d816121c9565b9050919050565b6000602082019050818103600083015261256d816121ec565b9050919050565b6000602082019050818103600083015261258d8161220f565b9050919050565b600060208201905081810360008301526125ad81612232565b9050919050565b600060208201905081810360008301526125cd81612255565b9050919050565b600060208201905081810360008301526125ed81612278565b9050919050565b6000602082019050612609600083018461232b565b92915050565b6000608082019050612624600083018761232b565b81810360208301526126368186612001565b9050612645604083018561232b565b612652606083018461232b565b95945050505050565b600060a082019050612670600083018761232b565b61267d602083018661232b565b818103604083015261268f8185612001565b905081810360608301526126a38184612001565b905081810360808301526126b68161206b565b905095945050505050565b600060a0820190506126d6600083018761232b565b6126e3602083018661232b565b81810360408301526126f58185612001565b905081810360608301526127098184612001565b9050818103608083015261271c8161208e565b905095945050505050565b600060a08201905061273c600083018761232b565b612749602083018661232b565b818103604083015261275b8185612001565b9050818103606083015261276f8184612001565b905081810360808301526127828161213d565b905095945050505050565b60006127976127a8565b90506127a382826129b6565b919050565b6000604051905090565b600067ffffffffffffffff8211156127cd576127cc612a45565b5b6127d682612a74565b9050602081019050919050565b6000819050602082019050919050565b6000819050602082019050919050565b6000819050602082019050919050565b600081519050919050565b600081519050919050565b600081519050919050565b600081519050919050565b6000602082019050919050565b6000602082019050919050565b6000602082019050919050565b600082825260208201905092915050565b600082825260208201905092915050565b600082825260208201905092915050565b600082825260208201905092915050565b600082825260208201905092915050565b600081905092915050565b60006128d182612938565b91506128dc83612938565b9250828210156128ef576128ee6129e7565b5b828203905092915050565b600061290582612918565b9050919050565b60008115159050919050565b600073ffffffffffffffffffffffffffffffffffffffff82169050919050565b6000819050919050565b82818337600083830152505050565b60005b8381101561296f578082015181840152602081019050612954565b8381111561297e576000848401525b50505050565b6000600282049050600182168061299c57607f821691505b602082108114156129b0576129af612a16565b5b50919050565b6129bf82612a74565b810181811067ffffffffffffffff821117156129de576129dd612a45565b5b80604052505050565b7f4e487b7100000000000000000000000000000000000000000000000000000000600052601160045260246000fd5b7f4e487b7100000000000000000000000000000000000000000000000000000000600052602260045260246000fd5b7f4e487b7100000000000000000000000000000000000000000000000000000000600052604160045260246000fd5b6000601f19601f8301169050919050565b7f4f55540000000000000000000000000000000000000000000000000000000000600082015250565b7f494e000000000000000000000000000000000000000000000000000000000000600082015250565b7f4f776e61626c653a206e6577206f776e657220697320746865207a65726f206160008201527f6464726573730000000000000000000000000000000000000000000000000000602082015250565b7f53656e736f723a20706c6561736520656e74657220612073686132353668617360008201527f6820737472696e67000000000000000000000000000000000000000000000000602082015250565b7f53746f726167653a2074686973206c6167657220646f6e277420657869737400600082015250565b7f53746f726167653a207468697320626f74746c65206973206e6f7420696e207460008201527f6869732073746f72616765000000000000000000000000000000000000000000602082015250565b7f506f736974696f6e000000000000000000000000000000000000000000000000600082015250565b7f53656e736f723a20746869732073656e736f7220616c7265616479206578697360008201527f7400000000000000000000000000000000000000000000000000000000000000602082015250565b7f4c616765723a2074686520626f74746c65206973206e6f7420616c726561647960008201527f20696e20746869732073746f7261676500000000000000000000000000000000602082015250565b7f4f776e61626c653a2063616c6c6572206973206e6f7420746865206f776e6572600082015250565b7f53656e736f723a2073746f7261676520706572696f6465206d7573732062652060008201527f736d616c6c6572207468616e2032204461797300000000000000000000000000602082015250565b7f53746f726167653a20746869732073746f7261676520646f6e277420616c726560008201527f6164792065786973740000000000000000000000000000000000000000000000602082015250565b7f4e46543a207468697320626f74746c65206973206e6f7420616e204e46540000600082015250565b7f53746f726167653a20746869732073746f7261676520616c726561647920657860008201527f6973740000000000000000000000000000000000000000000000000000000000602082015250565b7f53746f726167653a207468652073746f726167654964206d6f7374206265206260008201527f6967676572207468616e207a65726f0000000000000000000000000000000000602082015250565b7f53746f726167653a207468652073656e736f7220646f6e277420616c7265616460008201527f7920657869737420696e20746869732073746f72616765000000000000000000602082015250565b612e9a816128fa565b8114612ea557600080fd5b50565b612eb18161290c565b8114612ebc57600080fd5b50565b612ec881612938565b8114612ed357600080fd5b5056fea264697066735822122001af0dcb90e5f91de9f3a0617317bf988d3e58822e4bb6f7f8b0ffac6f758eb464736f6c63430008010033",
  "immutableReferences": {},
  "source": "// SPDX-License-Identifier: MIT\r\npragma solidity ^0.8.1;\r\n\r\n\r\nimport \"./Bottles.sol\";\r\nimport \"@openzeppelin/contracts/access/Ownable.sol\";\r\n\r\ncontract Storages is Ownable {\r\n        \r\n    Bottles nftContract;\r\n    constructor(address _nftContract){\r\n        nftContract = Bottles(_nftContract);\r\n    }\r\n\r\n    struct bottles{\r\n        string name;\r\n        string uid;\r\n    }\r\n\r\n    struct data {\r\n        string hash;\r\n        uint256 date;\r\n    }\r\n\r\n    mapping(uint256 => mapping(uint256 => data[])) public sensorData;\r\n    mapping(uint256 => mapping(uint256 => bool)) public isStorage;\r\n    mapping(uint256 => uint256[]) public storageSensorList;\r\n\r\n    mapping(uint256 => bool) public storageFacility;\r\n    mapping(uint256 => bottles[]) public storageContent;\r\n    mapping(uint256 => mapping(string => uint256)) public uidPosition;\r\n    mapping(uint256 => mapping(string => bool)) public exist;\r\n\r\n    event hashStorage(uint256 time, string dataHash, uint256 storageId, uint256 sensorId);\r\n    event changing(uint256 time, uint256 storageId, string bottleName, string bottleUid, string InOrOut);\r\n\r\n    ////////////////////////////////////////////////////////////////////////////////Storage/////////////////////////////////////////////////////////////////////////////////////////////////\r\n\r\n    function setStorage(uint256 storageId) \r\n    public \r\n    {\r\n        require (storageId > 0, \"Storage: the storageId most be bigger than zero\");\r\n        require (storageFacility[storageId] == false, \"Storage: this storage already exist\");\r\n        storageFacility[storageId] = true;\r\n    }\r\n\r\n    function checkBottleIn(uint256 storageId, string memory wineName, string memory bottleUid) \r\n    public \r\n    {\r\n        require(storageFacility[storageId] == true,\"Storage: this lager don't exist\");\r\n        require(nftContract.existence(wineName,bottleUid) == true, \"NFT: this bottle is not an NFT\");\r\n\r\n        storageContent[storageId].push(bottles(wineName,bottleUid));\r\n        uidPosition[storageId][bottleUid] = storageContent[storageId].length;\r\n        exist[storageId][bottleUid] = true;\r\n\r\n        emit changing(block.timestamp, storageId, wineName, bottleUid, \"IN\" );\r\n    }\r\n\r\n    function swapPosition( uint256 storageId, string memory bottleUid)\r\n    internal \r\n    {\r\n        require (uidPosition[storageId][bottleUid] > 0, \"Storage: this bottle is not in this storage\");\r\n\r\n        uint256 descendant = (uidPosition[storageId][bottleUid]-1);\r\n        uint256 upwards = storageContent[storageId].length;\r\n        bottles memory switcher = storageContent[storageId][upwards - 1];\r\n        storageContent[storageId][descendant] = switcher;\r\n\r\n        emit changing (block.timestamp, storageId, switcher.name, switcher.uid, \"Position\");\r\n    }\r\n\r\n    function checkBottleOut(uint256 storageId, string memory wineName, string memory bottleUid) \r\n    public onlyOwner\r\n    {\r\n        require (exist[storageId][bottleUid] == true,\"Lager: the bottle is not already in this storage\");\r\n\r\n        swapPosition(storageId,bottleUid);\r\n        storageContent[storageId].pop();\r\n        uidPosition[storageId][bottleUid] = 0; \r\n        exist[storageId][bottleUid] = false;\r\n\r\n        emit changing (block.timestamp, storageId, wineName, bottleUid, \"OUT\");\r\n    }\r\n\r\n    function getStorageContent(uint256 storageId)\r\n    public view  returns(bottles[] memory )\r\n    {\r\n        return storageContent[storageId];\r\n    }\r\n\r\n    ////////////////////////////////////////////////////////////////////////////////SENSOR/////////////////////////////////////////////////////////////////////////////////////////////////\r\n\r\n    function sensorRegistration(uint256 storageId, uint256 sensorId) \r\n    public  \r\n    {\r\n        require (storageFacility[storageId] == true, \"Storage: this storage don't already exist\");\r\n        require(isStorage[storageId][sensorId] == false, \"Sensor: this sensor already exist\");\r\n\r\n        storageSensorList[storageId].push(sensorId);\r\n        isStorage[storageId][sensorId] = true;\r\n    }\r\n\r\n    function getstorageSensorList(uint256 storageId)\r\n    public view  returns(uint256[] memory )\r\n    {\r\n        return storageSensorList[storageId];\r\n    }\r\n\r\n    function dataStorage(uint256 storageId, uint256 sensorId, string memory dataHash, uint256 date) \r\n    public \r\n    {\r\n        require (storageFacility[storageId] == true, \"Storage: this storage don't already exist\");\r\n        require(isStorage[storageId][sensorId] == true, \"Storage: the sensor don't already exist in this storage\");\r\n        require(bytes(dataHash).length == 64, \"Sensor: please enter a sha256hash string\");\r\n        require((block.timestamp - date) > 0 &&  (block.timestamp - date)  <= 86400, \"Sensor: storage periode muss be smaller than 2 Days\");\r\n\r\n        sensorData[storageId][sensorId].push(data(dataHash,date));\r\n        emit hashStorage(date, dataHash, storageId, sensorId);\r\n    }\r\n        \r\n    function getHashHistories(uint256 storageId, uint256 sensorId) \r\n    public view returns(data[] memory)\r\n    {\r\n        require (storageFacility[storageId] == true, \"Storage: this storage don't already exist\");\r\n        require(isStorage[storageId][sensorId] == true, \"Storage: the sensor don't already exist in this storage\");\r\n        return sensorData[storageId][sensorId];\r\n    }\r\n}",
  "sourcePath": "/mnt/c/Users/Alex/Documents/Dev/testing/Wein_lager/contracts/Strorages.sol",
  "compiler": {
    "name": "solc",
    "version": "0.8.1+commit.df193b15.Emscripten.clang"
  },
  "schemaVersion": "3.4.4",
  "updatedAt": "2022-03-10T02:53:25.161Z",
  "networkType": "ethereum",
  "devdoc": {
    "kind": "dev",
    "methods": {
      "owner()": {
        "details": "Returns the address of the current owner."
      },
      "renounceOwnership()": {
        "details": "Leaves the contract without owner. It will not be possible to call `onlyOwner` functions anymore. Can only be called by the current owner. NOTE: Renouncing ownership will leave the contract without an owner, thereby removing any functionality that is only available to the owner."
      },
      "transferOwnership(address)": {
        "details": "Transfers ownership of the contract to a new account (`newOwner`). Can only be called by the current owner."
      }
    },
    "version": 1
  },
  "userdoc": {
    "kind": "user",
    "methods": {},
    "version": 1
  }
}