{
  "contractName": "Storages",
  "abi": [
    {
      "inputs": [
        {
          "internalType": "address",
          "name": "_nftContract",
          "type": "address"
        }
      ],
      "stateMutability": "nonpayable",
      "type": "constructor"
    },
    {
      "anonymous": false,
      "inputs": [
        {
          "indexed": true,
          "internalType": "address",
          "name": "previousOwner",
          "type": "address"
        },
        {
          "indexed": true,
          "internalType": "address",
          "name": "newOwner",
          "type": "address"
        }
      ],
      "name": "OwnershipTransferred",
      "type": "event"
    },
    {
      "anonymous": false,
      "inputs": [
        {
          "indexed": false,
          "internalType": "uint256",
          "name": "time",
          "type": "uint256"
        },
        {
          "indexed": false,
          "internalType": "uint256",
          "name": "storageId",
          "type": "uint256"
        },
        {
          "indexed": false,
          "internalType": "string",
          "name": "bottleName",
          "type": "string"
        },
        {
          "indexed": false,
          "internalType": "string",
          "name": "bottleUid",
          "type": "string"
        }
      ],
      "name": "changing",
      "type": "event"
    },
    {
      "anonymous": false,
      "inputs": [
        {
          "indexed": false,
          "internalType": "uint256",
          "name": "time",
          "type": "uint256"
        },
        {
          "indexed": false,
          "internalType": "string",
          "name": "dataHash",
          "type": "string"
        },
        {
          "indexed": false,
          "internalType": "uint256",
          "name": "storageId",
          "type": "uint256"
        },
        {
          "indexed": false,
          "internalType": "uint256",
          "name": "sensorId",
          "type": "uint256"
        }
      ],
      "name": "hashStorage",
      "type": "event"
    },
    {
      "inputs": [
        {
          "internalType": "uint256",
          "name": "",
          "type": "uint256"
        },
        {
          "internalType": "string",
          "name": "",
          "type": "string"
        }
      ],
      "name": "exist",
      "outputs": [
        {
          "internalType": "bool",
          "name": "",
          "type": "bool"
        }
      ],
      "stateMutability": "view",
      "type": "function",
      "constant": true
    },
    {
      "inputs": [
        {
          "internalType": "uint256",
          "name": "",
          "type": "uint256"
        },
        {
          "internalType": "uint256",
          "name": "",
          "type": "uint256"
        }
      ],
      "name": "isStorage",
      "outputs": [
        {
          "internalType": "bool",
          "name": "",
          "type": "bool"
        }
      ],
      "stateMutability": "view",
      "type": "function",
      "constant": true
    },
    {
      "inputs": [],
      "name": "owner",
      "outputs": [
        {
          "internalType": "address",
          "name": "",
          "type": "address"
        }
      ],
      "stateMutability": "view",
      "type": "function",
      "constant": true
    },
    {
      "inputs": [],
      "name": "renounceOwnership",
      "outputs": [],
      "stateMutability": "nonpayable",
      "type": "function"
    },
    {
      "inputs": [
        {
          "internalType": "uint256",
          "name": "",
          "type": "uint256"
        },
        {
          "internalType": "uint256",
          "name": "",
          "type": "uint256"
        },
        {
          "internalType": "uint256",
          "name": "",
          "type": "uint256"
        }
      ],
      "name": "sensorData",
      "outputs": [
        {
          "internalType": "string",
          "name": "hash",
          "type": "string"
        },
        {
          "internalType": "uint256",
          "name": "date",
          "type": "uint256"
        }
      ],
      "stateMutability": "view",
      "type": "function",
      "constant": true
    },
    {
      "inputs": [
        {
          "internalType": "uint256",
          "name": "",
          "type": "uint256"
        },
        {
          "internalType": "uint256",
          "name": "",
          "type": "uint256"
        }
      ],
      "name": "storageContent",
      "outputs": [
        {
          "internalType": "string",
          "name": "name",
          "type": "string"
        },
        {
          "internalType": "string",
          "name": "uid",
          "type": "string"
        }
      ],
      "stateMutability": "view",
      "type": "function",
      "constant": true
    },
    {
      "inputs": [
        {
          "internalType": "uint256",
          "name": "",
          "type": "uint256"
        }
      ],
      "name": "storageFacility",
      "outputs": [
        {
          "internalType": "bool",
          "name": "",
          "type": "bool"
        }
      ],
      "stateMutability": "view",
      "type": "function",
      "constant": true
    },
    {
      "inputs": [
        {
          "internalType": "uint256",
          "name": "",
          "type": "uint256"
        },
        {
          "internalType": "uint256",
          "name": "",
          "type": "uint256"
        }
      ],
      "name": "storageSensorList",
      "outputs": [
        {
          "internalType": "uint256",
          "name": "",
          "type": "uint256"
        }
      ],
      "stateMutability": "view",
      "type": "function",
      "constant": true
    },
    {
      "inputs": [
        {
          "internalType": "address",
          "name": "newOwner",
          "type": "address"
        }
      ],
      "name": "transferOwnership",
      "outputs": [],
      "stateMutability": "nonpayable",
      "type": "function"
    },
    {
      "inputs": [
        {
          "internalType": "uint256",
          "name": "",
          "type": "uint256"
        },
        {
          "internalType": "string",
          "name": "",
          "type": "string"
        }
      ],
      "name": "uidPosition",
      "outputs": [
        {
          "internalType": "uint256",
          "name": "",
          "type": "uint256"
        }
      ],
      "stateMutability": "view",
      "type": "function",
      "constant": true
    },
    {
      "inputs": [
        {
          "internalType": "uint256",
          "name": "storageId",
          "type": "uint256"
        }
      ],
      "name": "setStorage",
      "outputs": [],
      "stateMutability": "nonpayable",
      "type": "function"
    },
    {
      "inputs": [
        {
          "internalType": "uint256",
          "name": "storageId",
          "type": "uint256"
        },
        {
          "internalType": "string",
          "name": "wineName",
          "type": "string"
        },
        {
          "internalType": "string",
          "name": "bottleUid",
          "type": "string"
        }
      ],
      "name": "checkBottleIn",
      "outputs": [],
      "stateMutability": "nonpayable",
      "type": "function"
    },
    {
      "inputs": [
        {
          "internalType": "uint256",
          "name": "storageId",
          "type": "uint256"
        },
        {
          "internalType": "string",
          "name": "wineName",
          "type": "string"
        },
        {
          "internalType": "string",
          "name": "bottleUid",
          "type": "string"
        }
      ],
      "name": "checkBottleOut",
      "outputs": [],
      "stateMutability": "nonpayable",
      "type": "function"
    },
    {
      "inputs": [
        {
          "internalType": "uint256",
          "name": "storageId",
          "type": "uint256"
        }
      ],
      "name": "getStorageContent",
      "outputs": [
        {
          "components": [
            {
              "internalType": "string",
              "name": "name",
              "type": "string"
            },
            {
              "internalType": "string",
              "name": "uid",
              "type": "string"
            }
          ],
          "internalType": "struct Storages.bottles[]",
          "name": "",
          "type": "tuple[]"
        }
      ],
      "stateMutability": "view",
      "type": "function",
      "constant": true
    },
    {
      "inputs": [
        {
          "internalType": "uint256",
          "name": "storageId",
          "type": "uint256"
        },
        {
          "internalType": "uint256",
          "name": "sensorId",
          "type": "uint256"
        }
      ],
      "name": "sensorRegistration",
      "outputs": [],
      "stateMutability": "nonpayable",
      "type": "function"
    },
    {
      "inputs": [
        {
          "internalType": "uint256",
          "name": "storageId",
          "type": "uint256"
        }
      ],
      "name": "getstorageSensorList",
      "outputs": [
        {
          "internalType": "uint256[]",
          "name": "",
          "type": "uint256[]"
        }
      ],
      "stateMutability": "view",
      "type": "function",
      "constant": true
    },
    {
      "inputs": [
        {
          "internalType": "uint256",
          "name": "storageId",
          "type": "uint256"
        },
        {
          "internalType": "uint256",
          "name": "sensorId",
          "type": "uint256"
        },
        {
          "internalType": "string",
          "name": "dataHash",
          "type": "string"
        },
        {
          "internalType": "uint256",
          "name": "date",
          "type": "uint256"
        }
      ],
      "name": "dataStorage",
      "outputs": [],
      "stateMutability": "nonpayable",
      "type": "function"
    },
    {
      "inputs": [
        {
          "internalType": "uint256",
          "name": "storageId",
          "type": "uint256"
        },
        {
          "internalType": "uint256",
          "name": "sensorId",
          "type": "uint256"
        }
      ],
      "name": "getHashHistories",
      "outputs": [
        {
          "components": [
            {
              "internalType": "string",
              "name": "hash",
              "type": "string"
            },
            {
              "internalType": "uint256",
              "name": "date",
              "type": "uint256"
            }
          ],
          "internalType": "struct Storages.data[]",
          "name": "",
          "type": "tuple[]"
        }
      ],
      "stateMutability": "view",
      "type": "function",
      "constant": true
    }
  ],
  "bytecode": "0x60806040523480156200001157600080fd5b5060405162002f5538038062002f55833981810160405281019062000037919062000182565b620000576200004b6200009f60201b60201c565b620000a760201b60201c565b80600160006101000a81548173ffffffffffffffffffffffffffffffffffffffff021916908373ffffffffffffffffffffffffffffffffffffffff16021790555050620001fc565b600033905090565b60008060009054906101000a900473ffffffffffffffffffffffffffffffffffffffff169050816000806101000a81548173ffffffffffffffffffffffffffffffffffffffff021916908373ffffffffffffffffffffffffffffffffffffffff1602179055508173ffffffffffffffffffffffffffffffffffffffff168173ffffffffffffffffffffffffffffffffffffffff167f8be0079c531659141344cd1fd0a4f28419497f9722a3daafe3b4186f6b6457e060405160405180910390a35050565b6000815190506200017c81620001e2565b92915050565b6000602082840312156200019557600080fd5b6000620001a5848285016200016b565b91505092915050565b6000620001bb82620001c2565b9050919050565b600073ffffffffffffffffffffffffffffffffffffffff82169050919050565b620001ed81620001ae565b8114620001f957600080fd5b50565b612d49806200020c6000396000f3fe608060405234801561001057600080fd5b50600436106101165760003560e01c806391ccd742116100a2578063bbf7655a11610071578063bbf7655a14610318578063bdb4f9e614610349578063d699c75014610379578063de0988e814610395578063f2fde38b146103b157610116565b806391ccd74214610280578063a53e3dbe1461029c578063ad062287146102b8578063ae86356a146102e857610116565b80635e5b79ff116100e95780635e5b79ff146101dc578063715018a61461020c578063725ef1fc14610216578063753c707c146102325780638da5cb5b1461026257610116565b80631a6cec481461011b5780633c2f98871461014c578063431abdad1461017c57806343cdd78d146101ac575b600080fd5b61013560048036038101906101309190611dd3565b6103cd565b6040516101439291906123bb565b60405180910390f35b61016660048036038101906101619190611c20565b6104a3565b6040516101739190612369565b60405180910390f35b61019660048036038101906101919190611d1c565b6104c3565b6040516101a39190612369565b60405180910390f35b6101c660048036038101906101c19190611d1c565b6104f2565b6040516101d3919061258b565b60405180910390f35b6101f660048036038101906101f19190611d1c565b610523565b6040516102039190612325565b60405180910390f35b610214610722565b005b610230600480360381019061022b9190611d58565b6107aa565b005b61024c60048036038101906102479190611c20565b610a03565b6040516102599190612303565b60405180910390f35b61026a610b99565b60405161027791906122e8565b60405180910390f35b61029a60048036038101906102959190611c9d565b610bc2565b005b6102b660048036038101906102b19190611c9d565b610e0c565b005b6102d260048036038101906102cd9190611c20565b6110c9565b6040516102df9190612347565b60405180910390f35b61030260048036038101906102fd9190611c49565b611134565b60405161030f9190612369565b60405180910390f35b610332600480360381019061032d9190611d1c565b611179565b604051610340929190612384565b60405180910390f35b610363600480360381019061035e9190611c49565b6112ca565b604051610370919061258b565b60405180910390f35b610393600480360381019061038e9190611c20565b611305565b005b6103af60048036038101906103aa9190611d1c565b6113de565b005b6103cb60048036038101906103c69190611bce565b611538565b005b600260205282600052604060002060205281600052604060002081815481106103f557600080fd5b9060005260206000209060020201600092509250505080600001805461041a9061283c565b80601f01602080910402602001604051908101604052809291908181526020018280546104469061283c565b80156104935780601f1061046857610100808354040283529160200191610493565b820191906000526020600020905b81548152906001019060200180831161047657829003601f168201915b5050505050908060010154905082565b60056020528060005260406000206000915054906101000a900460ff1681565b60036020528160005260406000206020528060005260406000206000915091509054906101000a900460ff1681565b6004602052816000526040600020818154811061050e57600080fd5b90600052602060002001600091509150505481565b6060600115156005600085815260200190815260200160002060009054906101000a900460ff1615151461058c576040517f08c379a0000000000000000000000000000000000000000000000000000000008152600401610583906124eb565b60405180910390fd5b6001151560036000858152602001908152602001600020600084815260200190815260200160002060009054906101000a900460ff16151514610604576040517f08c379a00000000000000000000000000000000000000000000000000000000081526004016105fb9061256b565b60405180910390fd5b600260008481526020019081526020016000206000838152602001908152602001600020805480602002602001604051908101604052809291908181526020016000905b82821015610716578382906000526020600020906002020160405180604001604052908160008201805461067b9061283c565b80601f01602080910402602001604051908101604052809291908181526020018280546106a79061283c565b80156106f45780601f106106c9576101008083540402835291602001916106f4565b820191906000526020600020905b8154815290600101906020018083116106d757829003601f168201915b5050505050815260200160018201548152505081526020019060010190610648565b50505050905092915050565b61072a611630565b73ffffffffffffffffffffffffffffffffffffffff16610748610b99565b73ffffffffffffffffffffffffffffffffffffffff161461079e576040517f08c379a0000000000000000000000000000000000000000000000000000000008152600401610795906124ab565b60405180910390fd5b6107a86000611638565b565b600115156005600086815260200190815260200160002060009054906101000a900460ff16151514610811576040517f08c379a0000000000000000000000000000000000000000000000000000000008152600401610808906124eb565b60405180910390fd5b6001151560036000868152602001908152602001600020600085815260200190815260200160002060009054906101000a900460ff16151514610889576040517f08c379a00000000000000000000000000000000000000000000000000000000081526004016108809061256b565b60405180910390fd5b60408251146108cd576040517f08c379a00000000000000000000000000000000000000000000000000000000081526004016108c49061240b565b60405180910390fd5b600081426108db919061277e565b1180156108f657506201518081426108f3919061277e565b11155b610935576040517f08c379a000000000000000000000000000000000000000000000000000000000815260040161092c906124cb565b60405180910390fd5b600260008581526020019081526020016000206000848152602001908152602001600020604051806040016040528084815260200183815250908060018154018082558091505060019003906000526020600020906002020160009091909190915060008201518160000190805190602001906109b3929190611a44565b506020820151816001015550507fbc4fca7659c06fef09ca013fb82ea89544864eaec96792a316e633d7186eeeac818386866040516109f594939291906125a6565b60405180910390a150505050565b606060066000838152602001908152602001600020805480602002602001604051908101604052809291908181526020016000905b82821015610b8e5783829060005260206000209060020201604051806040016040529081600082018054610a6b9061283c565b80601f0160208091040260200160405190810160405280929190818152602001828054610a979061283c565b8015610ae45780601f10610ab957610100808354040283529160200191610ae4565b820191906000526020600020905b815481529060010190602001808311610ac757829003601f168201915b50505050508152602001600182018054610afd9061283c565b80601f0160208091040260200160405190810160405280929190818152602001828054610b299061283c565b8015610b765780601f10610b4b57610100808354040283529160200191610b76565b820191906000526020600020905b815481529060010190602001808311610b5957829003601f168201915b50505050508152505081526020019060010190610a38565b505050509050919050565b60008060009054906101000a900473ffffffffffffffffffffffffffffffffffffffff16905090565b610bca611630565b73ffffffffffffffffffffffffffffffffffffffff16610be8610b99565b73ffffffffffffffffffffffffffffffffffffffff1614610c3e576040517f08c379a0000000000000000000000000000000000000000000000000000000008152600401610c35906124ab565b60405180910390fd5b600115156008600085815260200190815260200160002082604051610c6391906122d1565b908152602001604051809103902060009054906101000a900460ff16151514610cc1576040517f08c379a0000000000000000000000000000000000000000000000000000000008152600401610cb89061248b565b60405180910390fd5b610ccb83826116fc565b60066000848152602001908152602001600020805480610d14577f4e487b7100000000000000000000000000000000000000000000000000000000600052603160045260246000fd5b600190038181906000526020600020906002020160008082016000610d399190611aca565b600182016000610d499190611aca565b5050905560006007600085815260200190815260200160002082604051610d7091906122d1565b90815260200160405180910390208190555060006008600085815260200190815260200160002082604051610da591906122d1565b908152602001604051809103902060006101000a81548160ff0219169083151502179055507fad14ff0095abea459ed31f7738a9ce299fb9faa0ed3fbeb5c2dd7ccb3b9f85c642848484604051610dff94939291906125f2565b60405180910390a1505050565b600115156005600085815260200190815260200160002060009054906101000a900460ff16151514610e73576040517f08c379a0000000000000000000000000000000000000000000000000000000008152600401610e6a9061242b565b60405180910390fd5b60011515600160009054906101000a900473ffffffffffffffffffffffffffffffffffffffff1673ffffffffffffffffffffffffffffffffffffffff1663ee9350ba84846040518363ffffffff1660e01b8152600401610ed4929190612384565b602060405180830381600087803b158015610eee57600080fd5b505af1158015610f02573d6000803e3d6000fd5b505050506040513d601f19601f82011682018060405250810190610f269190611bf7565b151514610f68576040517f08c379a0000000000000000000000000000000000000000000000000000000008152600401610f5f9061250b565b60405180910390fd5b6006600084815260200190815260200160002060405180604001604052808481526020018381525090806001815401808255809150506001900390600052602060002090600202016000909190919091506000820151816000019080519060200190610fd5929190611a44565b506020820151816001019080519060200190610ff2929190611a44565b5050506006600084815260200190815260200160002080549050600760008581526020019081526020016000208260405161102d91906122d1565b9081526020016040518091039020819055506001600860008581526020019081526020016000208260405161106291906122d1565b908152602001604051809103902060006101000a81548160ff0219169083151502179055507fad14ff0095abea459ed31f7738a9ce299fb9faa0ed3fbeb5c2dd7ccb3b9f85c6428484846040516110bc94939291906125f2565b60405180910390a1505050565b60606004600083815260200190815260200160002080548060200260200160405190810160405280929190818152602001828054801561112857602002820191906000526020600020905b815481526020019060010190808311611114575b50505050509050919050565b6008602052816000526040600020818051602081018201805184825260208301602085012081835280955050505050506000915091509054906101000a900460ff1681565b6006602052816000526040600020818154811061119557600080fd5b9060005260206000209060020201600091509150508060000180546111b99061283c565b80601f01602080910402602001604051908101604052809291908181526020018280546111e59061283c565b80156112325780601f1061120757610100808354040283529160200191611232565b820191906000526020600020905b81548152906001019060200180831161121557829003601f168201915b5050505050908060010180546112479061283c565b80601f01602080910402602001604051908101604052809291908181526020018280546112739061283c565b80156112c05780601f10611295576101008083540402835291602001916112c0565b820191906000526020600020905b8154815290600101906020018083116112a357829003601f168201915b5050505050905082565b600760205281600052604060002081805160208101820180518482526020830160208501208183528095505050505050600091509150505481565b60008111611348576040517f08c379a000000000000000000000000000000000000000000000000000000000815260040161133f9061254b565b60405180910390fd5b600015156005600083815260200190815260200160002060009054906101000a900460ff161515146113af576040517f08c379a00000000000000000000000000000000000000000000000000000000081526004016113a69061252b565b60405180910390fd5b60016005600083815260200190815260200160002060006101000a81548160ff02191690831515021790555050565b600115156005600084815260200190815260200160002060009054906101000a900460ff16151514611445576040517f08c379a000000000000000000000000000000000000000000000000000000000815260040161143c906124eb565b60405180910390fd5b6000151560036000848152602001908152602001600020600083815260200190815260200160002060009054906101000a900460ff161515146114bd576040517f08c379a00000000000000000000000000000000000000000000000000000000081526004016114b49061246b565b60405180910390fd5b60046000838152602001908152602001600020819080600181540180825580915050600190039060005260206000200160009091909190915055600160036000848152602001908152602001600020600083815260200190815260200160002060006101000a81548160ff0219169083151502179055505050565b611540611630565b73ffffffffffffffffffffffffffffffffffffffff1661155e610b99565b73ffffffffffffffffffffffffffffffffffffffff16146115b4576040517f08c379a00000000000000000000000000000000000000000000000000000000081526004016115ab906124ab565b60405180910390fd5b600073ffffffffffffffffffffffffffffffffffffffff168173ffffffffffffffffffffffffffffffffffffffff161415611624576040517f08c379a000000000000000000000000000000000000000000000000000000000815260040161161b906123eb565b60405180910390fd5b61162d81611638565b50565b600033905090565b60008060009054906101000a900473ffffffffffffffffffffffffffffffffffffffff169050816000806101000a81548173ffffffffffffffffffffffffffffffffffffffff021916908373ffffffffffffffffffffffffffffffffffffffff1602179055508173ffffffffffffffffffffffffffffffffffffffff168173ffffffffffffffffffffffffffffffffffffffff167f8be0079c531659141344cd1fd0a4f28419497f9722a3daafe3b4186f6b6457e060405160405180910390a35050565b6000600760008481526020019081526020016000208260405161171f91906122d1565b9081526020016040518091039020541161176e576040517f08c379a00000000000000000000000000000000000000000000000000000000081526004016117659061244b565b60405180910390fd5b60006001600760008581526020019081526020016000208360405161179391906122d1565b9081526020016040518091039020546117ac919061277e565b90506000600660008581526020019081526020016000208054905090506000600660008681526020019081526020016000206001836117eb919061277e565b81548110611822577f4e487b7100000000000000000000000000000000000000000000000000000000600052603260045260246000fd5b906000526020600020906002020160405180604001604052908160008201805461184b9061283c565b80601f01602080910402602001604051908101604052809291908181526020018280546118779061283c565b80156118c45780601f10611899576101008083540402835291602001916118c4565b820191906000526020600020905b8154815290600101906020018083116118a757829003601f168201915b505050505081526020016001820180546118dd9061283c565b80601f01602080910402602001604051908101604052809291908181526020018280546119099061283c565b80156119565780601f1061192b57610100808354040283529160200191611956565b820191906000526020600020905b81548152906001019060200180831161193957829003601f168201915b5050505050815250509050806006600087815260200190815260200160002084815481106119ad577f4e487b7100000000000000000000000000000000000000000000000000000000600052603260045260246000fd5b906000526020600020906002020160008201518160000190805190602001906119d7929190611a44565b5060208201518160010190805190602001906119f4929190611a44565b509050507fad14ff0095abea459ed31f7738a9ce299fb9faa0ed3fbeb5c2dd7ccb3b9f85c6428683600001518460200151604051611a3594939291906125f2565b60405180910390a15050505050565b828054611a509061283c565b90600052602060002090601f016020900481019282611a725760008555611ab9565b82601f10611a8b57805160ff1916838001178555611ab9565b82800160010185558215611ab9579182015b82811115611ab8578251825591602001919060010190611a9d565b5b509050611ac69190611b0a565b5090565b508054611ad69061283c565b6000825580601f10611ae85750611b07565b601f016020900490600052602060002090810190611b069190611b0a565b5b50565b5b80821115611b23576000816000905550600101611b0b565b5090565b6000611b3a611b358461266a565b612645565b905082815260208101848484011115611b5257600080fd5b611b5d8482856127fa565b509392505050565b600081359050611b7481612cce565b92915050565b600081519050611b8981612ce5565b92915050565b600082601f830112611ba057600080fd5b8135611bb0848260208601611b27565b91505092915050565b600081359050611bc881612cfc565b92915050565b600060208284031215611be057600080fd5b6000611bee84828501611b65565b91505092915050565b600060208284031215611c0957600080fd5b6000611c1784828501611b7a565b91505092915050565b600060208284031215611c3257600080fd5b6000611c4084828501611bb9565b91505092915050565b60008060408385031215611c5c57600080fd5b6000611c6a85828601611bb9565b925050602083013567ffffffffffffffff811115611c8757600080fd5b611c9385828601611b8f565b9150509250929050565b600080600060608486031215611cb257600080fd5b6000611cc086828701611bb9565b935050602084013567ffffffffffffffff811115611cdd57600080fd5b611ce986828701611b8f565b925050604084013567ffffffffffffffff811115611d0657600080fd5b611d1286828701611b8f565b9150509250925092565b60008060408385031215611d2f57600080fd5b6000611d3d85828601611bb9565b9250506020611d4e85828601611bb9565b9150509250929050565b60008060008060808587031215611d6e57600080fd5b6000611d7c87828801611bb9565b9450506020611d8d87828801611bb9565b935050604085013567ffffffffffffffff811115611daa57600080fd5b611db687828801611b8f565b9250506060611dc787828801611bb9565b91505092959194509250565b600080600060608486031215611de857600080fd5b6000611df686828701611bb9565b9350506020611e0786828701611bb9565b9250506040611e1886828701611bb9565b9150509250925092565b6000611e2e8383612232565b905092915050565b6000611e428383612276565b905092915050565b6000611e5683836122b3565b60208301905092915050565b611e6b816127b2565b82525050565b6000611e7c826126cb565b611e86818561271e565b935083602082028501611e988561269b565b8060005b85811015611ed45784840389528151611eb58582611e22565b9450611ec0836126f7565b925060208a01995050600181019050611e9c565b50829750879550505050505092915050565b6000611ef1826126d6565b611efb818561272f565b935083602082028501611f0d856126ab565b8060005b85811015611f495784840389528151611f2a8582611e36565b9450611f3583612704565b925060208a01995050600181019050611f11565b50829750879550505050505092915050565b6000611f66826126e1565b611f708185612740565b9350611f7b836126bb565b8060005b83811015611fac578151611f938882611e4a565b9750611f9e83612711565b925050600181019050611f7f565b5085935050505092915050565b611fc2816127c4565b82525050565b6000611fd3826126ec565b611fdd8185612751565b9350611fed818560208601612809565b611ff68161292c565b840191505092915050565b600061200c826126ec565b6120168185612762565b9350612026818560208601612809565b61202f8161292c565b840191505092915050565b6000612045826126ec565b61204f8185612773565b935061205f818560208601612809565b80840191505092915050565b6000612078602683612762565b91506120838261293d565b604082019050919050565b600061209b602883612762565b91506120a68261298c565b604082019050919050565b60006120be601f83612762565b91506120c9826129db565b602082019050919050565b60006120e1602b83612762565b91506120ec82612a04565b604082019050919050565b6000612104602183612762565b915061210f82612a53565b604082019050919050565b6000612127603083612762565b915061213282612aa2565b604082019050919050565b600061214a602083612762565b915061215582612af1565b602082019050919050565b600061216d603383612762565b915061217882612b1a565b604082019050919050565b6000612190602983612762565b915061219b82612b69565b604082019050919050565b60006121b3601e83612762565b91506121be82612bb8565b602082019050919050565b60006121d6602383612762565b91506121e182612be1565b604082019050919050565b60006121f9602f83612762565b915061220482612c30565b604082019050919050565b600061221c603783612762565b915061222782612c7f565b604082019050919050565b6000604083016000830151848203600086015261224f8282611fc8565b915050602083015184820360208601526122698282611fc8565b9150508091505092915050565b600060408301600083015184820360008601526122938282611fc8565b91505060208301516122a860208601826122b3565b508091505092915050565b6122bc816127f0565b82525050565b6122cb816127f0565b82525050565b60006122dd828461203a565b915081905092915050565b60006020820190506122fd6000830184611e62565b92915050565b6000602082019050818103600083015261231d8184611e71565b905092915050565b6000602082019050818103600083015261233f8184611ee6565b905092915050565b600060208201905081810360008301526123618184611f5b565b905092915050565b600060208201905061237e6000830184611fb9565b92915050565b6000604082019050818103600083015261239e8185612001565b905081810360208301526123b28184612001565b90509392505050565b600060408201905081810360008301526123d58185612001565b90506123e460208301846122c2565b9392505050565b600060208201905081810360008301526124048161206b565b9050919050565b600060208201905081810360008301526124248161208e565b9050919050565b60006020820190508181036000830152612444816120b1565b9050919050565b60006020820190508181036000830152612464816120d4565b9050919050565b60006020820190508181036000830152612484816120f7565b9050919050565b600060208201905081810360008301526124a48161211a565b9050919050565b600060208201905081810360008301526124c48161213d565b9050919050565b600060208201905081810360008301526124e481612160565b9050919050565b6000602082019050818103600083015261250481612183565b9050919050565b60006020820190508181036000830152612524816121a6565b9050919050565b60006020820190508181036000830152612544816121c9565b9050919050565b60006020820190508181036000830152612564816121ec565b9050919050565b600060208201905081810360008301526125848161220f565b9050919050565b60006020820190506125a060008301846122c2565b92915050565b60006080820190506125bb60008301876122c2565b81810360208301526125cd8186612001565b90506125dc60408301856122c2565b6125e960608301846122c2565b95945050505050565b600060808201905061260760008301876122c2565b61261460208301866122c2565b81810360408301526126268185612001565b9050818103606083015261263a8184612001565b905095945050505050565b600061264f612660565b905061265b828261286e565b919050565b6000604051905090565b600067ffffffffffffffff821115612685576126846128fd565b5b61268e8261292c565b9050602081019050919050565b6000819050602082019050919050565b6000819050602082019050919050565b6000819050602082019050919050565b600081519050919050565b600081519050919050565b600081519050919050565b600081519050919050565b6000602082019050919050565b6000602082019050919050565b6000602082019050919050565b600082825260208201905092915050565b600082825260208201905092915050565b600082825260208201905092915050565b600082825260208201905092915050565b600082825260208201905092915050565b600081905092915050565b6000612789826127f0565b9150612794836127f0565b9250828210156127a7576127a661289f565b5b828203905092915050565b60006127bd826127d0565b9050919050565b60008115159050919050565b600073ffffffffffffffffffffffffffffffffffffffff82169050919050565b6000819050919050565b82818337600083830152505050565b60005b8381101561282757808201518184015260208101905061280c565b83811115612836576000848401525b50505050565b6000600282049050600182168061285457607f821691505b60208210811415612868576128676128ce565b5b50919050565b6128778261292c565b810181811067ffffffffffffffff82111715612896576128956128fd565b5b80604052505050565b7f4e487b7100000000000000000000000000000000000000000000000000000000600052601160045260246000fd5b7f4e487b7100000000000000000000000000000000000000000000000000000000600052602260045260246000fd5b7f4e487b7100000000000000000000000000000000000000000000000000000000600052604160045260246000fd5b6000601f19601f8301169050919050565b7f4f776e61626c653a206e6577206f776e657220697320746865207a65726f206160008201527f6464726573730000000000000000000000000000000000000000000000000000602082015250565b7f53656e736f723a20706c6561736520656e74657220612073686132353668617360008201527f6820737472696e67000000000000000000000000000000000000000000000000602082015250565b7f53746f726167653a2074686973206c6167657220646f6e277420657869737400600082015250565b7f53746f726167653a207468697320626f74746c65206973206e6f7420696e207460008201527f6869732073746f72616765000000000000000000000000000000000000000000602082015250565b7f53656e736f723a20746869732073656e736f7220616c7265616479206578697360008201527f7400000000000000000000000000000000000000000000000000000000000000602082015250565b7f4c616765723a2074686520626f74746c65206973206e6f7420616c726561647960008201527f20696e20746869732073746f7261676500000000000000000000000000000000602082015250565b7f4f776e61626c653a2063616c6c6572206973206e6f7420746865206f776e6572600082015250565b7f53656e736f723a2073746f7261676520706572696f6465206d7573732062652060008201527f736d616c6c6572207468616e2032204461797300000000000000000000000000602082015250565b7f53746f726167653a20746869732073746f7261676520646f6e277420616c726560008201527f6164792065786973740000000000000000000000000000000000000000000000602082015250565b7f4e46543a207468697320626f74746c65206973206e6f7420616e204e46540000600082015250565b7f53746f726167653a20746869732073746f7261676520616c726561647920657860008201527f6973740000000000000000000000000000000000000000000000000000000000602082015250565b7f53746f726167653a207468652073746f726167654964206d6f7374206265206260008201527f6967676572207468616e207a65726f0000000000000000000000000000000000602082015250565b7f53746f726167653a207468652073656e736f7220646f6e277420616c7265616460008201527f7920657869737420696e20746869732073746f72616765000000000000000000602082015250565b612cd7816127b2565b8114612ce257600080fd5b50565b612cee816127c4565b8114612cf957600080fd5b50565b612d05816127f0565b8114612d1057600080fd5b5056fea2646970667358221220aa9f10187626c085cd23608191e91333a1254d7e1c2ad3b9f717811f12d1da4864736f6c63430008010033",
  "immutableReferences": {},
  "source": "// SPDX-License-Identifier: MIT\r\npragma solidity ^0.8.1;\r\n\r\n\r\nimport \"./Bottles.sol\";\r\nimport \"@openzeppelin/contracts/access/Ownable.sol\";\r\n\r\ncontract Storages is Ownable {\r\n        \r\n    Bottles nftContract;\r\n    constructor(address _nftContract){\r\n        nftContract = Bottles(_nftContract);\r\n    }\r\n\r\n    struct bottles{\r\n        string name;\r\n        string uid;\r\n    }\r\n\r\n    struct data {\r\n        string hash;\r\n        uint256 date;\r\n    }\r\n\r\n    mapping(uint256 => mapping(uint256 => data[])) public sensorData;\r\n    mapping(uint256 => mapping(uint256 => bool)) public isStorage;\r\n    mapping(uint256 => uint256[]) public storageSensorList;\r\n\r\n    mapping(uint256 => bool) public storageFacility;\r\n    mapping(uint256 => bottles[]) public storageContent;\r\n    mapping(uint256 => mapping(string => uint256)) public uidPosition;\r\n    mapping(uint256 => mapping(string => bool)) public exist;\r\n\r\n    event hashStorage(uint256 time, string dataHash, uint256 storageId, uint256 sensorId);\r\n    event changing(uint256 time, uint256 storageId, string bottleName, string bottleUid);\r\n\r\n    ////////////////////////////////////////////////////////////////////////////////Storage/////////////////////////////////////////////////////////////////////////////////////////////////\r\n\r\n    function setStorage(uint256 storageId) \r\n    public \r\n    {\r\n        require (storageId > 0, \"Storage: the storageId most be bigger than zero\");\r\n        require (storageFacility[storageId] == false, \"Storage: this storage already exist\");\r\n        storageFacility[storageId] = true;\r\n    }\r\n\r\n    function checkBottleIn(uint256 storageId, string memory wineName, string memory bottleUid) \r\n    public \r\n    {\r\n        require(storageFacility[storageId] == true,\"Storage: this lager don't exist\");\r\n        require(nftContract.existence(wineName,bottleUid) == true, \"NFT: this bottle is not an NFT\");\r\n\r\n        storageContent[storageId].push(bottles(wineName,bottleUid));\r\n        uidPosition[storageId][bottleUid] = storageContent[storageId].length;\r\n        exist[storageId][bottleUid] = true;\r\n\r\n        emit changing(block.timestamp, storageId, wineName, bottleUid );\r\n    }\r\n\r\n    function swapPosition( uint256 storageId, string memory bottleUid)\r\n    internal \r\n    {\r\n        require (uidPosition[storageId][bottleUid] > 0, \"Storage: this bottle is not in this storage\");\r\n\r\n        uint256 descendant = (uidPosition[storageId][bottleUid]-1);\r\n        uint256 upwards = storageContent[storageId].length;\r\n        bottles memory switcher = storageContent[storageId][upwards - 1];\r\n        storageContent[storageId][descendant] = switcher;\r\n\r\n        emit changing (block.timestamp, storageId, switcher.name, switcher.uid);\r\n    }\r\n\r\n    function checkBottleOut(uint256 storageId, string memory wineName, string memory bottleUid) \r\n    public onlyOwner\r\n    {\r\n        require (exist[storageId][bottleUid] == true,\"Lager: the bottle is not already in this storage\");\r\n\r\n        swapPosition(storageId,bottleUid);\r\n        storageContent[storageId].pop();\r\n        uidPosition[storageId][bottleUid] = 0; \r\n        exist[storageId][bottleUid] = false;\r\n\r\n        emit changing (block.timestamp, storageId, wineName, bottleUid);\r\n    }\r\n\r\n    function getStorageContent(uint256 storageId)\r\n    public view  returns(bottles[] memory )\r\n    {\r\n        return storageContent[storageId];\r\n    }\r\n\r\n    ////////////////////////////////////////////////////////////////////////////////SENSOR/////////////////////////////////////////////////////////////////////////////////////////////////\r\n\r\n    function sensorRegistration(uint256 storageId, uint256 sensorId) \r\n    public  \r\n    {\r\n        require (storageFacility[storageId] == true, \"Storage: this storage don't already exist\");\r\n        require(isStorage[storageId][sensorId] == false, \"Sensor: this sensor already exist\");\r\n\r\n        storageSensorList[storageId].push(sensorId);\r\n        isStorage[storageId][sensorId] = true;\r\n    }\r\n\r\n    function getstorageSensorList(uint256 storageId)\r\n    public view  returns(uint256[] memory )\r\n    {\r\n        return storageSensorList[storageId];\r\n    }\r\n\r\n    function dataStorage(uint256 storageId, uint256 sensorId, string memory dataHash, uint256 date) \r\n    public \r\n    {\r\n        require (storageFacility[storageId] == true, \"Storage: this storage don't already exist\");\r\n        require(isStorage[storageId][sensorId] == true, \"Storage: the sensor don't already exist in this storage\");\r\n        require(bytes(dataHash).length == 64, \"Sensor: please enter a sha256hash string\");\r\n        require((block.timestamp - date) > 0 &&  (block.timestamp - date)  <= 86400, \"Sensor: storage periode muss be smaller than 2 Days\");\r\n\r\n        sensorData[storageId][sensorId].push(data(dataHash,date));\r\n        emit hashStorage(date, dataHash, storageId, sensorId);\r\n    }\r\n        \r\n    function getHashHistories(uint256 storageId, uint256 sensorId) \r\n    public view returns(data[] memory)\r\n    {\r\n        require (storageFacility[storageId] == true, \"Storage: this storage don't already exist\");\r\n        require(isStorage[storageId][sensorId] == true, \"Storage: the sensor don't already exist in this storage\");\r\n        return sensorData[storageId][sensorId];\r\n    }\r\n}",
  "sourcePath": "/mnt/c/Users/Alex/Documents/Dev/testing/Wein_lager/contracts/Strorages.sol",
  "compiler": {
    "name": "solc",
    "version": "0.8.1+commit.df193b15.Emscripten.clang"
  },
  "schemaVersion": "3.4.4",
  "updatedAt": "2022-03-09T16:12:25.792Z",
  "networkType": "ethereum",
  "devdoc": {
    "kind": "dev",
    "methods": {
      "owner()": {
        "details": "Returns the address of the current owner."
      },
      "renounceOwnership()": {
        "details": "Leaves the contract without owner. It will not be possible to call `onlyOwner` functions anymore. Can only be called by the current owner. NOTE: Renouncing ownership will leave the contract without an owner, thereby removing any functionality that is only available to the owner."
      },
      "transferOwnership(address)": {
        "details": "Transfers ownership of the contract to a new account (`newOwner`). Can only be called by the current owner."
      }
    },
    "version": 1
  },
  "userdoc": {
    "kind": "user",
    "methods": {},
    "version": 1
  }
}