{
  "contractName": "Storages",
  "abi": [
    {
      "inputs": [
        {
          "internalType": "address",
          "name": "_nftContract",
          "type": "address"
        }
      ],
      "stateMutability": "nonpayable",
      "type": "constructor"
    },
    {
      "anonymous": false,
      "inputs": [
        {
          "indexed": true,
          "internalType": "address",
          "name": "previousOwner",
          "type": "address"
        },
        {
          "indexed": true,
          "internalType": "address",
          "name": "newOwner",
          "type": "address"
        }
      ],
      "name": "OwnershipTransferred",
      "type": "event"
    },
    {
      "anonymous": false,
      "inputs": [
        {
          "indexed": false,
          "internalType": "uint256",
          "name": "time",
          "type": "uint256"
        },
        {
          "indexed": false,
          "internalType": "uint256",
          "name": "storageId",
          "type": "uint256"
        },
        {
          "indexed": false,
          "internalType": "string",
          "name": "bottleName",
          "type": "string"
        },
        {
          "indexed": false,
          "internalType": "string",
          "name": "bottleUid",
          "type": "string"
        },
        {
          "indexed": false,
          "internalType": "string",
          "name": "InOrOut",
          "type": "string"
        }
      ],
      "name": "changing",
      "type": "event"
    },
    {
      "anonymous": false,
      "inputs": [
        {
          "indexed": false,
          "internalType": "uint256",
          "name": "time",
          "type": "uint256"
        },
        {
          "indexed": false,
          "internalType": "string",
          "name": "dataHash",
          "type": "string"
        },
        {
          "indexed": false,
          "internalType": "uint256",
          "name": "storageId",
          "type": "uint256"
        },
        {
          "indexed": false,
          "internalType": "uint256",
          "name": "sensorId",
          "type": "uint256"
        }
      ],
      "name": "hashStorage",
      "type": "event"
    },
    {
      "inputs": [
        {
          "internalType": "uint256",
          "name": "",
          "type": "uint256"
        },
        {
          "internalType": "string",
          "name": "",
          "type": "string"
        }
      ],
      "name": "exist",
      "outputs": [
        {
          "internalType": "bool",
          "name": "",
          "type": "bool"
        }
      ],
      "stateMutability": "view",
      "type": "function",
      "constant": true
    },
    {
      "inputs": [
        {
          "internalType": "uint256",
          "name": "",
          "type": "uint256"
        },
        {
          "internalType": "uint256",
          "name": "",
          "type": "uint256"
        }
      ],
      "name": "isStorage",
      "outputs": [
        {
          "internalType": "bool",
          "name": "",
          "type": "bool"
        }
      ],
      "stateMutability": "view",
      "type": "function",
      "constant": true
    },
    {
      "inputs": [],
      "name": "owner",
      "outputs": [
        {
          "internalType": "address",
          "name": "",
          "type": "address"
        }
      ],
      "stateMutability": "view",
      "type": "function",
      "constant": true
    },
    {
      "inputs": [],
      "name": "renounceOwnership",
      "outputs": [],
      "stateMutability": "nonpayable",
      "type": "function"
    },
    {
      "inputs": [
        {
          "internalType": "uint256",
          "name": "",
          "type": "uint256"
        },
        {
          "internalType": "uint256",
          "name": "",
          "type": "uint256"
        },
        {
          "internalType": "uint256",
          "name": "",
          "type": "uint256"
        }
      ],
      "name": "sensorData",
      "outputs": [
        {
          "internalType": "string",
          "name": "hash",
          "type": "string"
        },
        {
          "internalType": "uint256",
          "name": "date",
          "type": "uint256"
        }
      ],
      "stateMutability": "view",
      "type": "function",
      "constant": true
    },
    {
      "inputs": [
        {
          "internalType": "uint256",
          "name": "",
          "type": "uint256"
        },
        {
          "internalType": "uint256",
          "name": "",
          "type": "uint256"
        }
      ],
      "name": "storageContent",
      "outputs": [
        {
          "internalType": "string",
          "name": "name",
          "type": "string"
        },
        {
          "internalType": "string",
          "name": "uid",
          "type": "string"
        }
      ],
      "stateMutability": "view",
      "type": "function",
      "constant": true
    },
    {
      "inputs": [
        {
          "internalType": "uint256",
          "name": "",
          "type": "uint256"
        }
      ],
      "name": "storageFacility",
      "outputs": [
        {
          "internalType": "bool",
          "name": "",
          "type": "bool"
        }
      ],
      "stateMutability": "view",
      "type": "function",
      "constant": true
    },
    {
      "inputs": [
        {
          "internalType": "uint256",
          "name": "",
          "type": "uint256"
        },
        {
          "internalType": "uint256",
          "name": "",
          "type": "uint256"
        }
      ],
      "name": "storageSensorList",
      "outputs": [
        {
          "internalType": "uint256",
          "name": "",
          "type": "uint256"
        }
      ],
      "stateMutability": "view",
      "type": "function",
      "constant": true
    },
    {
      "inputs": [
        {
          "internalType": "address",
          "name": "newOwner",
          "type": "address"
        }
      ],
      "name": "transferOwnership",
      "outputs": [],
      "stateMutability": "nonpayable",
      "type": "function"
    },
    {
      "inputs": [
        {
          "internalType": "uint256",
          "name": "",
          "type": "uint256"
        },
        {
          "internalType": "string",
          "name": "",
          "type": "string"
        }
      ],
      "name": "uidPosition",
      "outputs": [
        {
          "internalType": "uint256",
          "name": "",
          "type": "uint256"
        }
      ],
      "stateMutability": "view",
      "type": "function",
      "constant": true
    },
    {
      "inputs": [
        {
          "internalType": "uint256",
          "name": "storageId",
          "type": "uint256"
        }
      ],
      "name": "setStorage",
      "outputs": [],
      "stateMutability": "nonpayable",
      "type": "function"
    },
    {
      "inputs": [
        {
          "internalType": "uint256",
          "name": "storageId",
          "type": "uint256"
        },
        {
          "internalType": "string",
          "name": "wineName",
          "type": "string"
        },
        {
          "internalType": "string",
          "name": "bottleUid",
          "type": "string"
        }
      ],
      "name": "checkBottleIn",
      "outputs": [],
      "stateMutability": "nonpayable",
      "type": "function"
    },
    {
      "inputs": [
        {
          "internalType": "uint256",
          "name": "storageId",
          "type": "uint256"
        },
        {
          "internalType": "string",
          "name": "wineName",
          "type": "string"
        },
        {
          "internalType": "string",
          "name": "bottleUid",
          "type": "string"
        }
      ],
      "name": "checkBottleOut",
      "outputs": [],
      "stateMutability": "nonpayable",
      "type": "function"
    },
    {
      "inputs": [
        {
          "internalType": "uint256",
          "name": "storageId",
          "type": "uint256"
        }
      ],
      "name": "getStorageContent",
      "outputs": [
        {
          "components": [
            {
              "internalType": "string",
              "name": "name",
              "type": "string"
            },
            {
              "internalType": "string",
              "name": "uid",
              "type": "string"
            }
          ],
          "internalType": "struct Storages.bottles[]",
          "name": "",
          "type": "tuple[]"
        }
      ],
      "stateMutability": "view",
      "type": "function",
      "constant": true
    },
    {
      "inputs": [
        {
          "internalType": "uint256",
          "name": "storageId",
          "type": "uint256"
        },
        {
          "internalType": "uint256",
          "name": "sensorId",
          "type": "uint256"
        }
      ],
      "name": "sensorRegistration",
      "outputs": [],
      "stateMutability": "nonpayable",
      "type": "function"
    },
    {
      "inputs": [
        {
          "internalType": "uint256",
          "name": "storageId",
          "type": "uint256"
        }
      ],
      "name": "getstorageSensorList",
      "outputs": [
        {
          "internalType": "uint256[]",
          "name": "",
          "type": "uint256[]"
        }
      ],
      "stateMutability": "view",
      "type": "function",
      "constant": true
    },
    {
      "inputs": [
        {
          "internalType": "uint256",
          "name": "storageId",
          "type": "uint256"
        },
        {
          "internalType": "uint256",
          "name": "sensorId",
          "type": "uint256"
        },
        {
          "internalType": "string",
          "name": "dataHash",
          "type": "string"
        }
      ],
      "name": "dataStorage",
      "outputs": [],
      "stateMutability": "nonpayable",
      "type": "function"
    },
    {
      "inputs": [
        {
          "internalType": "uint256",
          "name": "storageId",
          "type": "uint256"
        },
        {
          "internalType": "uint256",
          "name": "sensorId",
          "type": "uint256"
        }
      ],
      "name": "getHashHistories",
      "outputs": [
        {
          "components": [
            {
              "internalType": "string",
              "name": "hash",
              "type": "string"
            },
            {
              "internalType": "uint256",
              "name": "date",
              "type": "uint256"
            }
          ],
          "internalType": "struct Storages.data[]",
          "name": "",
          "type": "tuple[]"
        }
      ],
      "stateMutability": "view",
      "type": "function",
      "constant": true
    }
  ],
  "bytecode": "0x60806040523480156200001157600080fd5b5060405162002f1838038062002f18833981810160405281019062000037919062000182565b620000576200004b6200009f60201b60201c565b620000a760201b60201c565b80600160006101000a81548173ffffffffffffffffffffffffffffffffffffffff021916908373ffffffffffffffffffffffffffffffffffffffff16021790555050620001fc565b600033905090565b60008060009054906101000a900473ffffffffffffffffffffffffffffffffffffffff169050816000806101000a81548173ffffffffffffffffffffffffffffffffffffffff021916908373ffffffffffffffffffffffffffffffffffffffff1602179055508173ffffffffffffffffffffffffffffffffffffffff168173ffffffffffffffffffffffffffffffffffffffff167f8be0079c531659141344cd1fd0a4f28419497f9722a3daafe3b4186f6b6457e060405160405180910390a35050565b6000815190506200017c81620001e2565b92915050565b6000602082840312156200019557600080fd5b6000620001a5848285016200016b565b91505092915050565b6000620001bb82620001c2565b9050919050565b600073ffffffffffffffffffffffffffffffffffffffff82169050919050565b620001ed81620001ae565b8114620001f957600080fd5b50565b612d0c806200020c6000396000f3fe608060405234801561001057600080fd5b50600436106101165760003560e01c806391ccd742116100a2578063bbf7655a11610071578063bbf7655a14610318578063bdb4f9e614610349578063d699c75014610379578063de0988e814610395578063f2fde38b146103b157610116565b806391ccd74214610280578063a53e3dbe1461029c578063ad062287146102b8578063ae86356a146102e857610116565b806345152876116100e957806345152876146101dc5780635e5b79ff146101f8578063715018a614610228578063753c707c146102325780638da5cb5b1461026257610116565b80631a6cec481461011b5780633c2f98871461014c578063431abdad1461017c57806343cdd78d146101ac575b600080fd5b61013560048036038101906101309190611d17565b6103cd565b604051610143929190612322565b60405180910390f35b61016660048036038101906101619190611b78565b6104a3565b60405161017391906122d0565b60405180910390f35b61019660048036038101906101919190611c74565b6104c3565b6040516101a391906122d0565b60405180910390f35b6101c660048036038101906101c19190611c74565b6104f2565b6040516101d391906124d2565b60405180910390f35b6101f660048036038101906101f19190611cb0565b610523565b005b610212600480360381019061020d9190611c74565b610719565b60405161021f919061228c565b60405180910390f35b610230610918565b005b61024c60048036038101906102479190611b78565b6109a0565b604051610259919061226a565b60405180910390f35b61026a610b36565b604051610277919061224f565b60405180910390f35b61029a60048036038101906102959190611bf5565b610b5f565b005b6102b660048036038101906102b19190611bf5565b610da9565b005b6102d260048036038101906102cd9190611b78565b611066565b6040516102df91906122ae565b60405180910390f35b61030260048036038101906102fd9190611ba1565b6110d1565b60405161030f91906122d0565b60405180910390f35b610332600480360381019061032d9190611c74565b611116565b6040516103409291906122eb565b60405180910390f35b610363600480360381019061035e9190611ba1565b611267565b60405161037091906124d2565b60405180910390f35b610393600480360381019061038e9190611b78565b6112a2565b005b6103af60048036038101906103aa9190611c74565b61137b565b005b6103cb60048036038101906103c69190611b26565b6114d5565b005b600260205282600052604060002060205281600052604060002081815481106103f557600080fd5b9060005260206000209060020201600092509250505080600001805461041a906127fc565b80601f0160208091040260200160405190810160405280929190818152602001828054610446906127fc565b80156104935780601f1061046857610100808354040283529160200191610493565b820191906000526020600020905b81548152906001019060200180831161047657829003601f168201915b5050505050908060010154905082565b60056020528060005260406000206000915054906101000a900460ff1681565b60036020528160005260406000206020528060005260406000206000915091509054906101000a900460ff1681565b6004602052816000526040600020818154811061050e57600080fd5b90600052602060002001600091509150505481565b600115156005600085815260200190815260200160002060009054906101000a900460ff1615151461058a576040517f08c379a000000000000000000000000000000000000000000000000000000000815260040161058190612432565b60405180910390fd5b6001151560036000858152602001908152602001600020600084815260200190815260200160002060009054906101000a900460ff16151514610602576040517f08c379a00000000000000000000000000000000000000000000000000000000081526004016105f9906124b2565b60405180910390fd5b6040815114610646576040517f08c379a000000000000000000000000000000000000000000000000000000000815260040161063d90612372565b60405180910390fd5b6000429050600260008581526020019081526020016000206000848152602001908152602001600020604051806040016040528084815260200183815250908060018154018082558091505060019003906000526020600020906002020160009091909190915060008201518160000190805190602001906106c992919061199c565b506020820151816001015550507fbc4fca7659c06fef09ca013fb82ea89544864eaec96792a316e633d7186eeeac8183868660405161070b94939291906124ed565b60405180910390a150505050565b6060600115156005600085815260200190815260200160002060009054906101000a900460ff16151514610782576040517f08c379a000000000000000000000000000000000000000000000000000000000815260040161077990612432565b60405180910390fd5b6001151560036000858152602001908152602001600020600084815260200190815260200160002060009054906101000a900460ff161515146107fa576040517f08c379a00000000000000000000000000000000000000000000000000000000081526004016107f1906124b2565b60405180910390fd5b600260008481526020019081526020016000206000838152602001908152602001600020805480602002602001604051908101604052809291908181526020016000905b8282101561090c5783829060005260206000209060020201604051806040016040529081600082018054610871906127fc565b80601f016020809104026020016040519081016040528092919081815260200182805461089d906127fc565b80156108ea5780601f106108bf576101008083540402835291602001916108ea565b820191906000526020600020905b8154815290600101906020018083116108cd57829003601f168201915b505050505081526020016001820154815250508152602001906001019061083e565b50505050905092915050565b6109206115cd565b73ffffffffffffffffffffffffffffffffffffffff1661093e610b36565b73ffffffffffffffffffffffffffffffffffffffff1614610994576040517f08c379a000000000000000000000000000000000000000000000000000000000815260040161098b90612412565b60405180910390fd5b61099e60006115d5565b565b606060066000838152602001908152602001600020805480602002602001604051908101604052809291908181526020016000905b82821015610b2b5783829060005260206000209060020201604051806040016040529081600082018054610a08906127fc565b80601f0160208091040260200160405190810160405280929190818152602001828054610a34906127fc565b8015610a815780601f10610a5657610100808354040283529160200191610a81565b820191906000526020600020905b815481529060010190602001808311610a6457829003601f168201915b50505050508152602001600182018054610a9a906127fc565b80601f0160208091040260200160405190810160405280929190818152602001828054610ac6906127fc565b8015610b135780601f10610ae857610100808354040283529160200191610b13565b820191906000526020600020905b815481529060010190602001808311610af657829003601f168201915b505050505081525050815260200190600101906109d5565b505050509050919050565b60008060009054906101000a900473ffffffffffffffffffffffffffffffffffffffff16905090565b610b676115cd565b73ffffffffffffffffffffffffffffffffffffffff16610b85610b36565b73ffffffffffffffffffffffffffffffffffffffff1614610bdb576040517f08c379a0000000000000000000000000000000000000000000000000000000008152600401610bd290612412565b60405180910390fd5b600115156008600085815260200190815260200160002082604051610c009190612238565b908152602001604051809103902060009054906101000a900460ff16151514610c5e576040517f08c379a0000000000000000000000000000000000000000000000000000000008152600401610c55906123f2565b60405180910390fd5b610c688382611699565b60066000848152602001908152602001600020805480610cb1577f4e487b7100000000000000000000000000000000000000000000000000000000600052603160045260246000fd5b600190038181906000526020600020906002020160008082016000610cd69190611a22565b600182016000610ce69190611a22565b5050905560006007600085815260200190815260200160002082604051610d0d9190612238565b90815260200160405180910390208190555060006008600085815260200190815260200160002082604051610d429190612238565b908152602001604051809103902060006101000a81548160ff0219169083151502179055507ff8b82686cbe5b13c26e2187b77d2a4c136eb4341a8d79f3d1ed1ead82e8da7a642848484604051610d9c9493929190612539565b60405180910390a1505050565b600115156005600085815260200190815260200160002060009054906101000a900460ff16151514610e10576040517f08c379a0000000000000000000000000000000000000000000000000000000008152600401610e0790612392565b60405180910390fd5b60011515600160009054906101000a900473ffffffffffffffffffffffffffffffffffffffff1673ffffffffffffffffffffffffffffffffffffffff1663ee9350ba84846040518363ffffffff1660e01b8152600401610e719291906122eb565b602060405180830381600087803b158015610e8b57600080fd5b505af1158015610e9f573d6000803e3d6000fd5b505050506040513d601f19601f82011682018060405250810190610ec39190611b4f565b151514610f05576040517f08c379a0000000000000000000000000000000000000000000000000000000008152600401610efc90612452565b60405180910390fd5b6006600084815260200190815260200160002060405180604001604052808481526020018381525090806001815401808255809150506001900390600052602060002090600202016000909190919091506000820151816000019080519060200190610f7292919061199c565b506020820151816001019080519060200190610f8f92919061199c565b50505060066000848152602001908152602001600020805490506007600085815260200190815260200160002082604051610fca9190612238565b90815260200160405180910390208190555060016008600085815260200190815260200160002082604051610fff9190612238565b908152602001604051809103902060006101000a81548160ff0219169083151502179055507ff8b82686cbe5b13c26e2187b77d2a4c136eb4341a8d79f3d1ed1ead82e8da7a642848484604051611059949392919061259f565b60405180910390a1505050565b6060600460008381526020019081526020016000208054806020026020016040519081016040528092919081815260200182805480156110c557602002820191906000526020600020905b8154815260200190600101908083116110b1575b50505050509050919050565b6008602052816000526040600020818051602081018201805184825260208301602085012081835280955050505050506000915091509054906101000a900460ff1681565b6006602052816000526040600020818154811061113257600080fd5b906000526020600020906002020160009150915050806000018054611156906127fc565b80601f0160208091040260200160405190810160405280929190818152602001828054611182906127fc565b80156111cf5780601f106111a4576101008083540402835291602001916111cf565b820191906000526020600020905b8154815290600101906020018083116111b257829003601f168201915b5050505050908060010180546111e4906127fc565b80601f0160208091040260200160405190810160405280929190818152602001828054611210906127fc565b801561125d5780601f106112325761010080835404028352916020019161125d565b820191906000526020600020905b81548152906001019060200180831161124057829003601f168201915b5050505050905082565b600760205281600052604060002081805160208101820180518482526020830160208501208183528095505050505050600091509150505481565b600081116112e5576040517f08c379a00000000000000000000000000000000000000000000000000000000081526004016112dc90612492565b60405180910390fd5b600015156005600083815260200190815260200160002060009054906101000a900460ff1615151461134c576040517f08c379a000000000000000000000000000000000000000000000000000000000815260040161134390612472565b60405180910390fd5b60016005600083815260200190815260200160002060006101000a81548160ff02191690831515021790555050565b600115156005600084815260200190815260200160002060009054906101000a900460ff161515146113e2576040517f08c379a00000000000000000000000000000000000000000000000000000000081526004016113d990612432565b60405180910390fd5b6000151560036000848152602001908152602001600020600083815260200190815260200160002060009054906101000a900460ff1615151461145a576040517f08c379a0000000000000000000000000000000000000000000000000000000008152600401611451906123d2565b60405180910390fd5b60046000838152602001908152602001600020819080600181540180825580915050600190039060005260206000200160009091909190915055600160036000848152602001908152602001600020600083815260200190815260200160002060006101000a81548160ff0219169083151502179055505050565b6114dd6115cd565b73ffffffffffffffffffffffffffffffffffffffff166114fb610b36565b73ffffffffffffffffffffffffffffffffffffffff1614611551576040517f08c379a000000000000000000000000000000000000000000000000000000000815260040161154890612412565b60405180910390fd5b600073ffffffffffffffffffffffffffffffffffffffff168173ffffffffffffffffffffffffffffffffffffffff1614156115c1576040517f08c379a00000000000000000000000000000000000000000000000000000000081526004016115b890612352565b60405180910390fd5b6115ca816115d5565b50565b600033905090565b60008060009054906101000a900473ffffffffffffffffffffffffffffffffffffffff169050816000806101000a81548173ffffffffffffffffffffffffffffffffffffffff021916908373ffffffffffffffffffffffffffffffffffffffff1602179055508173ffffffffffffffffffffffffffffffffffffffff168173ffffffffffffffffffffffffffffffffffffffff167f8be0079c531659141344cd1fd0a4f28419497f9722a3daafe3b4186f6b6457e060405160405180910390a35050565b600060076000848152602001908152602001600020826040516116bc9190612238565b9081526020016040518091039020541161170b576040517f08c379a0000000000000000000000000000000000000000000000000000000008152600401611702906123b2565b60405180910390fd5b6000600160076000858152602001908152602001600020836040516117309190612238565b908152602001604051809103902054611749919061273e565b9050600060066000858152602001908152602001600020805490509050600060066000868152602001908152602001600020600183611788919061273e565b815481106117bf577f4e487b7100000000000000000000000000000000000000000000000000000000600052603260045260246000fd5b90600052602060002090600202016040518060400160405290816000820180546117e8906127fc565b80601f0160208091040260200160405190810160405280929190818152602001828054611814906127fc565b80156118615780601f1061183657610100808354040283529160200191611861565b820191906000526020600020905b81548152906001019060200180831161184457829003601f168201915b5050505050815260200160018201805461187a906127fc565b80601f01602080910402602001604051908101604052809291908181526020018280546118a6906127fc565b80156118f35780601f106118c8576101008083540402835291602001916118f3565b820191906000526020600020905b8154815290600101906020018083116118d657829003601f168201915b50505050508152505090508060066000878152602001908152602001600020848154811061194a577f4e487b7100000000000000000000000000000000000000000000000000000000600052603260045260246000fd5b9060005260206000209060020201600082015181600001908051906020019061197492919061199c565b50602082015181600101908051906020019061199192919061199c565b509050505050505050565b8280546119a8906127fc565b90600052602060002090601f0160209004810192826119ca5760008555611a11565b82601f106119e357805160ff1916838001178555611a11565b82800160010185558215611a11579182015b82811115611a105782518255916020019190600101906119f5565b5b509050611a1e9190611a62565b5090565b508054611a2e906127fc565b6000825580601f10611a405750611a5f565b601f016020900490600052602060002090810190611a5e9190611a62565b5b50565b5b80821115611a7b576000816000905550600101611a63565b5090565b6000611a92611a8d8461262a565b612605565b905082815260208101848484011115611aaa57600080fd5b611ab58482856127ba565b509392505050565b600081359050611acc81612c91565b92915050565b600081519050611ae181612ca8565b92915050565b600082601f830112611af857600080fd5b8135611b08848260208601611a7f565b91505092915050565b600081359050611b2081612cbf565b92915050565b600060208284031215611b3857600080fd5b6000611b4684828501611abd565b91505092915050565b600060208284031215611b6157600080fd5b6000611b6f84828501611ad2565b91505092915050565b600060208284031215611b8a57600080fd5b6000611b9884828501611b11565b91505092915050565b60008060408385031215611bb457600080fd5b6000611bc285828601611b11565b925050602083013567ffffffffffffffff811115611bdf57600080fd5b611beb85828601611ae7565b9150509250929050565b600080600060608486031215611c0a57600080fd5b6000611c1886828701611b11565b935050602084013567ffffffffffffffff811115611c3557600080fd5b611c4186828701611ae7565b925050604084013567ffffffffffffffff811115611c5e57600080fd5b611c6a86828701611ae7565b9150509250925092565b60008060408385031215611c8757600080fd5b6000611c9585828601611b11565b9250506020611ca685828601611b11565b9150509250929050565b600080600060608486031215611cc557600080fd5b6000611cd386828701611b11565b9350506020611ce486828701611b11565b925050604084013567ffffffffffffffff811115611d0157600080fd5b611d0d86828701611ae7565b9150509250925092565b600080600060608486031215611d2c57600080fd5b6000611d3a86828701611b11565b9350506020611d4b86828701611b11565b9250506040611d5c86828701611b11565b9150509250925092565b6000611d728383612199565b905092915050565b6000611d8683836121dd565b905092915050565b6000611d9a838361221a565b60208301905092915050565b611daf81612772565b82525050565b6000611dc08261268b565b611dca81856126de565b935083602082028501611ddc8561265b565b8060005b85811015611e185784840389528151611df98582611d66565b9450611e04836126b7565b925060208a01995050600181019050611de0565b50829750879550505050505092915050565b6000611e3582612696565b611e3f81856126ef565b935083602082028501611e518561266b565b8060005b85811015611e8d5784840389528151611e6e8582611d7a565b9450611e79836126c4565b925060208a01995050600181019050611e55565b50829750879550505050505092915050565b6000611eaa826126a1565b611eb48185612700565b9350611ebf8361267b565b8060005b83811015611ef0578151611ed78882611d8e565b9750611ee2836126d1565b925050600181019050611ec3565b5085935050505092915050565b611f0681612784565b82525050565b6000611f17826126ac565b611f218185612711565b9350611f318185602086016127c9565b611f3a816128ec565b840191505092915050565b6000611f50826126ac565b611f5a8185612722565b9350611f6a8185602086016127c9565b611f73816128ec565b840191505092915050565b6000611f89826126ac565b611f938185612733565b9350611fa38185602086016127c9565b80840191505092915050565b6000611fbc600383612722565b9150611fc7826128fd565b602082019050919050565b6000611fdf600283612722565b9150611fea82612926565b602082019050919050565b6000612002602683612722565b915061200d8261294f565b604082019050919050565b6000612025602883612722565b91506120308261299e565b604082019050919050565b6000612048601f83612722565b9150612053826129ed565b602082019050919050565b600061206b602b83612722565b915061207682612a16565b604082019050919050565b600061208e602183612722565b915061209982612a65565b604082019050919050565b60006120b1603083612722565b91506120bc82612ab4565b604082019050919050565b60006120d4602083612722565b91506120df82612b03565b602082019050919050565b60006120f7602983612722565b915061210282612b2c565b604082019050919050565b600061211a601e83612722565b915061212582612b7b565b602082019050919050565b600061213d602383612722565b915061214882612ba4565b604082019050919050565b6000612160602f83612722565b915061216b82612bf3565b604082019050919050565b6000612183603783612722565b915061218e82612c42565b604082019050919050565b600060408301600083015184820360008601526121b68282611f0c565b915050602083015184820360208601526121d08282611f0c565b9150508091505092915050565b600060408301600083015184820360008601526121fa8282611f0c565b915050602083015161220f602086018261221a565b508091505092915050565b612223816127b0565b82525050565b612232816127b0565b82525050565b60006122448284611f7e565b915081905092915050565b60006020820190506122646000830184611da6565b92915050565b600060208201905081810360008301526122848184611db5565b905092915050565b600060208201905081810360008301526122a68184611e2a565b905092915050565b600060208201905081810360008301526122c88184611e9f565b905092915050565b60006020820190506122e56000830184611efd565b92915050565b600060408201905081810360008301526123058185611f45565b905081810360208301526123198184611f45565b90509392505050565b6000604082019050818103600083015261233c8185611f45565b905061234b6020830184612229565b9392505050565b6000602082019050818103600083015261236b81611ff5565b9050919050565b6000602082019050818103600083015261238b81612018565b9050919050565b600060208201905081810360008301526123ab8161203b565b9050919050565b600060208201905081810360008301526123cb8161205e565b9050919050565b600060208201905081810360008301526123eb81612081565b9050919050565b6000602082019050818103600083015261240b816120a4565b9050919050565b6000602082019050818103600083015261242b816120c7565b9050919050565b6000602082019050818103600083015261244b816120ea565b9050919050565b6000602082019050818103600083015261246b8161210d565b9050919050565b6000602082019050818103600083015261248b81612130565b9050919050565b600060208201905081810360008301526124ab81612153565b9050919050565b600060208201905081810360008301526124cb81612176565b9050919050565b60006020820190506124e76000830184612229565b92915050565b60006080820190506125026000830187612229565b81810360208301526125148186611f45565b90506125236040830185612229565b6125306060830184612229565b95945050505050565b600060a08201905061254e6000830187612229565b61255b6020830186612229565b818103604083015261256d8185611f45565b905081810360608301526125818184611f45565b9050818103608083015261259481611faf565b905095945050505050565b600060a0820190506125b46000830187612229565b6125c16020830186612229565b81810360408301526125d38185611f45565b905081810360608301526125e78184611f45565b905081810360808301526125fa81611fd2565b905095945050505050565b600061260f612620565b905061261b828261282e565b919050565b6000604051905090565b600067ffffffffffffffff821115612645576126446128bd565b5b61264e826128ec565b9050602081019050919050565b6000819050602082019050919050565b6000819050602082019050919050565b6000819050602082019050919050565b600081519050919050565b600081519050919050565b600081519050919050565b600081519050919050565b6000602082019050919050565b6000602082019050919050565b6000602082019050919050565b600082825260208201905092915050565b600082825260208201905092915050565b600082825260208201905092915050565b600082825260208201905092915050565b600082825260208201905092915050565b600081905092915050565b6000612749826127b0565b9150612754836127b0565b9250828210156127675761276661285f565b5b828203905092915050565b600061277d82612790565b9050919050565b60008115159050919050565b600073ffffffffffffffffffffffffffffffffffffffff82169050919050565b6000819050919050565b82818337600083830152505050565b60005b838110156127e75780820151818401526020810190506127cc565b838111156127f6576000848401525b50505050565b6000600282049050600182168061281457607f821691505b602082108114156128285761282761288e565b5b50919050565b612837826128ec565b810181811067ffffffffffffffff82111715612856576128556128bd565b5b80604052505050565b7f4e487b7100000000000000000000000000000000000000000000000000000000600052601160045260246000fd5b7f4e487b7100000000000000000000000000000000000000000000000000000000600052602260045260246000fd5b7f4e487b7100000000000000000000000000000000000000000000000000000000600052604160045260246000fd5b6000601f19601f8301169050919050565b7f4f55540000000000000000000000000000000000000000000000000000000000600082015250565b7f494e000000000000000000000000000000000000000000000000000000000000600082015250565b7f4f776e61626c653a206e6577206f776e657220697320746865207a65726f206160008201527f6464726573730000000000000000000000000000000000000000000000000000602082015250565b7f53656e736f723a20706c6561736520656e74657220612073686132353668617360008201527f6820737472696e67000000000000000000000000000000000000000000000000602082015250565b7f53746f726167653a2074686973206c6167657220646f6e277420657869737400600082015250565b7f53746f726167653a207468697320626f74746c65206973206e6f7420696e207460008201527f6869732073746f72616765000000000000000000000000000000000000000000602082015250565b7f53656e736f723a20746869732073656e736f7220616c7265616479206578697360008201527f7400000000000000000000000000000000000000000000000000000000000000602082015250565b7f4c616765723a2074686520626f74746c65206973206e6f7420616c726561647960008201527f20696e20746869732073746f7261676500000000000000000000000000000000602082015250565b7f4f776e61626c653a2063616c6c6572206973206e6f7420746865206f776e6572600082015250565b7f53746f726167653a20746869732073746f7261676520646f6e277420616c726560008201527f6164792065786973740000000000000000000000000000000000000000000000602082015250565b7f4e46543a207468697320626f74746c65206973206e6f7420616e204e46540000600082015250565b7f53746f726167653a20746869732073746f7261676520616c726561647920657860008201527f6973740000000000000000000000000000000000000000000000000000000000602082015250565b7f53746f726167653a207468652073746f726167654964206d6f7374206265206260008201527f6967676572207468616e207a65726f0000000000000000000000000000000000602082015250565b7f53746f726167653a207468652073656e736f7220646f6e277420616c7265616460008201527f7920657869737420696e20746869732073746f72616765000000000000000000602082015250565b612c9a81612772565b8114612ca557600080fd5b50565b612cb181612784565b8114612cbc57600080fd5b50565b612cc8816127b0565b8114612cd357600080fd5b5056fea2646970667358221220ab904e1619dec11612ad17fb7b77c2e5c4c71e789ac7b1e642ca01d5a01197f764736f6c63430008010033",
  "immutableReferences": {},
  "source": "// SPDX-License-Identifier: MIT\r\npragma solidity ^0.8.1;\r\n\r\n\r\nimport \"./Bottles.sol\";\r\nimport \"@openzeppelin/contracts/access/Ownable.sol\";\r\n\r\ncontract Storages is Ownable {\r\n        \r\n    Bottles nftContract;\r\n    constructor(address _nftContract){\r\n        nftContract = Bottles(_nftContract);\r\n    }\r\n\r\n    struct bottles{\r\n        string name;\r\n        string uid;\r\n    }\r\n\r\n    struct data {\r\n        string hash;\r\n        uint256 date;\r\n    }\r\n\r\n    mapping(uint256 => mapping(uint256 => data[])) public sensorData;\r\n    mapping(uint256 => mapping(uint256 => bool)) public isStorage;\r\n    mapping(uint256 => uint256[]) public storageSensorList;\r\n\r\n    mapping(uint256 => bool) public storageFacility;\r\n    mapping(uint256 => bottles[]) public storageContent;\r\n    mapping(uint256 => mapping(string => uint256)) public uidPosition;\r\n    mapping(uint256 => mapping(string => bool)) public exist;\r\n\r\n    event hashStorage(uint256 time, string dataHash, uint256 storageId, uint256 sensorId);\r\n    event changing(uint256 time, uint256 storageId, string bottleName, string bottleUid, string InOrOut);\r\n\r\n    ////////////////////////////////////////////////////////////////////////////////Storage/////////////////////////////////////////////////////////////////////////////////////////////////\r\n\r\n    function setStorage(uint256 storageId) \r\n    public \r\n    {\r\n        require (storageId > 0, \"Storage: the storageId most be bigger than zero\");\r\n        require (storageFacility[storageId] == false, \"Storage: this storage already exist\");\r\n        storageFacility[storageId] = true;\r\n    }\r\n\r\n    function checkBottleIn(uint256 storageId, string memory wineName, string memory bottleUid) \r\n    public \r\n    {\r\n        require(storageFacility[storageId] == true,\"Storage: this lager don't exist\");\r\n        require(nftContract.existence(wineName,bottleUid) == true, \"NFT: this bottle is not an NFT\");\r\n\r\n        storageContent[storageId].push(bottles(wineName,bottleUid));\r\n        uidPosition[storageId][bottleUid] = storageContent[storageId].length;\r\n        exist[storageId][bottleUid] = true;\r\n\r\n        emit changing(block.timestamp, storageId, wineName, bottleUid, \"IN\" );\r\n    }\r\n\r\n    function swapPosition( uint256 storageId, string memory bottleUid)\r\n    internal \r\n    {\r\n        require (uidPosition[storageId][bottleUid] > 0, \"Storage: this bottle is not in this storage\");\r\n\r\n        uint256 descendant = (uidPosition[storageId][bottleUid]-1);\r\n        uint256 upwards = storageContent[storageId].length;\r\n        bottles memory switcher = storageContent[storageId][upwards - 1];\r\n        storageContent[storageId][descendant] = switcher;\r\n\r\n    }\r\n\r\n    function checkBottleOut(uint256 storageId, string memory wineName, string memory bottleUid) \r\n    public onlyOwner\r\n    {\r\n        require (exist[storageId][bottleUid] == true,\"Lager: the bottle is not already in this storage\");\r\n\r\n        swapPosition(storageId,bottleUid);\r\n        storageContent[storageId].pop();\r\n        uidPosition[storageId][bottleUid] = 0; \r\n        exist[storageId][bottleUid] = false;\r\n\r\n        emit changing (block.timestamp, storageId, wineName, bottleUid, \"OUT\");\r\n    }\r\n\r\n    function getStorageContent(uint256 storageId)\r\n    public view  returns(bottles[] memory )\r\n    {\r\n        return storageContent[storageId];\r\n    }\r\n\r\n    ////////////////////////////////////////////////////////////////////////////////SENSOR/////////////////////////////////////////////////////////////////////////////////////////////////\r\n\r\n    function sensorRegistration(uint256 storageId, uint256 sensorId) \r\n    public  \r\n    {\r\n        require (storageFacility[storageId] == true, \"Storage: this storage don't already exist\");\r\n        require(isStorage[storageId][sensorId] == false, \"Sensor: this sensor already exist\");\r\n\r\n        storageSensorList[storageId].push(sensorId);\r\n        isStorage[storageId][sensorId] = true;\r\n    }\r\n\r\n    function getstorageSensorList(uint256 storageId)\r\n    public view  returns(uint256[] memory )\r\n    {\r\n        return storageSensorList[storageId];\r\n    }\r\n\r\n    function dataStorage(uint256 storageId, uint256 sensorId, string memory dataHash) \r\n    public \r\n    {\r\n        require (storageFacility[storageId] == true, \"Storage: this storage don't already exist\");\r\n        require(isStorage[storageId][sensorId] == true, \"Storage: the sensor don't already exist in this storage\");\r\n        require(bytes(dataHash).length == 64, \"Sensor: please enter a sha256hash string\");\r\n\r\n        uint256 date = block.timestamp;\r\n        sensorData[storageId][sensorId].push(data(dataHash,date));\r\n        emit hashStorage(date, dataHash, storageId, sensorId);\r\n    }\r\n        \r\n    function getHashHistories(uint256 storageId, uint256 sensorId) \r\n    public view returns(data[] memory)\r\n    {\r\n        require (storageFacility[storageId] == true, \"Storage: this storage don't already exist\");\r\n        require(isStorage[storageId][sensorId] == true, \"Storage: the sensor don't already exist in this storage\");\r\n        return sensorData[storageId][sensorId];\r\n    }\r\n}",
  "sourcePath": "C:\\Users\\Alex\\Documents\\Dev\\testing\\Wein_lager\\contracts\\Storages.sol",
  "compiler": {
    "name": "solc",
    "version": "0.8.1+commit.df193b15.Emscripten.clang"
  },
  "schemaVersion": "3.4.4",
  "updatedAt": "2022-03-10T06:51:07.912Z",
  "networkType": "ethereum",
  "devdoc": {
    "kind": "dev",
    "methods": {
      "owner()": {
        "details": "Returns the address of the current owner."
      },
      "renounceOwnership()": {
        "details": "Leaves the contract without owner. It will not be possible to call `onlyOwner` functions anymore. Can only be called by the current owner. NOTE: Renouncing ownership will leave the contract without an owner, thereby removing any functionality that is only available to the owner."
      },
      "transferOwnership(address)": {
        "details": "Transfers ownership of the contract to a new account (`newOwner`). Can only be called by the current owner."
      }
    },
    "version": 1
  },
  "userdoc": {
    "kind": "user",
    "methods": {},
    "version": 1
  }
}